:020000040800F2
:10000000701F002089010008951900085D1900087B
:10001000911900088F020008DD1D00080000000093
:10002000000000000000000000000000C1190008EE
:10003000930200080000000097190008291A000820
:10004000A3010008A3010008A3010008A301000800
:10005000A3010008A3010008A3010008A3010008F0
:10006000A3010008A3010008A3010008A3010008E0
:10007000A3010008A3010008A3010008A3010008D0
:10008000A3010008A3010008A3010008A3010008C0
:10009000CD1D0008A3010008A3010008A30100086A
:1000A000A3010008A3010008A3010008A3010008A0
:1000B000891A0008A3010008A3010008A301000891
:1000C000A3010008A3010008A3010008A301000880
:1000D000A3010008A3010008BD1D0008A30100083A
:1000E000A3010008A3010008A301000800F002F822
:1000F00000F03AF80AA090E8000C82448344AAF188
:100100000107DA4501D100F02FF8AFF2090EBAE885
:100110000F0013F0010F18BFFB1A43F0010318473B
:10012000441D0000641D0000103A24BF78C878C147
:10013000FAD8520724BF30C830C144BF04680C60ED
:10014000704700000023002400250026103A28BF35
:1001500078C1FBD8520728BF30C148BF0B60704739
:100160001FB51FBD10B510BD00F058F81146FFF7C0
:10017000F7FF01F051FE00F076F803B4FFF7F2FF4D
:1001800003BC00F07DF8000009488047094800479B
:10019000FEE7FEE7FEE7FEE7FEE7FEE7FEE7FEE737
:1001A000FEE7FEE704480549054A064B7047000094
:1001B000311A0008ED00000870190020701F00209F
:1001C000701B0020701B00204FF0000200B513468A
:1001D00094469646203922BFA0E80C50A0E80C5067
:1001E000B1F12001BFF4F7AF090728BFA0E80C5018
:1001F00048BF0CC05DF804EB890028BF40F8042B11
:1002000008BF704748BF20F8022B11F0804F18BF7D
:1002100000F8012B7047704770477047754600F033
:100220002BF8AE4605006946534620F00700854688
:1002300018B020B5FFF7B6FFBDE820404FF000062C
:100240004FF000074FF000084FF0000B21F00701BE
:10025000AC46ACE8C009ACE8C009ACE8C009ACE801
:10026000C0098D46704710B50446AFF300802046A4
:10027000BDE81040FFF781BF00487047101900200B
:1002800001491820ABBEFEE726000200704700BF00
:10029000FEE7704704E003480068401C014908601D
:1002A000F9E7000044000020704770B5044694F858
:1002B0002050012D01D0022D7DD151B92068C06898
:1002C00000F0030080B9606A40F400106062012011
:1002D00070BD2068006900F0030028B9606A40F42E
:1002E000001060620120F3E7206800F5D87000EB91
:1002F0000110006800F004009060906840B9206828
:1003000000F5D87000EB01100068400D106007E0A8
:10031000206800F5D87000EB01100068C00850603C
:10032000206800F5D87000EB0110006800F00200B2
:10033000D060206800F5D87000EB0110406800F034
:100340000F001061206800F5D87000EB01104068C4
:1003500000F47F40000A9061206800F5D87000EB3F
:1003600001104068000C5061206800F5D87000EB67
:10037000011080681870206800F5D87000EB01103B
:10038000806800F47F40000A5870206800F5D8703B
:1003900000EB0110806800F47F00000C987020686A
:1003A00000F5D87000EB01108068000ED87020684E
:1003B00000F5D87000E02FE000EB0110C068187164
:1003C000206800F5D87000EB0110C06800F47F4091
:1003D000000A5871206800F5D87000EB0110C06861
:1003E00000F47F00000C9871206800F5D87000EBD5
:1003F0000110C068000ED87131B92068C06840F0A3
:1004000020002668F06005E02068006940F02000C8
:100410002668306100205BE7606A40F480206062FB
:10042000012055E72DE9F05F044600252068466964
:100430002068D0F80490206887682068D0F80CA065
:100440002068D0F810B02068D0F8188006F00100BD
:10045000002855D007F00100C0B101202168886054
:1004600007F0020018B1204600F016F90EE007F080
:10047000040010B145F4006508E007F0080010B171
:1004800045F4805502E0204600F005F907F480703D
:10049000C8B14FF480702168886007F4007018B10B
:1004A000204600F0FBF80EE007F4806010B145F440
:1004B000005508E007F4006010B145F4804502E003
:1004C000204600F0EAF807F48030C8B14FF48030DD
:1004D0002168886007F4003018B1204600F0E0F889
:1004E0000EE007F4802010B145F4004508E007F461
:1004F000002010B145F4803502E0204600F0CFF82E
:1005000006F0080038B10AF0100020B145F400757B
:1005100010202168C86006F0040040B10AF008000D
:1005200028B108202168C860204600F0A2F806F033
:10053000020038B12068C06800F0030010B1204606
:1005400000F098F806F0400038B10BF0100020B130
:1005500045F4806510202168086106F0200040B154
:100560000BF0080028B1082021680861204600F03F
:100570008FF806F0100038B12068006900F0030021
:1005800010B1204600F085F806F4003040B109F0C3
:10059000100028B1102021684860204600F07AF849
:1005A00006F4803040B109F0080028B10820216825
:1005B0004860204600F075F806F4004088B309F062
:1005C000040078B306F4807020B108F0010008B18F
:1005D00045F0010506F4007020B108F0020008B1F2
:1005E00045F0020506F4806020B108F0040008B16F
:1005F00045F0040506F40060A0B108F0700088B171
:1006000008F07000402817D006DC10280BD02028F6
:100610000CD0302819D10CE0502810D0602814D10B
:1006200010E01DE019E045F008050FE045F0100569
:100630000CE045F0200509E045F0400506E045F0F6
:10064000800503E045F4807500E000BF00BF20682E
:10065000806920F07000216888610420216848606A
:100660002DB1606A284360622046FFF71DFEBDE899
:10067000F09F70471CB504466B46044A0021204693
:10068000FFF713FE08B1FFF705FE1CBD6818002038
:1006900070477047704770477047704770477047A2
:1006A000704770470146002291F82100022808D0C7
:1006B0000420886300BF002081F8200000BF0120D3
:1006C00070470868006820F00E000B681860086822
:1006D000006820F001000B68186091F8403001209C
:1006E0009840CB6B5860012081F8210000BF0020AA
:1006F00081F8200000BF1046E2E7000070B5044614
:10070000002594F82100022803D00420A0630125CD
:1007100048E02068006820F00E002168086020682A
:10072000006820F00100216808601F4920688842A5
:1007300001D1012026E01C4914312068884201D1F2
:1007400010201FE0184928312068884201D1801507
:1007500018E015493C312068884201D1801411E02D
:10076000114950312068884202D14FF4803009E0AD
:100770000D4964312068884202D14FF4801001E0B5
:100780004FF08070084908394860012084F8210042
:1007900000BF002084F8200000BF606B10B120462D
:1007A000616B8847284670BD0800024070B504465A
:1007B00000F0A0F906462546681C10B104480078F0
:1007C000054400BF00F096F9801BA842FAD370BD23
:1007D000600000202DE9F8470346002294466EE1B0
:1007E0004FF0010808FA02F4D1F8008008EA04008A
:1007F000A0427DD1DFF8DCA2D1F80480A8EB0A0981
:10080000D0453AD014DCB8F1030F50D009DCB8F170
:10081000000F31D0B8F1010F1CD0B8F1020F49D14F
:1008200020E0B8F1110F18D0B8F1120F42D11EE03C
:10083000B9F5881F25D006DCB9F5803F20D0B9F581
:10084000801F37D11AE0B9F5001F18D0B9F5041F81
:1008500030D117E0D1F80CC02DE0D1F80C8008F1B0
:10086000040C28E0D1F80C8008F1080C23E0D1F842
:100870000C8008F10C0C1EE000BF00BF00BF00BFE1
:1008800000BF00BFD1F80880B8F1000F02D14FF0CF
:10089000040C0BE0D1F80880B8F1010F03D14FF040
:1008A000080C1C6102E04FF0080C5C6103E04FF0A3
:1008B000000C00E000BF00BFFF2801D8984601E00F
:1008C00003F104084646FF2802D84FEA820803E0F5
:1008D000A2F108084FEA88084746D6F800804FF092
:1008E0000F0909FA07F928EA09080CFA07F900E0E4
:1008F00088E048EA0908C6F80080D1F8048008F0CA
:100900008058B8F1805F7DD100BFDFF8CC81D8F886
:10091000188048F00108DFF8C091C9F81880C8466F
:10092000D8F8188008F00108CDF8008000BF00BF9B
:100930004FEAB9384FEA920958F829504FEA8278BD
:100940004FEA18794FF00F0808FA09F825EA080568
:10095000DFF88881434502D14FF0000816E0DFF848
:100960008081434502D14FF001080FE0DFF8748128
:10097000434502D14FF0020808E0DFF86C8143459F
:1009800002D14FF0030801E04FF004084FEA8279EA
:100990004FEA197908FA09F848EA0505DFF84C81A9
:1009A0004FEA920948F82950D1F8048008F48038B9
:1009B000B8F5803F0AD1DFF83881D8F8008048EADE
:1009C0000008DFF82C91C9F8008009E0DFF82081E9
:1009D000D8F8008028EA0008DFF81491C9F80080F0
:1009E000D1F8048008F40038B8F5003F10D1DFF8E2
:1009F000008108F10408D8F8008048EA0008DFF810
:100A0000F09000E05AE009F10409C9F800800DE017
:100A1000DFF8DC8008F10408D8F8008028EA000834
:100A2000DFF8CC9009F10409C9F80080D1F80480FE
:100A300008F48018B8F5801F0ED1DFF8B48008F1F3
:100A40000808D8F8008048EA0008DFF8A49009F107
:100A50000809C9F800800DE0DFF8948008F1080863
:100A6000D8F8008028EA0008DFF8849009F1080926
:100A7000C9F80080D1F8048008F40018B8F5001F08
:100A80000ED1DFF86C8008F10C08D8F8008048EA35
:100A90000008DFF85C9009F10C09C9F800800DE04E
:100AA000DFF84C8008F10C08D8F8008028EA00082C
:100AB000DFF83C9009F10C09C9F80080521CD1F80C
:100AC000008028FA02F8B8F1000F7FF489AEBDE883
:100AD000F8870000000011100010024000080140DB
:100AE000000C0140001001400014014008000140CA
:100AF00000040140014800687047000058000020D1
:100B000003480068034909780844014908607047B0
:100B1000580000206000002010B50848006840F030
:100B2000100006490860032000F080F80F2000F054
:100B300007F800F02BF8002010BD00000020024054
:100B400070B504460E4800784FF47A71B1FBF0F0AE
:100B50000C490968B1FBF0F5284600F0E3FB08B149
:100B6000012070BD102C07D200222146501E00F03B
:100B70001EF80548046001E00120F2E70020F0E7DC
:100B800060000020500000205C00002070470146FB
:100B90000846002809DB00F01F0301229A404309A0
:100BA0009B0003F1E023C3F8002100BF70472DE94B
:100BB000F05F80460D461646002701F011F9074602
:100BC00039462A46334601F00700C0F1070ABAF158
:100BD000040F02D94FF0040A01E0C0F1070AD14620
:100BE00000F1040ABAF1070F02D24FF0000A01E047
:100BF000A0F1030AD4464FF0010A0AFA09FAAAF151
:100C0000010A0AEA020A0AFA0CFA4FF0010B0BFA7F
:100C10000CFBABF1010B0BEA030B4AEA0B04214678
:100C2000404601F0E5F8BDE8F09F000000BF00F08D
:100C30000702064B19684FF6FF031940044B0B439C
:100C400043EA0221014B196000BF70470CED00E040
:100C50000000FA0570B504460D460CB9012070BDC0
:100C60005A48006800F00700A8420ED257480068B2
:100C700020F007002843554908600846006800F046
:100C80000700A84201D00120E9E7207800F0020027
:100C900002281DD1207800F00400042805D14C481A
:100CA000406840F4E0604A494860207800F008005D
:100CB000082805D14648406840F4605044494860DF
:100CC0004348406820F0F000A1680843404948606C
:100CD000207800F0010078B36068012806D13C4814
:100CE000006800F4003090B90120B8E7606802287D
:100CF00006D13748006800F0007040B90120AEE727
:100D00003348006800F0020008B90120A7E7304826
:100D1000406820F00300616808432D494860FFF7F0
:100D2000E9FE064609E0FFF7E5FE801B41F2883147
:100D3000884202D9032092E707E02548406800F086
:100D40000C006168B0EB810FEDD12048006800F025
:100D50000700A8420ED91D48006820F0070028436C
:100D60001A4908600846006800F00700A84201D050
:100D7000012074E7207800F00400042807D114480B
:100D8000406820F4E060E168084311494860207839
:100D900000F00800082808D10D48406820F4605091
:100DA000216940EAC1000A49486000F03FF808495B
:100DB0004968C1F30311074A515CC84006490860FD
:100DC00006480068FFF7BCFE002048E7002002400C
:100DD000001002404C1E0008500000205C00002063
:100DE00001480068704700005000002000B5FFF780
:100DF000F7FF04494968C1F30221034A515CC84026
:100E000000BD0000001002405C1E000800B5FFF7A6
:100E1000E7FF04494968C1F3C221034A515CC84055
:100E200000BD0000001002405C1E0008F0B585B057
:100E30000FF26C0C9CE8E01001A8A0E8E0101CA5E3
:100E40002D68009500210022002300240020194D68
:100E5000696801F00C05F5B1042D02D0082D19D1F7
:100E600001E0154819E001ADC1F38346AC5D01F422
:100E7000803555B10F4D6D68C5F340451DF805200F
:100E80000D4D6543B5FBF2F302E00C4D04FB05F399
:100E9000184602E000BF084800BF00BF05B0F0BD23
:100EA00002030405060708090A0B0C0D0E0F1010AB
:100EB000010200000010024000127A0000093D000B
:100EC000F8B504460CB90120F8BD207800F0010007
:100ED000002878D0F848406800F00C0004280CD0B6
:100EE000F548406800F00C00082811D1F24840682D
:100EF00000F48030B0F5803F0AD1EF48006800F47C
:100F0000003000285FD0606800285CD10120DBE75A
:100F100000BF6068B0F5803F06D1E748006840F444
:100F20008030E549086028E0606858B9E248006808
:100F300020F48030E04908600846006820F48020F2
:100F400008601AE06068B0F5A02F0BD1DA4800689D
:100F500040F48020D84908600846006840F480309A
:100F600008600AE0D448006820F48030D249086064
:100F70000846006820F48020086000BF606888B1DF
:100F8000FFF7B8FD054606E0FFF7B4FD401B6428F7
:100F900001D9032098E7C848006800F40030002811
:100FA000F2D010E0FFF7A6FD054606E0FFF7A2FD30
:100FB000401B642801D9032086E7BF48006800F47D
:100FC00000300028F2D1207800F00200022857D12A
:100FD000B948406800F00C0050B1B748406800F0D4
:100FE0000C00082818D1B448406800F4803098B943
:100FF000B148006800F0020020B12069012801D04A
:10100000012061E7AC48006820F0F800616940EA1F
:10101000C100A949086033E02069E8B10120A7496F
:101020000860FFF767FD054606E0FFF763FD401B1C
:10103000022801D9032047E79F48006800F002001A
:101040000028F2D09C48006820F0F800616940EA6E
:10105000C1009949086013E0002098490860FFF733
:1010600049FD054606E0FFF745FD401B022801D972
:10107000032029E79048006800F002000028F2D120
:10108000207800F0080008282DD1A069B8B101200F
:101090008B490860FFF72EFD054606E0FFF72AFDA5
:1010A000401B022801D903200EE78348406A00F064
:1010B00002000028F2D0012000F06EFC13E00020B6
:1010C0007F490860FFF716FD054606E0FFF712FDB1
:1010D000401B022801D90320F6E67748406A00F059
:1010E00002000028F2D1207800F00400042873D117
:1010F00000277148C06900F0805070B900BF6E4889
:10110000C06940F080506C49C8610846C06900F071
:101110008050009000BF00BF01276A48006800F4BB
:101120008070B0B96748006840F480706549086015
:10113000FFF7E0FC054606E0FFF7DCFC401B6428F7
:1011400001D90320C0E65F48006800F480700028E1
:10115000F2D000BFE068012806D15748006A40F08D
:1011600001005549086227E0E06858B95248006A12
:1011700020F00100504908620846006A20F004008F
:10118000086219E0E06805280BD14B48006A40F07E
:101190000400494908620846006A40F001000862FC
:1011A0000AE04548006A20F0010043490862084609
:1011B000006A20F00400086200BFE068A0B1FFF7F9
:1011C00099FC054609E0FFF795FC401B41F2883188
:1011D000884202D9032077E622E03748006A00F00F
:1011E00002000028EFD012E0FFF784FC054608E07B
:1011F000FFF780FC401B41F28831884201D903206F
:1012000062E62D48006A00F002000028F0D1012FAC
:1012100005D12948C06920F080502749C86100BF26
:10122000E069C8B32448406800F00C00082860D08A
:10123000E069022848D1002020490866FFF75AFCDF
:10124000054606E0FFF756FC401B022801D90320A3
:101250003AE61948006800F000700028F2D1206AD0
:10126000B0F5803F07D11448406820F40030A168F1
:10127000084311494860D4E9080108430E49496808
:1012800021F4741108430C49486001200B49086699
:10129000FFF730FC054607E03DE0FFF72BFC401B65
:1012A000022801D903200FE60348006800F000700F
:1012B0000028F2D02FE0000000100240000042425F
:1012C0008004424200700040002014490866FFF785
:1012D00011FC054606E0FFF70DFC401B022801D972
:1012E0000320F1E50E48006800F000700028F2D1FC
:1012F00011E0E069012800D1E6E50948466806F4F6
:101300008031206A814204D106F47011606A814202
:1013100001D00120D8E50020D6E5000000004242BF
:101320000010024070B504462546681EB0F1807F6B
:1013300001D301200FE0681E4FF0E02148610F212A
:101340004FF0FF3000F054FD00204FF0E0218861A5
:1013500007200861002070BD70477047704710B5C6
:10136000044620680069C0F34000D8B12068C06816
:10137000C0F34000B0B16FF00200216808610120A5
:1013800020772068806900F0030018B12046FFF73D
:10139000E5FF05E0204600F0ADF8204600F0ABF890
:1013A0000020207720680069C0F38000D8B1206851
:1013B000C068C0F38000B0B16FF00400216808611C
:1013C000022020772068806900F4407018B1204620
:1013D000FFF7C4FF05E0204600F08CF8204600F03F
:1013E0008AF80020207720680069C0F3C000D8B1D7
:1013F0002068C068C0F3C000B0B16FF00800216879
:101400000861042020772068C06900F0030018B14B
:101410002046FFF7A3FF05E0204600F06BF82046CA
:1014200000F069F80020207720680069C0F3001000
:10143000D8B12068C068C0F30010B0B16FF01000E0
:1014400021680861082020772068C06900F4407096
:1014500018B12046FFF782FF05E0204600F04AF869
:10146000204600F048F8002020772068006900F04E
:10147000010058B12068C06800F0010030B16FF081
:10148000010021680861204600F036F820680069F4
:10149000C0F3C01058B12068C068C0F3C01030B1AC
:1014A0006FF08000216808612046FFF755FF206833
:1014B0000069C0F3801058B12068C068C0F3801084
:1014C00030B16FF0400021680861204600F015F847
:1014D00020680069C0F3401058B12068C068C0F3AC
:1014E000401030B16FF02000216808612046FFF7FE
:1014F00034FF10BD704770477047704770477047A2
:1015000001460022002391F83D2091F83E3042EA46
:10151000030070472DE9F84F0446206805682068ED
:10152000C668206847694FF00009CA4605F00F09F0
:10153000B9F1000F0AD105F0200038B106F0200003
:1015400020B1204600F0F6FABDE8F88FB9F1000F9F
:1015500071D007F0010018B906F4907000286AD025
:1015600005F0010030B106F4807018B1206C40F035
:101570000100206405F0040030B107F0010018B14B
:10158000206C40F00200206405F0020030B107F04A
:10159000010018B1206C40F00400206405F0080040
:1015A00048B106F0200010B907F0010018B1206C16
:1015B00040F008002064206C68B305F0200028B1DA
:1015C00006F0200010B1204600F0B4FA206840690F
:1015D000C0F3801A206C00F0080010B9BAF1000FB7
:1015E00022D0204600F062FA2068406900F04000F6
:1015F000B0B12068406920F0400021684861A06BCC
:1016000050B15648A16B4863A06BFFF777F810B153
:10161000A06B416B88470CE02046FFF770FF08E0A5
:101620002046FFF76CFF04E02046FFF768FF00202C
:10163000206489E7FFE7206B012878D105F01000CE
:10164000002874D006F01000002870D000BF0020E1
:10165000009020680068009020684068009000BFFB
:1016600000BF2068406900F04000C0B3A06B006874
:1016700040681FFA80F8B8F1000F2FD0A08D4045C8
:101680002CDDA4F82E80A06B806920281FD0206854
:10169000C06820F480702168C8602068406920F02C
:1016A0000100216848612068406920F040002168FD
:1016B0004861202084F83E00002020632068C06834
:1016C00020F010002168C860A06BFEF7EBFFA08D32
:1016D000E28D801A81B22046FFF710FF34E7FFE762
:1016E000A08DE18D401A1FFA80F8E08DE8B1B8F1C5
:1016F000000F1AD02068C06820F490702168C8607C
:101700002068406920F0010021684861202084F8A9
:101710003E00002020632068C06820F0100021688F
:10172000C86041462046FFF7E9FE0DE7FFE705F0F8
:10173000800030B106F0800018B1204600F00DFBAB
:1017400002E705F0400030B106F0400018B1204635
:1017500000F0C7F9F8E600BFF6E60000991A0008A5
:1017600010B504460CB9012010BDA06900B100E01D
:1017700000BF94F83D0028B9002084F83C002046C2
:1017800000F028F8242084F83D002068C06820F488
:1017900000502168C860204600F03EFA20680069C9
:1017A00020F49040216808612068406920F02A00F8
:1017B000216848612068C06840F400502168C86012
:1017C00000202064202084F83D0084F83E000020A2
:1017D000CAE7000010B586B00446002002900390CE
:1017E000049005901D492068884235D100BF1C48EF
:1017F000806940F004001A4988610846806900F059
:101800000400019000BF00BF00BF0846C06940F45B
:101810000030C8610846C06900F40030019000BF84
:1018200000BF04200290022003900320059002A92B
:101830000C48FEF7CFFF0820029000200390049090
:1018400002A90848FEF7C6FF022200212620FFF762
:10185000AEF92620FFF79BF906B010BD004400400A
:10186000001002400008014070B504460D461646BF
:1018700094F83E00202816D105B10EB9012070BDA4
:1018800000BF94F83C00012801D10220F7E70120B5
:1018900084F83C0000BF00202063324629462046E1
:1018A00000F038FAEBE70220E9E7000010B5044643
:1018B00009492068884209D1084801780848027817
:1018C0000078401C064B18700648815401220349D9
:1018D0000548FFF7C9FF10BD004400405400002038
:1018E0002500002083140020CC18002010B50346EA
:1018F00093F83D00202823D101B10AB9012010BD81
:1019000000BF93F83C00012801D10220F7E7012035
:1019100083F83C0000BF19629A84DA8400201864BE
:10192000212083F83D0000BF002083F83C0000BF69
:101930001868C06840F080001C68E0600020DEE7A6
:101940000220DCE710B50446012202490248FFF7F5
:101950008BFF10BD54000020CC18002000BFFEE714
:1019600010B50848FFF7CCFD202809D100BF082298
:1019700005490448FFF7BAFF0028F8D10349087069
:1019800010BD0000CC1800202800002025000020F9
:1019900000BFFEE77047704708B508490968C908E5
:1019A0004FF47A72B1FBF2F14143009100BF00BFE6
:1019B00000994A1E00920029F9D108BD500000206C
:1019C000704730B58FB005460024282105A8FEF7E2
:1019D000FBFB14216846FEF7F7FB0120059000048D
:1019E00006900020079002200C90C1030D910E95E7
:1019F00005A8FFF765FA04460CB1FEF74BFC0F2073
:101A0000009002200190002002904FF4806003902B
:101A10000020049002216846FFF71CF904460CB12F
:101A2000FEF738FC0FB030BD10B5FFF769F810BDF8
:101A30001148006840F001000F49086008464068FE
:101A40000E4908400C494860084600680C490840A7
:101A5000094908600846006820F4802008600846AC
:101A6000406820F4FE0048604FF41F008860C803FF
:101A70000449086070470000001002400000FFF8B1
:101A8000FFFFF6FE08ED00E010B50248FFF767FC27
:101A900010BD00008418002070B505466C6A002057
:101AA000E085E0842046FFF72AFD70BD0168C96823
:101AB00021F490710268D1600168496921F0010147
:101AC00002685161016B012905D10168C96821F0E3
:101AD00010010268D160202180F83E1000210163CE
:101AE000704710B504462068C06820F040002168A7
:101AF000C860202084F83D002046FFF723FF002027
:101B000010BD000010B504460848094908600846A1
:101B1000446000218160C160016181610C214161EB
:101B2000FFF71EFE08B1FEF7B5FB10BD00440040F4
:101B3000CC180020F8B5044694F83E00222869D15C
:101B4000A068B0F5805F0CD1206950B90025A66A65
:101B500020684068C0F308003080A06A801CA06242
:101B600015E0A56A0026A068B0F5805F03D0A068E4
:101B700028B9206918B920684068287004E02068F6
:101B8000406800F07F002870A06A401CA062E08DD1
:101B9000401E80B2E085A8BB2068C06820F020000D
:101BA0002168C8602068C06820F480702168C8601F
:101BB0002068406920F0010021684861202084F8F5
:101BC0003E00206B01281ED1002020632068C068E1
:101BD00020F010002168C8602068006800F0100044
:101BE00010280AD100BF00200090206800680090F3
:101BF00020684068009000BF00BFA18D2046FFF71D
:101C00007DFC03E004E02046FFF750FE0020F8BD15
:101C10000020FCE70220FAE770B504462168096954
:101C200021F44051E2681143226811612269A168E0
:101C30001143626941EA02052168C96841F20C62F8
:101C4000914329432268D1602168496921F4407198
:101C5000A2691143226851612D4A2168914202D143
:101C6000FFF7D4F801E0FFF7C1F800EBC00101EB8A
:101C7000001162689200B1FBF2F100EBC00202EBCE
:101C8000001263689B00B2FBF3F26423B2FBF3F231
:101C900002EBC20303EB0212A1EB8201322202EB40
:101CA00001116422B1FBF2F101F0F00100EBC0027E
:101CB00002EB001263689B00B2FBF3F26423B2FBF9
:101CC000F3F201EB021200EBC00101EB00116368BB
:101CD0009B00B1FBF3F100EBC00303EB001366685C
:101CE000B600B3FBF6F36426B3FBF6F303EBC306CF
:101CF00006EB0313A1EB8301322303EB01116423F1
:101D0000B1FBF3F101F00F0111442268916070BD45
:101D10000038014010B5034699629A85DA850020A3
:101D20001864222083F83E0000BF002083F83C00A6
:101D300000BF1868C06840F480701C68E0601868D4
:101D4000406940F001001C6860611868C06840F09C
:101D500020001C68E060002010BD014691F83D00A5
:101D6000212828D18868B0F5805F0BD1086948B96F
:101D70000A6A1088C0F308000B685860086A801C63
:101D8000086205E00B6A581C086218780B685860F6
:101D9000C88C401E80B2C88458B90868C06820F05A
:101DA00080000B68D8600868C06840F040000B688D
:101DB000D860002070470220FCE7000010B5024800
:101DC000FFF7A8FB10BD0000CC18002010B502489A
:101DD000FEF728FB10BD00002818002000BFFEE71A
:101DE00002480068C0F30220704700000CED00E0DC
:101DF00010B5002804DB0A07130E054A135406E049
:101E00000A07140E034A00F00F031B1FD45410BD21
:101E100000E400E018ED00E0FEF77EFE4FF4E01075
:101E2000FFF7CFFD4FF49650FFF76CFE0AE006482F
:101E30000068401C04490860FFF792FD4FF4FA6007
:101E4000FEF7B4FCF3E700004000002000000000B3
:101E5000000000000102030406070809000000005A
:101E600001020304841E000800000020640000003A
:101E700028010008E81E0008640000200C1F000074
:101E80004401000800000000000000000000000005
:101E90000000000000000000000000000000000042
:101EA00000000000000000000000000001030048E6
:101EB000000645DE000000000000000000000000F9
:101EC0000000000000000000000000000000000012
:101ED000000000000024F4000000000000000000EA
:081EE0001000000001000000E9
:04000005080000ED02
:00000001FF
