:020000040800F2
:100000003020002089010008C53E00084B3D000853
:10001000C13E000867020008CD470008000000004C
:10002000000000000000000000000000D1400008B7
:10003000FD17000800000000C73E000871410008DD
:10004000A3010008A3010008A3010008A301000800
:10005000A3010008A3010008A3010008A3010008F0
:10006000A3010008A3010008A3010008A3010008E0
:10007000A3010008A3010008A3010008A3010008D0
:10008000B1170008C1170008A3010008A301000868
:10009000BD47000825030008A3010008A3010008CC
:1000A000A3010008A3010008A3010008A3010008A0
:1000B00039420008A3010008A3010008A3010008B9
:1000C000A3010008A3010008A3010008A301000880
:1000D000A3010008A3010008AD470008A301000820
:1000E000A3010008A3010008A301000800F002F822
:1000F00000F03AF80AA090E8000C82448344AAF188
:100100000107DA4501D100F02FF8AFF2090EBAE885
:100110000F0013F0010F18BFFB1A43F0010318473B
:1001200090490000B0490000103A24BF78C878C157
:10013000FAD8520724BF30C830C144BF04680C60ED
:10014000704700000023002400250026103A28BF35
:1001500078C1FBD8520728BF30C148BF0B60704739
:100160001FB51FBD10B510BD00F044F81146FFF7D4
:10017000F7FF04F049FB00F062F803B4FFF7F2FF69
:1001800003BC00F069F800000948804709480047AF
:10019000FEE7FEE7FEE7FEE7FEE7FEE7FEE7FEE737
:1001A000FEE7FEE704480549054A064B7047000094
:1001B00079410008ED000008301A002030200020AE
:1001C000301C0020301C0020B2F120030AD5C2F1FF
:1001D000200320FA02F001FA03F321FA02F140EAC7
:1001E0000300704721FA03F04FF000017047704799
:1001F00070477047754600F02BF8AE46050069461B
:10020000534620F00700854618B020B5FFF7CAFF17
:10021000BDE820404FF000064FF000074FF0000807
:100220004FF0000B21F00701AC46ACE8C009ACE888
:10023000C009ACE8C009ACE8C0098D46704710B5EC
:100240000446AFF300802046BDE81040FFF795BF9D
:1002500000487047CC19002001491820ABBEFEE7CA
:1002600026000200704700BFFEE7000000B58BB01B
:100270002A482B4908600021294801764176817679
:100280000121C1760021017741778160C1604FF47F
:10029000C02101614FF4801141610620204948606E
:1002A000084601F03CFE08B100F044F8002006903A
:1002B000079008900190029008200390049000207D
:1002C00005900120099006900020079001200890D9
:1002D0000420019002900390049001200590099061
:1002E00001A90F4801F096FB08B100F023F80C4873
:1002F00002F0D4F808B100F01DF80221084801F01E
:10030000C9FA08B100F016F81021054801F0C2FA48
:1003100008B100F00FF80BB000BD00000064004011
:100320003C01002010B5024801F0D2FC10BD0000D5
:100330003C01002002E0012001490860FBE70000C9
:10034000AC8121422DE9F04F8DB0002431E0FE4810
:100350000078204100F0100040B1012004EBC401FE
:1003600001EB0411F94A02F8110007E0002004EB48
:10037000C40101EB0411F54A02F81100F2480078BB
:10038000204100F0100048B10121601D00EBC002C7
:1003900002EB0010ED4A02F8101008E00021601D89
:1003A00000EBC00202EB0010E84A02F81010601CDB
:1003B000C4B2052CCBD3002401F0E7B904EBC40090
:1003C00000EB0410E14911F81000012841F0DB8135
:1003D00004EBC40000EB4410DD49085C18BB04EBDF
:1003E000C40000EB0410D94901EB40004078401CE8
:1003F00004EBC40101EB0411D44A02EB4101487043
:1004000004EBC40000EB0410114601EB40004078FF
:100410000C2841F2B8810020CE490870CE490870FE
:100420000DB0BDE8F08F00263746002512E03802F7
:1004300040EA1667360204EBC40000EB4410C449DE
:100440000844401CC5F10701415C8E1947F10007C3
:10045000681CC5B2082DEAD3002599E02A01B046F0
:10046000B94640464946FFF7AFFE07210840C1B2F2
:1004700004EBC40000EB4410B54A10440930415568
:10048000032000EB0512B246BB4650465946FFF723
:100490009BFE01210840C1B204EBC40000EB4410F4
:1004A000AB4A10440D30415505F11602304639462D
:1004B000CDE90B76FFF788FE01210840C1B204EBBD
:1004C000C40000EB4410A24A10441530415505F118
:1004D000170230463946CDE90976FFF775FE01214E
:1004E0000840C1B204EBC40000EB4410984A104429
:1004F0001130415505F1180230463946CDE90776ED
:10050000FFF762FE01210840C1B204EBC40000EB1A
:1005100044108F4A10441D30415505F119023046F0
:100520003946CDE90576FFF74FFE01210840C1B2FB
:1005300004EBC40000EB4410854A104419304155C7
:1005400005F11A0230463946CDE90376FFF73CFE45
:1005500001210840C1B204EBC40000EB44107C4A06
:1005600010442530415505F11B0230463946CDE98E
:100570000176FFF729FE01210840C1B204EBC40057
:1005800000EB4410724A104421304155681CC5B23A
:10059000042DFFF463AF0025F7E304EBC40000EB88
:1005A00044106B4908440930405D00287ED104EBBB
:1005B000C40000EB441008441530405D012828D1E8
:1005C00004EBC40000EB0410604901EB400026304E
:1005D000405D401CC1B204EBC40000EB04105B4A58
:1005E00002EB40002630415504EBC40000EB041040
:1005F000114601EB40002630405D0C2813D90C2138
:1006000004EBC40000EB041002EB4000263041551F
:1006100009E0002104EBC40000EB04104B4A02EB9C
:1006200040002630415504EBC40000EB441048491B
:1006300008441130405D012828D104EBC40000EBD0
:100640000410424901EB40001A30405D401CC1B229
:1006500004EBC40000EB04103C4A02EB40001A30EB
:10066000415504EBC40000EB0410114601EB4000BF
:100670001A30405D0C2813D90C2104EBC40000EBA8
:10068000041002EB40001A30415509E0002104EB50
:10069000C40000EB04102D4A02EB40001A30415513
:1006A00004EBC40000EB4410294900E0FAE00844E0
:1006B0001D30405D012828D104EBC40000EB04107C
:1006C000224901EB40002A30405D401CC1B204EBDE
:1006D000C40000EB04101D4A02EB40002A304155D3
:1006E00004EBC40000EB0410114601EB40002A307B
:1006F000405D0C2813D90C2104EBC40000EB04105E
:1007000002EB40002A30415509E0002104EBC4000F
:1007100000EB04100D4A02EB40002A30415504EB77
:10072000C40000EB44100A4908441930405D012818
:1007300033D104EBC40000EB0410044901EB40008A
:100740001E30405D401C09E011000020D51700203C
:100750003B1600202D0000202E000020C1B204EB2B
:10076000C40000EB0410FE4A02EB40001E3041556D
:1007700004EBC40000EB0410114601EB40001E30F6
:10078000405D0C2813D90C2104EBC40000EB0410CD
:1007900002EB40001E30415509E0002104EBC4008B
:1007A00000EB0410EE4A02EB40001E30415504EB12
:1007B000C40000EB4410EB4908442530405D01289B
:1007C00028D104EBC40000EB0410E54901EB400024
:1007D0002E30405D401CC1B204EBC40000EB04109D
:1007E000DF4A02EB40002E30415504EBC40000EB21
:1007F0000410114601EB40002E30405D0C2813D947
:100800000C2104EBC40000EB041002EB40002E307E
:10081000415509E0002104EBC40000EB0410D04A6C
:1008200002EB40002E30415504EBC40000EB4410B5
:10083000CC4908442130405D012828D104EBC40094
:1008400000EB0410C64901EB40002230405D401C23
:10085000C1B204EBC40000EB0410C14A02EB40003B
:100860002230415504EBC40000EB0410114601EBAB
:1008700040002230405D0C2808D90C2104EBC40054
:1008800000EB041002EB4000223041553EE2002113
:1008900004EBC40000EB0410B14A02EB400022302C
:1008A0004155F3E704EBC40000EB4410AD490844A4
:1008B0000930405D012808D004EBC40000EB44106F
:1008C00008440930405D04287ED104EBC40000EBED
:1008D0004410A44908441530405D012835D104EB8B
:1008E000C40000EB04109E4901EB40002630405D3F
:1008F000401CC1B204EBC40000EB0410984A02EBA8
:1009000040002630415504EBC40000EB04101146B2
:1009100001EB40002630405D0C2820D90C2104EB6F
:10092000C40000EB041002EB4000263041558E4815
:100930000078012813D18D48007801280FD10020BC
:100940008B4908708B4908606AE5002104EBC400FC
:1009500000EB0410824A02EB40002630415504EBC4
:10096000C40000EB44107F4908441130405D012869
:1009700037D104EBC40000EB0410794901EB4000CF
:100980001A30405D401CC1B204EBC40000EB0410FF
:10099000734A02EB40001A30415504EBC40000EBEF
:1009A0000410114601EB40001A30405D0C2822D99A
:1009B0000C2104EBC40000EB041002EB40001A30E1
:1009C00041556948007800E04DE1012813D16A489B
:1009D000007801280FD1002065490870654908603A
:1009E0001EE5002104EBC40000EB04105C4A02EB9E
:1009F00040001A30415504EBC40000EB4410594943
:100A000008441D30405D012835D104EBC40000EBE3
:100A10000410534901EB40002A30405D401CC1B234
:100A200004EBC40000EB04104D4A02EB40002A30F6
:100A3000415504EBC40000EB0410114601EB4000EB
:100A40002A30405D0C2820D90C2104EBC40000EBB7
:100A5000041002EB40002A30415543480078012839
:100A600013D14248007801280FD100204049087076
:100A700040490860D4E4002104EBC40000EB0410FA
:100A8000374A02EB40002A30415504EBC40000EB2A
:100A90004410344908441930405D012835D104EB35
:100AA000C40000EB04102E4901EB40001E30405DF5
:100AB000401CC1B204EBC40000EB0410284A02EB56
:100AC00040001E30415504EBC40000EB04101146F9
:100AD00001EB40001E30405D0C2820D90C2104EBB6
:100AE000C40000EB041002EB40001E3041551E48CC
:100AF0000078012813D12048007801280FD1002068
:100B00001B4908701B4908608AE4002104EBC400FB
:100B100000EB0410124A02EB40001E30415504EB7A
:100B2000C40000EB44100F4908442530405DB0B9C3
:100B300004EBC40000EB0410094901EB400016303F
:100B4000405D401CC1B204EBC40000EB0410044A39
:100B500002EB40001630415504EBC4000EE02DE0DE
:100B6000D51700203B1600202F0000203100002068
:100B70002D000020980122423000002000EB0410DC
:100B8000114601EB40001630405D0C2820D90C21A5
:100B900004EBC40000EB041002EB4000163041559A
:100BA000FE480078012813D1FD48007801280FD1B4
:100BB0000020FC490870FC49086031E4002104EB86
:100BC000C40000EB0410F94A02EB40001630415516
:100BD00004EBC40000EB4410F54908442130405DAB
:100BE000A8BB04EBC40000EB0410F04901EB40008B
:100BF0000A30405D401CC1B204EBC40000EB04109D
:100C0000EA4A02EB40000A30415504EBC40000EB15
:100C10000410114601EB40000A30405D0C2875D9E4
:100C20000C2104EBC40000EB041002EB40000A307E
:100C30004155DA480078012868D1DE48007801285B
:100C4000FAD10020D7490870D74908607CE6FFE751
:100C5000002104EBC40000EB0410D44A02EB400076
:100C60000A30415512E604EBC40000EB4410D049B1
:100C700008440930405D022808D004EBC40000EBB2
:100C8000441008440930405D05287DD104EBC400C0
:100C900000EB4410C64908441530405D012836D1A8
:100CA00004EBC40000EB0410C04901EB4000263007
:100CB000405D401CC1B204EBC40000EB0410BB4A11
:100CC00002EB40002630415504EBC40000EB041059
:100CD000114601EB40002630405D0C2821D90C2143
:100CE00004EBC40000EB041002EB40002630415539
:100CF000AA480078012814D1A9480078012810D109
:100D00000020A8490870A84908601DE68DE100216F
:100D100004EBC40000EB0410A44A02EB40002630B0
:100D2000415504EBC40000EB4410A14908441130C4
:100D3000405D012838D104EBC40000EB04109B494E
:100D400001EB40001A30405D401CC1B204EBC4000E
:100D500000EB0410954A02EB40001A30415504EBB9
:100D6000C40000EB0410114601EB40001A30405D56
:100D70000C2823D90C2104EBC40000EB041002EB77
:100D800040001A30415501E050E1FCE3834800780F
:100D9000012813D18748007801280FD1002081490C
:100DA000087081490860CFE5002104EBC40000EB26
:100DB00004107E4A02EB40001A30415504EBC40097
:100DC00000EB44107A4908441D30405D012835D1BC
:100DD00004EBC40000EB0410744901EB4000123036
:100DE000405D401CC1B204EBC40000EB04106F4A2C
:100DF00002EB40001230415504EBC40000EB04103C
:100E0000114601EB40001230405D0C2820D90C2126
:100E100004EBC40000EB041002EB4000123041551B
:100E20005E480078012813D15D48007801280FD171
:100E300000205C4908705C49086085E5002104EBEE
:100E4000C40000EB0410594A02EB40001230415537
:100E500004EBC40000EB4410554908441930405DD0
:100E6000012835D104EBC40000EB04104F4901EB1D
:100E70004000801D405D401CC1B204EBC40000EB8B
:100E800004104A4A02EB4000801D415504EBC400A7
:100E900000EB0410114601EB4000801D405D0C2862
:100EA00020D90C2104EBC40000EB041002EB40003D
:100EB000801D415539480078012813D13D480078FC
:100EC00001280FD1002037490870374908603BE5F9
:100ED000002104EBC40000EB0410344A02EB400094
:100EE000801D415504EBC40000EB44103049084418
:100EF0002530405D012835D104EBC40000EB04101F
:100F00002A4901EB40002E30405D401CC1B204EB89
:100F1000C40000EB0410254A02EB40002E3041557E
:100F200004EBC40000EB0410114601EB40002E302E
:100F3000405D0C2820D90C2104EBC40000EB041008
:100F400002EB40002E30415514480078012813D19F
:100F50001348007801280FD1002012490870124967
:100F60000860F1E4002104EBC40000EB04100F4A18
:100F700002EB40002E30415504EBC40000EB44105E
:100F80000B4908442130405D012844D104EBC400E2
:100F900000EB0410054901EB40000DE02F0000209C
:100FA000310000202D00002098012242D51700209A
:100FB0003B160020300000202230405D401CC1B2B2
:100FC00004EBC40000EB0410FC4A02EB40002230AA
:100FD000415504EBC40000EB0410114601EB400046
:100FE0002230405D0C2820D90C2104EBC40000EB1A
:100FF000041002EB400022304155F14800780128EE
:1010000013D1F04800780128FAD10020EE49087089
:10101000EE49086098E4002104EBC40000EB0410E2
:10102000E64A02EB400022304155A7E304EBC4003E
:1010300000EB4410E64908440930405D032808D01D
:1010400004EBC40000EB441008440930405D06285E
:101050007ED104EBC40000EB4410DD490844153098
:10106000405D012835D104EBC40000EB0410D349E6
:1010700001EB40000E30405D401CC1B204EBC400E7
:1010800000EB0410CD4A02EB40000E30415504EB5A
:10109000C40000EB0410114601EB40000E30405D2F
:1010A0000C2820D90C2104EBC40000EB041002EB47
:1010B00040000E304155C2480078012813D1C54880
:1010C000007801280FD10020BF490870BF4908608F
:1010D0003AE4002104EBC40000EB0410B74A02EB31
:1010E00040000E30415504EBC40000EB4410B849F9
:1010F00008441130405D012837D104EBC40000EBF7
:101100000410AE4901EB4000801C405D401CC1B2A0
:1011100004EBC40000EB0410A84A02EB4000801C62
:10112000415504EBC40000EB0410114601EB4000F4
:10113000801C405D0C2822D90C2104EBC40000EB7C
:10114000041002EB4000801C41559D48007800E0EF
:101150004DE1012813D19B48007801280FD10020D0
:1011600099490870994908603AE4002104EBC400E9
:1011700000EB0410914A02EB4000801C415504EB47
:10118000C40000EB4410924908441D30405D012822
:1011900035D104EBC40000EB0410884901EB40009A
:1011A0002A30405D401CC1B204EBC40000EB0410C7
:1011B000824A02EB40002A30415504EBC40000EBA8
:1011C0000410114601EB40002A30405D0C2820D964
:1011D0000C2104EBC40000EB041002EB40002A30A9
:1011E000415577480078012813D17A4800780128C2
:1011F0000FD1002074490870744908603AE4002156
:1012000004EBC40000EB04106C4A02EB40002A30EF
:10121000415504EBC40000EB44106D4908441930FB
:10122000405D012835D104EBC40000EB0410634994
:1012300001EB40001E30405D401CC1B204EBC40015
:1012400000EB04105D4A02EB40001E30415504EBF8
:10125000C40000EB0410114601EB40001E30405D5D
:101260000C2820D90C2104EBC40000EB041002EB85
:1012700040001E30415552480078012813D1514892
:10128000007801280FD100204F4908704F490860AD
:101290003AE4002104EBC40000EB0410474A02EBDF
:1012A00040001E30415504EBC40000EB4410484997
:1012B00008442530405D012835D104EBC40000EB23
:1012C00004103E4901EB40002E30405D401CC1B28D
:1012D00004EBC40000EB0410384A02EB40002E304F
:1012E000415504EBC40000EB0410114601EB400033
:1012F0002E30405D0C2820D90C2104EBC40000EBFB
:10130000041002EB40002E3041552D480078012892
:1013100013D13048007801280FD100202A490870E5
:101320002A49086049E4002104EBC40000EB0410E2
:10133000224A02EB40002E30415504EBC40000EB82
:101340004410234908442130405D012844D104EB76
:10135000C40000EB0410194901EB40002230405D4D
:10136000401CC1B204EBC40000EB0410134A02EBB2
:1013700040002230415504EBC40000EB041011463C
:1013800001EB40002230405D0C282FD90C2104EBEA
:10139000C40000EB041002EB400022304155084825
:1013A0000078012822D1074800780128FAD10020CE
:1013B000054908700549086048E40000D517002079
:1013C0002F000020300000202D0000209801224234
:1013D0003B16002031000020002104EBC40000EB8C
:1013E0000410EC4A02EB400022304155C6E104EB08
:1013F000C40000EB4410E84908440930405D072868
:10140000F4D104EBC40000EB441008441530405DF7
:10141000012835D104EBC40000EB0410DD4901EBD9
:1014200040000E30405D401CC1B204EBC40000EB34
:101430000410D84A02EB40000E30415504EBC400C2
:1014400000EB0410114601EB40000E30405D0C280B
:1014500020D90C2104EBC40000EB041002EB400087
:101460000E304155CD480078012813D1CC48007882
:1014700001280FD10020CB490870CB49086044E413
:10148000002104EBC40000EB0410C24A02EB400050
:101490000E30415504EBC40000EB4410BE49084433
:1014A0001130405D012835D104EBC40000EB04107D
:1014B000B84901EB4000801C405D401CC1B204EB08
:1014C000C40000EB0410B34A02EB4000801C4155FD
:1014D00004EBC40000EB0410114601EB4000801C3B
:1014E000405D0C2820D90C2104EBC40000EB041053
:1014F00002EB4000801C4155A8480078012813D118
:10150000AA48007801280FD10020A6490870A649F2
:10151000086048E4002104EBC40000EB04109D4A7D
:1015200002EB4000801C415504EBC40000EB44106A
:10153000994908441D30405D012837D104EBC400AF
:1015400000EB0410934901EB40001230405D401C59
:10155000C1B204EBC40000EB04108E4A02EB400061
:101560001230415504EBC40000EB0410114601EBAE
:1015700040001230405D0C2822D90C2104EBC4003D
:1015800000EB041000E0FBE002EB4000123041559C
:1015900082480078012813D18148007801280FD1B2
:1015A0000020804908708049086046E4002104EB6F
:1015B000C40000EB0410774A02EB400012304155A2
:1015C00004EBC40000EB4410734908441930405D3B
:1015D000012835D104EBC40000EB04106D4901EB88
:1015E0004000801D405D401CC1B204EBC40000EB14
:1015F0000410684A02EB4000801D415504EBC40012
:1016000000EB0410114601EB4000801D405D0C28EA
:1016100020D90C2104EBC40000EB041002EB4000C5
:10162000801D41555D480078012813D15F4800783E
:1016300001280FD100205B4908705B49086046E42F
:10164000002104EBC40000EB0410524A02EB4000FE
:10165000801D415504EBC40000EB44104E49084482
:101660002530405D012835D104EBC40000EB0410A7
:10167000484901EB40002E30405D401CC1B204EBF4
:10168000C40000EB0410434A02EB40002E304155E9
:1016900004EBC40000EB0410114601EB40002E30B7
:1016A000405D0C2820D90C2104EBC40000EB041091
:1016B00002EB40002E30415538480078012813D104
:1016C0003748007801280FD1002036490870364984
:1016D000086046E4002104EBC40000EB04102D4A2E
:1016E00002EB40002E30415504EBC40000EB4410E7
:1016F000294908442130405D012835D104EBC4005C
:1017000000EB0410234901EB40002230405D401CF7
:10171000C1B204EBC40000EB04101E4A02EB40000F
:101720002230415504EBC40000EB0410114601EBDC
:1017300040002230405D0C2820D90C2104EBC4006D
:1017400000EB041002EB40002230415513480078B2
:10175000012813D11548007801280FD10020114924
:1017600008701149086055E4002104EBC40000EB47
:101770000410084A02EB400022304155681CC5B2F3
:10178000042DFEF40AAF601CC4B20A2CFEF416AE9F
:1017900000BF3FE4D51700203B1600202F0000209B
:1017A000310000202D00002098012242300000204E
:1017B00010B50249886B00F02BFF10BD5C000020C3
:1017C00010B50249486B00F023FF10BD5C000020FB
:1017D00030B590F840500124AC40C56B6C60046893
:1017E00063604468102C04D10468A2600468E1605E
:1017F00003E00468A1600468E26030BD7047000047
:1018000000B585B000BF2048806940F008001E493F
:1018100088610846806900F00800009000BF00BFA2
:1018200000BF0846806940F0100088610846806962
:1018300000F01000009000BF00BF40F60240019091
:1018400001200290002003900220049001A90F487B
:1018500001F02EF84020019001200290002003901A
:101860000220049001A90A4801F022F84FF4806098
:101870000190002002900120039001A9044801F08A
:1018800017F805B000BD000000100240000C014038
:101890000010014010B5024692F82030012B01D013
:1018A000022B06D11068406908431468606100206B
:1018B00010BD506A40F4802050620120F8E7F0B576
:1018C00004460D461E4694F8207020688368A86878
:1018D00000B900E000BF012F01D0022F7CD103F03E
:1018E000806030B903F0006018B903F08050002820
:1018F00073D0C3F30161022905D9606A40F4000086
:1019000060620120F0BD012088403060A86860B9A5
:10191000B5F800C0E86840EA4C5C206800F5C0708B
:1019200000EB0110C0F800C00FE0D5E901C040EAAB
:10193000CC00D5F80CC040EA0C00D4F800C00CF57F
:10194000C07C0CEB011CCCF80000D5F810C020685E
:1019500000F5C07000EB0110C0F804C0287D01281C
:101960000ED1206800F5C07000EB0110406840F413
:10197000807C206800F5C07000EB0110C0F804C046
:10198000D079000692F806C040EA0C4092F805C0F3
:1019900040EA0C2C10794CEA000C206800F5C0706D
:1019A00000EB0110C0F80CC0D078000692F802C01D
:1019B00040EA0C4092F801C040EA0C2092F800C0C6
:1019C00040EA0C00D4F800C00CF5C07C0CEB011C04
:1019D000CCF80800206801E016E00FE000F5C070C8
:1019E00000EB0110006840F0010C206800F5C070A9
:1019F00000EB0110C0F800C0002083E7606A40F4EB
:101A00000010606201207DE7606A40F4802060621F
:101A1000012077E7F0B504460A46216894F8205083
:101A2000012D01D0022D74D1D1F8000240F0010047
:101A3000C1F80002107D00F01F06012000FA06F335
:101A4000D1F81C029843C1F81C02D069C8B9D1F87A
:101A50000C029843C1F80C02908880B2968940EA43
:101A6000064601F51070576940F83760108880B25B
:101A7000168940EA064601F51070576900EBC70069
:101A80004660D069012819D1D1F80C021843C1F879
:101A90000C02908880B2168840EA064601F5107064
:101AA000576940F83760908980B2168940EA064647
:101AB00001F51070576900EBC7004660906928B9BE
:101AC000D1F804029843C1F8040204E0D1F80402FA
:101AD0001843C1F80402106928B9D1F814029843D8
:101AE000C1F8140204E0D1F814021843C1F814023A
:101AF000106A012804D1D1F81C021843C1F81C0255
:101B0000D1F8000220F00100C1F800020020F0BD71
:101B1000FFE7606A40F4802060620120F7E77047C9
:101B200070B5044694F82050012D01D0022D7DD1CE
:101B300051B92068C06800F0030080B9606A40F4C1
:101B400000106062012070BD2068006900F0030091
:101B500028B9606A40F4001060620120F3E7206851
:101B600000F5D87000EB0110006800F004009060F0
:101B7000906840B9206800F5D87000EB011000684B
:101B8000400D106007E0206800F5D87000EB0110F0
:101B90000068C0085060206800F5D87000EB0110A4
:101BA000006800F00200D060206800F5D87000EBFB
:101BB0000110406800F00F001061206800F5D87037
:101BC00000EB0110406800F47F40000A906120683B
:101BD00000F5D87000EB01104068000C50612068DF
:101BE00000F5D87000EB011080681870206800F5CF
:101BF000D87000EB0110806800F47F40000A587034
:101C0000206800F5D87000EB0110806800F47F00B8
:101C1000000C9870206800F5D87000EB0110806807
:101C2000000ED870206800F5D87000E02FE000EBBF
:101C30000110C0681871206800F5D87000EB011021
:101C4000C06800F47F40000A5871206800F5D87021
:101C500000EB0110C06800F47F00000C9871206850
:101C600000F5D87000EB0110C068000ED87131B9D2
:101C70002068C06840F020002668F06005E0206819
:101C8000006940F020002668306100205BE7606A50
:101C900040F480206062012055E70146002091F861
:101CA0002020012A01D0022A11D10B689B6803F081
:101CB000806303B1401C0B689B6803F0006303B1B1
:101CC000401C0B689B6803F0805303B1401C7047B5
:101CD0002DE9F05F04460025206846692068D0F8A9
:101CE0000490206887682068D0F80CA02068D0F89D
:101CF00010B02068D0F8188006F00100002855D0F8
:101D000007F00100C0B101202168886007F00200DF
:101D100018B1204600F0F2FB0EE007F0040010B10D
:101D200045F4006508E007F0080010B145F480555F
:101D300002E0204600F0E1FB07F48070C8B14FF4E8
:101D400080702168886007F4007018B1204600F0A8
:101D5000D7FB0EE007F4806010B145F4005508E0B1
:101D600007F4006010B145F4804502E0204600F021
:101D7000C6FB07F48030C8B14FF48030216888601A
:101D800007F4003018B1204600F0BCFB0EE007F469
:101D9000802010B145F4004508E007F4002010B1A0
:101DA00045F4803502E0204600F0ABFB06F0080069
:101DB00038B10AF0100020B145F4007510202168F8
:101DC000C86006F0040040B10AF0080028B10820FD
:101DD0002168C860204600F0BDF906F0020038B165
:101DE0002068C06800F0030010B1204600F0B4F98C
:101DF00006F0400038B10BF0100020B145F48065CA
:101E000010202168086106F0200040B10BF00800A6
:101E100028B1082021680861204600F045FA06F044
:101E2000100038B12068006900F0030010B12046AE
:101E300000F032FB06F4003040B109F0100028B188
:101E4000102021684860204600F027FB06F480300F
:101E500040B109F0080028B10820216848602046F8
:101E600000F051FB06F4004088B309F0040078B399
:101E700006F4807020B108F0010008B145F00105BA
:101E800006F4007020B108F0020008B145F0020528
:101E900006F4806020B108F0040008B145F00405A4
:101EA00006F40060A0B108F0700088B108F070007E
:101EB000402817D006DC10280BD020280CD0302862
:101EC00019D10CE0502810D0602814D110E01DE08A
:101ED00019E045F008050FE045F010050CE045F06D
:101EE000200509E045F0400506E045F0800503E0E7
:101EF00045F4807500E000BF00BF2068806920F0D5
:101F00007000216888610420216848602DB1606AF2
:101F1000284360622046FFF702FEBDE8F09F70B5DF
:101F200004460CB9012070BD94F8200010B9204679
:101F300000F0C2F82068006840F0010021680860E5
:101F400000F046FE05460DE000F042FE401B0A2868
:101F500008D9606A40F400306062052084F82000EF
:101F60000120E0E72068406800F001000028EBD085
:101F70002068006820F002002168086000F028FE58
:101F800005460DE000F024FE401B0A2808D9606ACF
:101F900040F400306062052084F820000120C2E790
:101FA0002068406800F002000028EBD1207E012864
:101FB00006D12068006840F080002168086005E0D4
:101FC0002068006820F0800021680860607E012899
:101FD00006D12068006840F040002168086005E0F4
:101FE0002068006820F0400021680860A07E012879
:101FF00006D12068006840F020002168086005E0F4
:102000002068006820F0200021680860E07E012838
:1020100006D12068006820F010002168086005E003
:102020002068006840F0100021680860207F0128C7
:1020300006D12068006840F008002168086005E0CB
:102040002068006820F0080021680860607F01288F
:1020500006D12068006840F004002168086005E0AF
:102060002068006820F0040021680860D4E90201BB
:10207000084321690843616908436168491E0843B0
:102080002168C86100206062012084F820000020DF
:1020900049E710B50246002092F82030012B01D00C
:1020A000022B07D11468A46804EA8164B4EB816F41
:1020B00000D0012010BD000010B586B004460020FD
:1020C000029003900490059000BF2048C06940F042
:1020D00000701E49C8610846C06900F00070019098
:1020E00000BF00BF00BF0846806940F0040088615F
:1020F0000846806900F00400019000BF00BFC814CA
:102100000290002003900120049002A9104800F0E2
:10211000CFFB4FF4805002900220039003200590E3
:1021200002A90B4800F0C4FB00221146152000F064
:10213000E2FD152000F0CFFD01220021142000F067
:10214000DAFD142000F0C7FD06B010BD00100240FB
:1021500000080140704700007CB505466B46454AC3
:1021600000212846FFF7DCFC08B1FEF7E3F8414800
:102170000088C0F3C310404908700846007890BB3F
:102180003C480088C0F3C3103C49087008460078FA
:10219000012810D13748007800F01F003849087036
:1021A000002405E01DF8040036490855601CC4B23F
:1021B000082CF7D35CE031480078022858D12D482C
:1021C000007800F01F0030490870082405E01DF871
:1021D00004002C490855601CC4B2102CF7D3012010
:1021E0002A49086044E0FFE72348007801281DD110
:1021F000204A1278C2F3C301092916D8012201EB43
:10220000C10303EB4113224EF25400200BE01DF8F2
:10221000003001EBC10202EB41121D4E3244521C50
:102220001354421CD0B20828F1D321E012480078A0
:1022300003281DD10F480078C0F38010154908709D
:102240000C480078C0F380001349087009480078F2
:10225000C0F340101149087006480078C0F3001020
:102260000F49087003480078C0F3C0000D4908709A
:102270007CBD00007C0100200C0000200D0000202F
:102280001100002008020020120000200800002099
:102290003B1600202D0000202E0000202F000020E3
:1022A00030000020310000202DE9FC4107460026C7
:1022B0006B46714A01213846FFF732FC08B1FEF740
:1022C00039F86D4800796D49087008460078002893
:1022D0004FD19DF803006A49086008460068000273
:1022E00008609DF8020009680844654908600846CE
:1022F0000068000208609DF8010009680844604910
:10230000086008460068000208609DF8000009683F
:1023100008445B4908609DF805005A490880084652
:1023200000884FF6FF7101EA0020564908809DF8A9
:10233000040009880844534908809DF80700524961
:102340000880504800884FF6FF7101EA00204E498E
:1023500008809DF80600098808444B4908804948D0
:102360000088A02804D900204649088046490880F2
:1023700080E0424800784449098888427ADC3F4836
:10238000007800F00100E8B900240EE01DF80420F8
:102390003A480078401E40083C4901EB0010401CC0
:1023A00004F108014254601CC4B2072CEED39DF81E
:1023B000071032480078401E4008344A02EB0010F3
:1023C000017010E000240CE01DF804102B48007888
:1023D000401E40082D4A02EB0010401C0155601CB5
:1023E000C4B2082CF0D325480078274909888842D0
:1023F00040D1002512E0002407E0244800EB05103E
:10240000401C005D0644601CC4B20F2CF5D31F486D
:1024100000EB051000780644681CC5B21948008816
:102420008542E8DB16480068864223D1002519E082
:1024300000240BE0154800EB0510401C015D14481A
:1024400000EB0510401C0155601CC4B20F2CF1D3E9
:102450000E4800EB051000780D4901EB05110870DE
:10246000681CC5B2074800888542E1DB0548008842
:1024700008490880BDE8FC81980100200D0000207B
:1024800014000020180000201A000020270C002053
:10249000270200201E0000207047704770B50446D8
:1024A00094F82000012822D1022084F8200020681E
:1024B000006820F001002168086000F089FB0546F3
:1024C0000DE000F085FB401B0A2808D9606A40F443
:1024D00000306062052084F82000012070BD206873
:1024E000406800F001000028EBD16062F6E7606A06
:1024F00040F4002060620120F0E7704770477047A9
:1025000070477047704770470146002291F82100DC
:10251000022808D00420886300BF002081F8200032
:1025200000BF012070470868006820F00E000B68AB
:1025300018600868006820F001000B68186091F8C6
:10254000403001209840CB6B5860012081F8210079
:1025500000BF002081F8200000BF1046E2E7000025
:1025600070B50446002594F82100022803D0042009
:10257000A063012548E02068006820F00E00216873
:1025800008602068006820F00100216808601F4989
:102590002068884201D1012026E01C4914312068BE
:1025A000884201D110201FE0184928312068884254
:1025B00001D1801518E015493C312068884201D1CD
:1025C000801411E0114950312068884202D14FF443
:1025D000803009E00D4964312068884202D14FF40F
:1025E000801001E04FF080700849083948600120F0
:1025F00084F8210000BF002084F8200000BF606B39
:1026000010B12046616B8847284670BD0800024023
:1026100070B50446E06B05682068066894F84010C1
:10262000042088402840002846D006F004000028F6
:1026300042D02068006800F0200028B920680068B7
:1026400020F004002168086057492068884201D1C1
:10265000042027E0544914312068884201D14020E9
:1026600020E0514928312068884201D1001519E045
:102670004D493C312068884202D14FF4804011E03E
:10268000494950312068884202D14FF4802009E046
:10269000454964312068884202D14FF4800001E04E
:1026A0004FF08060404908394860E06A00287AD0DD
:1026B0002046E16A884776E094F84010022088407E
:1026C0002840A0B306F0020088B32068006800F03C
:1026D000200040B92068006820F00A0021680860E6
:1026E000012084F8210030492068884201D102206D
:1026F00028E02D4914312068884201D1202021E0B2
:10270000294928312068884201D140151AE026491C
:102710003C312068884202D14FF4005012E0224937
:1027200050312068884203D14FF400300AE017E0AE
:102730001D4964312068884202D14FF4001001E045
:102740004FF0007018490839486000BF002084F835
:10275000200000BFA06A30B32046A16A884722E06B
:1027600094F84010082088402840E0B106F00800A6
:10277000C8B12068006820F00E002168086094F855
:10278000401001208840E16B48600120A06384F87C
:10279000210000BF002084F8200000BF206B10B192
:1027A0002046216B884770BD080002400146002288
:1027B00009B901207047164B0868C01A1423B0FBF2
:1027C000F3F08000086412480838C863022081F8DA
:1027D00021000868026843F6F0708243D1E90103E2
:1027E0001843CB6818430B6918434B6918438B692E
:1027F0001843CB69184302430868026000208863CD
:10280000012081F82100002081F8200000BFD1E7DD
:10281000080002402DE9F04104460D4616461F46C9
:102820004FF0000800BF94F82000012802D10220D8
:10283000BDE8F081012084F8200000BF94F8210059
:1028400001282CD1022084F821000020A0632068F8
:10285000006820F00100216808603B4632462946A6
:102860002046FEF7B5FFE06A30B12068006840F00E
:102870000E00216808600BE02068006820F004006A
:10288000216808602068006840F00A00216808603C
:102890002068006840F001002168086006E000BF81
:1028A000002084F8200000BF4FF002084046BFE738
:1028B0002DE9F8470346002294466EE14FF00108E7
:1028C00008FA02F4D1F8008008EA0400A0427DD1A1
:1028D000DFF8DCA2D1F80480A8EB0A09D0453AD091
:1028E00014DCB8F1030F50D009DCB8F1000F31D07F
:1028F000B8F1010F1CD0B8F1020F49D120E0B8F1B6
:10290000110F18D0B8F1120F42D11EE0B9F5881F8F
:1029100025D006DCB9F5803F20D0B9F5801F37D12E
:102920001AE0B9F5001F18D0B9F5041F30D117E02F
:10293000D1F80CC02DE0D1F80C8008F1040C28E08F
:10294000D1F80C8008F1080C23E0D1F80C8008F1D4
:102950000C0C1EE000BF00BF00BF00BF00BF00BFE7
:10296000D1F80880B8F1000F02D14FF0040C0BE051
:10297000D1F80880B8F1010F03D14FF0080C1C61A9
:1029800002E04FF0080C5C6103E04FF0000C00E047
:1029900000BF00BFFF2801D8984601E003F10408FA
:1029A0004646FF2802D84FEA820803E0A2F1080851
:1029B0004FEA88084746D6F800804FF00F0909FA19
:1029C00007F928EA09080CFA07F900E088E048EA64
:1029D0000908C6F80080D1F8048008F08058B8F1E2
:1029E000805F7DD100BFDFF8CC81D8F8188048F037
:1029F0000108DFF8C091C9F81880C846D8F81880D7
:102A000008F00108CDF8008000BF00BF4FEAB938D8
:102A10004FEA920958F829504FEA82784FEA18791C
:102A20004FF00F0808FA09F825EA0805DFF8888151
:102A3000434502D14FF0000816E0DFF8808143459E
:102A400002D14FF001080FE0DFF87481434502D155
:102A50004FF0020808E0DFF86C81434502D14FF0E7
:102A6000030801E04FF004084FEA82794FEA197930
:102A700008FA09F848EA0505DFF84C814FEA92099F
:102A800048F82950D1F8048008F48038B8F5803F20
:102A90000AD1DFF83881D8F8008048EA0008DFF86A
:102AA0002C91C9F8008009E0DFF82081D8F8008077
:102AB00028EA0008DFF81491C9F80080D1F80480F2
:102AC00008F40038B8F5003F10D1DFF8008108F1B4
:102AD0000408D8F8008048EA0008DFF8F09000E029
:102AE0005AE009F10409C9F800800DE0DFF8DC8044
:102AF00008F10408D8F8008028EA0008DFF8CC9034
:102B000009F10409C9F80080D1F8048008F480189C
:102B1000B8F5801F0ED1DFF8B48008F10808D8F8A6
:102B2000008048EA0008DFF8A49009F10809C9F814
:102B300000800DE0DFF8948008F10808D8F80080E4
:102B400028EA0008DFF8849009F10809C9F8008034
:102B5000D1F8048008F40018B8F5001F0ED1DFF892
:102B60006C8008F10C08D8F8008048EA0008DFF80B
:102B70005C9009F10C09C9F800800DE0DFF84C8089
:102B800008F10C08D8F8008028EA0008DFF83C902B
:102B900009F10C09C9F80080521CD1F8008028FA0C
:102BA00002F8B8F1000F7FF489AEBDE8F8870000A5
:102BB000000011100010024000080140000C01400C
:102BC00000100140001401400800014000040140D1
:102BD00001480068704700005000002070B50446AE
:102BE0000CB9012070BD4CF6CC402168086045F25C
:102BF000555021680860D4E9001048602168A06839
:102C00008860FFF7E5FF05460BE0FFF7E1FF401B9B
:102C1000272806D92068C06800F0030008B1032007
:102C2000E0E72068C06800F003000028EDD14AF614
:102C3000AA20216808600020D4E701464AF6AA20AD
:102C40000A6810600020704703480068034909784B
:102C500008440149086070475000002058000020D7
:102C600010B50848006840F01000064908600320CD
:102C700000F080F80F2000F007F800F02BF800209B
:102C800010BD00000020024070B504460E480078D8
:102C90004FF47A71B1FBF0F00C490968B1FBF0F523
:102CA000284600F0E3FB08B1012070BD102C07D2CC
:102CB00000222146501E00F01EF80548046001E085
:102CC0000120F2E70020F0E7580000204C0000202F
:102CD00054000020704701460846002809DB00F038
:102CE0001F0301229A4043099B0003F1E023C3F82C
:102CF000002100BF70472DE9F05F80460D46164663
:102D0000002701F065FD074639462A46334601F0A3
:102D10000700C0F1070ABAF1040F02D94FF0040A04
:102D200001E0C0F1070AD14600F1040ABAF1070F29
:102D300002D24FF0000A01E0A0F1030AD4464FF09E
:102D4000010A0AFA09FAAAF1010A0AEA020A0AFAC7
:102D50000CFA4FF0010B0BFA0CFBABF1010B0BEA79
:102D6000030B4AEA0B042146404601F039FDBDE859
:102D7000F09F000000BF00F00702064B19684FF6F5
:102D8000FF031940044B0B4343EA0221014B196036
:102D900000BF70470CED00E00000FA0570B5044676
:102DA0000D460CB9012070BD5A48006800F00700BC
:102DB000A8420ED25748006820F007002843554922
:102DC00008600846006800F00700A84201D0012012
:102DD000E9E7207800F0020002281DD1207800F0F9
:102DE0000400042805D14C48406840F4E0604A499A
:102DF0004860207800F00800082805D1464840685F
:102E000040F46050444948604348406820F0F00076
:102E1000A168084340494860207800F0010078B379
:102E20006068012806D13C48006800F4003090B981
:102E30000120B8E76068022806D13748006800F032
:102E4000007040B90120AEE73348006800F002008E
:102E500008B90120A7E73048406820F00300616806
:102E600008432D494860FFF7B3FE064609E0FFF727
:102E7000AFFE801B41F28831884202D9032092E7DD
:102E800007E02548406800F00C006168B0EB810F56
:102E9000EDD12048006800F00700A8420ED91D4877
:102EA000006820F0070028431A49086008460068B7
:102EB00000F00700A84201D0012074E7207800F05C
:102EC0000400042807D11448406820F4E060E16859
:102ED000084311494860207800F00800082808D10C
:102EE0000D48406820F46050216940EAC1000A4959
:102EF000486000F03FF808494968C1F30311074AE8
:102F0000515CC8400649086006480068FFF7BCFEEF
:102F1000002048E70020024000100240984A0008C4
:102F20004C00002054000020014800687047000059
:102F30004C00002000B5FFF7F7FF04494968C1F3D2
:102F40000221034A515CC84000BD0000001002404D
:102F5000A84A000800B5FFF7E7FF04494968C1F334
:102F6000C221034A515CC84000BD0000001002406D
:102F7000A84A0008F0B585B00FF26C0C9CE8E01090
:102F800001A8A0E8E0101CA52D68009500210022F2
:102F9000002300240020194D696801F00C05F5B1EB
:102FA000042D02D0082D19D101E0154819E001AD1A
:102FB000C1F38346AC5D01F4803555B10F4D6D68AA
:102FC000C5F340451DF805200D4D6543B5FBF2F3F3
:102FD00002E00C4D04FB05F3184602E000BF084870
:102FE00000BF00BF05B0F0BD0203040506070809D5
:102FF0000A0B0C0D0E0F1010010200000010024011
:1030000000127A0000093D00F8B504460CB9012011
:10301000F8BD207800F00100002878D0F84840681A
:1030200000F00C0004280CD0F548406800F00C00BB
:10303000082811D1F248406800F48030B0F5803F94
:103040000AD1EF48006800F4003000285FD06068C3
:1030500000285CD10120DBE700BF6068B0F5803F4D
:1030600006D1E748006840F48030E549086028E070
:10307000606858B9E248006820F48030E049086090
:103080000846006820F4802008601AE06068B0F507
:10309000A02F0BD1DA48006840F48020D84908609E
:1030A0000846006840F4803008600AE0D4480068B0
:1030B00020F48030D24908600846006820F480205F
:1030C000086000BF606888B1FFF782FD054606E032
:1030D000FFF77EFD401B642801D9032098E7C8480C
:1030E000006800F400300028F2D010E0FFF770FD17
:1030F000054606E0FFF76CFD401B642801D903205C
:1031000086E7BF48006800F400300028F2D120783C
:1031100000F00200022857D1B948406800F00C00C6
:1031200050B1B748406800F00C00082818D1B448E6
:10313000406800F4803098B9B148006800F002009F
:1031400020B12069012801D0012061E7AC48006866
:1031500020F0F800616940EAC100A949086033E045
:103160002069E8B10120A7490860FFF731FD054655
:1031700006E0FFF72DFD401B022801D9032047E799
:103180009F48006800F002000028F2D09C480068C8
:1031900020F0F800616940EAC1009949086013E035
:1031A000002098490860FFF713FD054606E0FFF789
:1031B0000FFD401B022801D9032029E79048006831
:1031C00000F002000028F2D1207800F00800082862
:1031D0002DD1A069B8B101208B490860FFF7F8FC38
:1031E000054606E0FFF7F4FC401B022801D9032046
:1031F0000EE78348406A00F002000028F2D0012068
:1032000000F052FF13E000207F490860FFF7E0FC68
:10321000054606E0FFF7DCFC401B022801D903202D
:10322000F6E67748406A00F002000028F2D12078E4
:1032300000F00400042873D100277148C06900F031
:10324000805070B900BF6E48C06940F080506C4932
:10325000C8610846C06900F08050009000BF00BF00
:1032600001276A48006800F48070B0B967480068B8
:1032700040F4807065490860FFF7AAFC054606E047
:10328000FFF7A6FC401B642801D90320C0E65F4875
:10329000006800F480700028F2D000BFE0680128C8
:1032A00006D15748006A40F001005549086227E0FE
:1032B000E06858B95248006A20F00100504908629D
:1032C0000846006A20F00400086219E0E06805285A
:1032D0000BD14B48006A40F0040049490862084697
:1032E000006A40F0010008620AE04548006A20F0E8
:1032F0000100434908620846006A20F004000862A1
:1033000000BFE068A0B1FFF763FC054609E0FFF7E6
:103310005FFC401B41F28831884202D9032077E6E6
:1033200022E03748006A00F002000028EFD012E0E7
:10333000FFF74EFC054608E0FFF74AFC401B41F250
:103340008831884201D9032062E62D48006A00F0E6
:1033500002000028F0D1012F05D12948C06920F0D2
:1033600080502749C86100BFE069C8B3244840685D
:1033700000F00C00082860D0E069022848D1002045
:1033800020490866FFF724FC054606E0FFF720FC0D
:10339000401B022801D903203AE61948006800F0D2
:1033A00000700028F2D1206AB0F5803F07D11448A0
:1033B000406820F40030A168084311494860D4E90E
:1033C000080108430E49496821F4741108430C4967
:1033D000486001200B490866FFF7FAFB054607E045
:1033E0003DE0FFF7F5FB401B022801D903200FE663
:1033F0000348006800F000700028F2D02FE00000C1
:10340000001002400000424280044242007000402E
:10341000002014490866FFF7DBFB054606E0FFF7CE
:10342000D7FB401B022801D90320F1E50E480068B4
:1034300000F000700028F2D111E0E069012800D10D
:10344000E6E50948466806F48031206A814204D1E5
:1034500006F47011606A814201D00120D8E5002095
:10346000D6E50000000042420010024070B504465C
:103470002546681EB0F1807F01D301200FE0681E51
:103480004FF0E02148610F214FF0FF3001F0A8F923
:1034900000204FF0E021886107200861002070BD06
:1034A0007047704710B504460CB9012010BD94F860
:1034B0003D0028B9002084F83C00204600F026F8A2
:1034C000022084F83D00211D206800F0DBFE012071
:1034D00084F8460000BF84F83E0001213F200155DA
:1034E000402001554120015500BF00BF012084F854
:1034F000420043200155442001554520015500BF9D
:10350000012084F83D000020D0E7000038B50446D3
:103510002068B0F1804F15D100BF0B48C06940F062
:1035200001000949C8610846C06900F00100009027
:1035300000BF00BF002201211C20FFF7DCFB1C2084
:10354000FFF7C9FB38BD000000100240014691F8AA
:103550003D00012801D001207047022081F83D0084
:103560000868C06840F001000B68D860124B08681A
:1035700098420BD00868B0F1804F07D00F4B086815
:10358000984203D00E4B086898420CD108688068B6
:1035900000F00702062A0CD00868006840F001001D
:1035A0000B68186005E00868006840F001000B68CF
:1035B00018600020D0E70000002C0140000400400B
:1035C00000080040704710B5044620680069C0F349
:1035D0004000D8B12068C068C0F34000B0B16FF0BF
:1035E000020021680861012020772068806900F0CE
:1035F000030018B12046FFF7E5FF05E0204600F084
:10360000ADF8204600F0ABF8002020772068006974
:10361000C0F38000D8B12068C068C0F38000B0B1AA
:103620006FF004002168086102202077206880691B
:1036300000F4407018B12046FFF7C4FF05E02046B3
:1036400000F08CF8204600F08AF8002020772068EF
:103650000069C0F3C000D8B12068C068C0F3C000E2
:10366000B0B16FF00800216808610420207720685D
:10367000C06900F0030018B12046FFF7A3FF05E082
:10368000204600F06BF8204600F069F80020207713
:1036900020680069C0F30010D8B12068C068C0F38A
:1036A0000010B0B16FF01000216808610820207789
:1036B0002068C06900F4407018B12046FFF782FF0F
:1036C00005E0204600F04AF8204600F048F80020C7
:1036D00020772068006900F0010058B12068C068B8
:1036E00000F0010030B16FF0010021680861204650
:1036F00000F036F820680069C0F3C01058B12068A7
:10370000C068C0F3C01030B16FF08000216808615C
:103710002046FFF7C5FE20680069C0F3801058B14D
:103720002068C068C0F3801030B16FF0400021689D
:103730000861204600F05CF820680069C0F3401082
:1037400058B12068C068C0F3401030B16FF020005D
:10375000216808612046FFF7A4FE10BD704770473E
:103760001E490968491C1D4A11601146096846F244
:10377000A812914203D343F69821184A11601849C0
:103780000968491C164A11601146096844F620620E
:10379000914202D35110124A11601049096843F650
:1037A0009822914202D30F490988B1B10E49097894
:1037B000012912D10D49096879B9084909685022CF
:1037C000B1FBF2F302FB1311292903D20121074AAD
:1037D000116002E00021054A1160704700000020DE
:1037E000040000201E0000202D000020980122422D
:1037F00070477047704700002DE9F84F0446206875
:1038000005682068C668206847694FF00009CA4605
:1038100005F00F09B9F1000F0AD105F0200038B109
:1038200006F0200020B1204600F054FEBDE8F88FDD
:10383000B9F1000F71D007F0010018B906F49070CB
:1038400000286AD005F0010030B106F4807018B18C
:10385000206C40F00100206405F0040030B107F056
:10386000010018B1206C40F00200206405F0020055
:1038700030B107F0010018B1206C40F00400206462
:1038800005F0080048B106F0200010B907F001006B
:1038900018B1206C40F008002064206C68B305F07B
:1038A000200028B106F0200010B1204600F012FEE2
:1038B00020684069C0F3801A206C00F0080010B93D
:1038C000BAF1000F22D0204600F0C6FD2068406902
:1038D00000F04000B0B12068406920F0400021684D
:1038E0004861A06B50B15648A16B4863A06BFEF7CE
:1038F00037FE10B1A06B416B88470CE02046FFF704
:1039000079FF08E02046FFF775FF04E02046FFF747
:1039100071FF0020206489E7FFE7206B012878D140
:1039200005F01000002874D006F01000002870D0B8
:1039300000BF002000902068006800902068406868
:10394000009000BF00BF2068406900F04000C0B395
:10395000A06B006840681FFA80F8B8F1000F2FD004
:10396000A08D40452CDDA4F82E80A06B8069202816
:103970001FD02068C06820F480702168C86020686B
:10398000406920F00100216848612068406920F00A
:10399000400021684861202084F83E000020206318
:1039A0002068C06820F010002168C860A06BFEF796
:1039B000ABFDA08DE28D801A81B22046FFF719FF82
:1039C00034E7FFE7A08DE18D401A1FFA80F8E08D03
:1039D000E8B1B8F1000F1AD02068C06820F49070E8
:1039E0002168C8602068406920F0010021684861B2
:1039F000202084F83E00002020632068C06820F06A
:103A000010002168C86041462046FFF7F2FE0DE72E
:103A1000FFE705F0800030B106F0800018B12046C5
:103A200000F094FE02E705F0400030B106F04000DF
:103A300018B1204600F02BFDF8E600BFF6E60000C6
:103A40002943000810B504460CB9012010BDA06937
:103A500000B100E000BF94F83D0028B9002084F8D0
:103A60003C00204600F028F8242084F83D0020681F
:103A7000C06820F400502168C860204600F09CFD1A
:103A80002068006920F4904021680861206840693E
:103A900020F02A00216848612068C06840F4005086
:103AA0002168C86000202064202084F83D0084F84C
:103AB0003E000020CAE7000010B586B00446002092
:103AC00002900390049005904849206888427DD177
:103AD00000BF4748806940F00400454988610846B6
:103AE000806900F00400019000BF00BF00BF0846DD
:103AF000C06940F40030C8610846C06900F4003075
:103B0000019000BF00BF00BF0846406940F00100BF
:103B100048610846406900F00100019000BF00BF05
:103B200004200290022003900320059002A931484E
:103B3000FEF7BEFE0820029000200390049002A928
:103B40002C48FEF7B5FE2C482C4908600020486040
:103B500000212A4881608021C1600021016141610A
:103B600081614FF40051C161FEF720FE00BF234880
:103B70002349886308462149486200BF1E48143023
:103B8000204908601020486000211E488160802183
:103B9000C16000210161416181614FF48051C161C7
:103BA000FEF704FE00BF174815494863084615494B
:103BB000486200BF012200211120FFF79CF811206C
:103BC000FFF789F800221146102000E00CE0FFF713
:103BD00092F81020FFF77FF8012200212620FFF73E
:103BE0008AF82620FFF777F806B010BD00440040A1
:103BF00000100240000801406C000240B4000020A8
:103C00005C000020F800002070B504460D46164602
:103C100094F83E00202816D105B10EB9012070BDE0
:103C200000BF94F83C00012801D10220F7E70120F1
:103C300084F83C0000BF002020633246294620461D
:103C400000F038FDEBE70220E9E7000001460A4BEF
:103C50000A689A420ED100200AE0084A125C084B1A
:103C60001A54084A1278521C064B1A70421CD0B2E1
:103C70001128F2DB7047000000440040A000002043
:103C8000271600202100002070470000F7B50446E9
:103C9000154694F83D0020283DD1019800B10DB99A
:103CA0000120FEBD00BF94F83C00012801D1022094
:103CB000F7E7012084F83C0000BF01982062A5844A
:103CC000E58400202064212084F83D001348616BC6
:103CD00088621348616BC8621248616B08630020F8
:103CE000616B486301AE23681A1D31682B46606B17
:103CF000FEF790FD6FF040002168086000BF0020D3
:103D000084F83C0000BF2068406940F080002168D2
:103D100048610020C5E70220C3E700001544000801
:103D20004B4400083D43000810B5044611220449E5
:103D30000448FFF769FF08B100F0C4FB10BD0000A4
:103D4000A00000205C000020704700BFFEE70000DC
:103D500010B50248FEF771FF10BD0000FC01002005
:103D600070B504460D46044804490860084644609E
:103D70008560FEF733FF70BD00300040FC0100207D
:103D800010B5082203490448FFF780FF08B100F08E
:103D900099FB10BD240000205C0000207FB5054683
:103DA000002002900390009001900026002408E07B
:103DB000002004EBC40101EB44113C4A5054601C48
:103DC000C4B20A2CF4D300240AE0394839490988DE
:103DD00000EB0110401C005D02A90855601CC4B234
:103DE000072CF2D332483349098800EB0110007ADE
:103DF00000F00F008DF80F00002418E02C482D492A
:103E0000098800EB0110401CE11D405C02092848B4
:103E10002849098800EB0110401C04F10801405CAE
:103E200002EB0010C0B20DF80400601CC4B2072CF5
:103E3000E4D31F481F49098800EB0110C07B00092B
:103E40008DF80700032D12D200261B48007800F1E0
:103E5000200602A9304600F037F8002617480078FF
:103E600000F140066946304600F02EF81DE00026BD
:103E70001148007800F120069DF80F001030C0B204
:103E80008DF80F0002A9304600F01EF800260B48FE
:103E9000007800F140069DF807001030C0B28DF8A0
:103EA00007006946304600F00FF87FBD3B16002042
:103EB000270200201C00002011000020120000201A
:103EC00000BFFEE7704770472DE9F04105460E46FA
:103ED00022480560002021498860C86008200861E8
:103EE0000020087501E0601C84B21D48FDF7D5FE76
:103EF00018B947F6FF708442F5D347F6FF70844245
:103F000001D1BDE8F081002401E0601C84B23B4691
:103F1000324612491248FDF7D2FC18B147F6FF703D
:103F20008442F2D347F6FF70844200D1E9E7D7F824
:103F30000080002401E0601C84B241460848FEF77E
:103F4000A8F818B147F6FF708442F4D347F6FF7023
:103F5000844200D1D5E700BFD3E700006401002010
:103F60003C0100201CB544480068B0F5966F7DD335
:103F700042488078042874D9D1244048C0788DF80C
:103F800007003E4800798DF806003C4840798DF8DE
:103F900005003A4880798DF8040000208DF8030070
:103FA0008DF802008DF801008DF80000344800887B
:103FB00034490988084433490880088800EBD071E7
:103FC0004910304A118010460088B0F5805F0ED24B
:103FD00000208DF800002C480078401C2A49087009
:103FE00008460078042808D90420087005E001205C
:103FF0008DF8000000202449087000202149088025
:104000001F49088021490880214908801E480078FE
:10401000042805D29DF80000801CC0B28DF8000075
:104020001C480078012805D19DF80000001DC0B291
:104030008DF8000018480078012805D19DF800008F
:104040000830C0B28DF800001448008828B19DF8EF
:1040500000001030C0B28DF8000069462046FFF71E
:1040600033FF00200E4908700E4800E003E000888E
:1040700008B9FFF785FE1CBD0000002027160020B0
:1040800034000020320000203A00002036000020DA
:10409000380000202F0000202D0000201E000020EE
:1040A0002C0000202200002008B508490968C90832
:1040B0004FF47A72B1FBF2F14143009100BF00BFAF
:1040C00000994A1E00920029F9D108BD4C00002039
:1040D00070470000002005E0204A125C204B1A5473
:1040E000421CD0B20728F7D307200CE01B4B421C20
:1040F0009A5C02F00F03194A125C63F31F12184B0B
:104100001A54421CD0B20F28F0D3002115E0002031
:104110000BE0144A02EB0112521C125C104B1B5CA8
:104120009A4200D003E0421CD0B20F28F1D300BF66
:104130000F2800D105E04A1CD1B20B4A12889142E7
:10414000E5DB00BF084A1288914202DA074A118073
:1041500002E00022054B1A80704700000802002090
:1041600018020020270200201E0000201C00002052
:1041700010B5FEF769FD10BD1148006840F0010060
:104180000F490860084640680E4908400C494860DD
:10419000084600680C49084009490860084600685C
:1041A00020F4802008600846406820F4FE00486043
:1041B0004FF41F008860C80304490860704700007E
:1041C000001002400000FFF8FFFFF6FE08ED00E0DF
:1041D00030B58FB0054600240120059000040690FC
:1041E0000020079002200C90C1030D910E9505A8A8
:1041F000FEF70AFF04460CB100BFFEE70F20009057
:1042000002200190002002904FF480600390002073
:10421000049002216846FEF7C1FD04460CB100BFC0
:10422000FEE70FB030BD000002E001200149086048
:10423000FBE700008481214210B50248FFF7C3F973
:1042400010BD0000B401002070B505460C464FF0CB
:1042500080400B4908600846446000218160C560C9
:10426000016141618161FFF71DF908B1FFF7DCFFD2
:104270000348FFF76BF908B1FFF7D6FF70BD0000E8
:10428000B401002010B50268184B984208D0B0F174
:10429000804F05D0164B984202D0164B984203D15E
:1042A00022F070024B681A43104B984208D0B0F1CC
:1042B000804F05D00E4B984202D00E4B984203D14E
:1042C00022F44072CB681A4322F080034C6943EA1F
:1042D000040202608B68C3620B688362034B9842DE
:1042E00001D10B6903630123436110BD002C014020
:1042F000000400400008004010B504460848094981
:1043000008600846446000218160C16001618161EC
:104310000C214161FFF796FB08B100F0D3F810BD06
:10432000004400405C00002070B505466C6A002027
:10433000E085E0842046FFF75DFA70BD70B5064663
:104340000025746A20684069C0F3C01594F83D00E8
:10435000212805D125B10020E084204600F0A7F8EF
:1043600020684069C0F3801594F83E00222805D1EA
:1043700025B10020E085204600F06EF8206C40F06A
:10438000100020642046FFF735FA70BD70B5054671
:104390006C6A2868006800F02000F8B90020E08509
:1043A0002068C06820F480702168C8602068406977
:1043B00020F00100216848612068406920F0400039
:1043C00021684861202084F83E00206B012805D137
:1043D0002068C06820F010002168C860206B0128A8
:1043E00004D1A18D2046FFF704FA02E02046FFF732
:1043F0002DFC70BD70B505466C6A206B012805D197
:10440000A08D41082046FFF7F4F902E02046FFF7AF
:104410003BFC70BD70B505466C6A2868006800F00A
:10442000200070B90020E0842068406920F08000FE
:10443000216848612068C06840F040002168C86079
:1044400002E02046FFF770FC70BD70B50446656A57
:104450002846FFF779FC70BD0168C96821F49071A6
:104460000268D1600168496921F001010268516167
:10447000016B012905D10168C96821F010010268AA
:10448000D160202180F83E1000210163704710B5F3
:1044900004462068C06820F040002168C8602020E1
:1044A00084F83D002046FFF73FFC002010BD016866
:1044B000C96821F0C0010268D160202180F83D1058
:1044C0007047000002E0012001490860FBE700009E
:1044D000A8812142F8B5044694F83E00222869D10B
:1044E000A068B0F5805F0CD1206950B90025A66A9C
:1044F00020684068C0F308003080A06A801CA06279
:1045000015E0A56A0026A068B0F5805F03D0A0681A
:1045100028B9206918B920684068287004E020682C
:10452000406800F07F002870A06A401CA062E08D07
:10453000401E80B2E085A8BB2068C06820F0200043
:104540002168C8602068C06820F480702168C86055
:104550002068406920F0010021684861202084F82B
:104560003E00206B01281ED1002020632068C06817
:1045700020F010002168C8602068006800F010007A
:1045800010280AD100BF0020009020680068009029
:1045900020684068009000BF00BFA18D2046FFF753
:1045A00028F903E004E02046FFF750FB0020F8BDA7
:1045B0000020FCE70220FAE770B50446216809698B
:1045C00021F44051E2681143226811612269A16817
:1045D0001143626941EA02052168C96841F20C622F
:1045E000914329432268D1602168496921F44071CF
:1045F000A2691143226851612D4A2168914202D17A
:10460000FEF7A8FC01E0FEF795FC00EBC00101EB12
:10461000001162689200B1FBF2F100EBC00202EB04
:10462000001263689B00B2FBF3F26423B2FBF3F267
:1046300002EBC20303EB0212A1EB8201322202EB76
:1046400001116422B1FBF2F101F0F00100EBC002B4
:1046500002EB001263689B00B2FBF3F26423B2FB2F
:10466000F3F201EB021200EBC00101EB00116368F1
:104670009B00B1FBF3F100EBC00303EB0013666892
:10468000B600B3FBF6F36426B3FBF6F303EBC30605
:1046900006EB0313A1EB8301322303EB0111642327
:1046A000B1FBF3F101F00F0111442268916070BD7C
:1046B0000038014077B581B0044615460298A062E3
:1046C000A58500202064222084F83E001C48A16BB0
:1046D00088621C48A16BC8621B48A16B086300205C
:1046E000A16B486302AE32682368191D2B46A06B8C
:1046F000FEF790F800BF002000902068006800904E
:1047000020684068009000BF00BF00BF002084F810
:104710003C0000BF2068C06840F480702168C86019
:104720002068406940F001002168486120684069C4
:1047300040F0400021684861002004B070BD0000D6
:104740008D430008F54300083D430008014691F8F9
:104750003D00212828D18868B0F5805F0BD1086919
:1047600048B90A6A1088C0F308000B685860086AE4
:10477000801C086205E00B6A581C086218780B68F8
:104780005860C88C401E80B2C88458B90868C06898
:1047900020F080000B68D8600868C06840F04000D6
:1047A0000B68D860002070470220FCE710B5024873
:1047B000FFF722F810BD00005C00002010B5024891
:1047C000FDF786FA10BD00003C01002000BFFEE7A7
:1047D00002480068C0F30220704700000CED00E0C2
:1047E00010B5002804DB0A07130E054A135406E02F
:1047F0000A07140E034A00F00F031B1FD45410BD08
:1048000000E400E018ED00E0FEF72AFA4FF4E010B3
:10481000FFF7DEFC4FF4FA710420FFF7A1FA4721FD
:104820006320FFF711FDFCF7EBFFFBF71FFD4FF4D3
:104830009650FFF761FDFFF7A3FA01208549087044
:1048400006E1FFF785FA8448006842F21071B0FB78
:10485000F1F201FB12004910884203D201207F4986
:10486000086002E000207D4908607D48006801285A
:1048700016D1FFF72FFC7B480088401C794908803F
:1048800008460088042803D300200880FFF778FA40
:104890000020754908607249086002207349087059
:1048A00072480078022801D1FFF75CFB6E4800686F
:1048B000B0F5966F12D26C480068B0F5167F0DD92E
:1048C0006B48006828B96B480088401C694908801B
:1048D00004E069480088401C674908806248006815
:1048E000B0F5167F12D960480068B0F5966F0DD20A
:1048F0005F48006828B961480088401C5F4908800B
:1049000004E05F480088401C5D49088051480078F9
:10491000012895D15B480088002891D05248006852
:1049200043F69821884213D101204C492431086074
:1049300000205549C1F8AC010120FFF72FFA0020F3
:1049400046492431086001204F49C1F8AC016CE0B0
:104950004548006844F25C41884213D101203F4938
:104960002431086000204849C1F8AC010220FFF75B
:1049700015FA002039492431086001204249C1F864
:10498000AC0152E03848006844F62061884213D1F7
:10499000012032492431086000203B49C1F8AC01B4
:1049A0000320FFF7FBF900202C4924310860012087
:1049B0003549C1F8AC0138E02B48006845F2E47194
:1049C000884232D1012025492431086000202E4937
:1049D000C1F8AC010420FFF7E1F900201F492431A0
:1049E000086001202849C1F8AC0128480078401C23
:1049F0002649087026482749098800EB01100078ED
:104A000022490978884210DC00202049087021489A
:104A10000088401C1F4908800846008819490988F9
:104A2000884202DB00201B4908800F48006843F6DB
:104A3000982188420CD30C48006840F6C411B0FBA2
:104A4000F1F201FB1200B0F57A7F01D1FBF77AFC9D
:104A5000F7E600002D0000200400002084812142A0
:104A60000800002022000020000000202C00002070
:104A700028012242340000203800002032000020AB
:104A8000360000201E00002000802142200000206F
:104A9000270200201C000020000000000000000091
:104AA00001020304060708090000000001020304D4
:104AB000D04A0008000000205C0000002801000827
:104AC0002C4B00085C000020D41F000044010008AB
:104AD00000000000000000000000000000000000D6
:104AE00000000000000000000000000000000000C6
:104AF0000000000001030048000645DE0000000041
:104B000000000000000000000000000000000000A5
:104B10000000000000000000000000000024F4007D
:0C4B200000000000100000000100000078
:04000005080000ED02
:00000001FF
