:020000040800F2
:10000000E806002089010008DD1C0008951600089C
:10001000D91C000811030008691E00080000000038
:100020000000000000000000000000009D1D00080E
:100030001503000800000000711D0008F51D0008F0
:10004000A3010008A3010008A3010008A301000800
:10005000A3010008A3010008A3010008A3010008F0
:10006000A3010008A3010008A3010008A3010008E0
:10007000A3010008A3010008A3010008A3010008D0
:10008000A3010008A3010008A3010008A3010008C0
:10009000591E0008A3010008A3010008A3010008DD
:1000A000A3010008A3010008A3010008A3010008A0
:1000B000A3010008A3010008A3010008A301000890
:1000C000A3010008A3010008A3010008A301000880
:1000D000A3010008A3010008A3010008A301000870
:1000E000A3010008A3010008A301000800F002F822
:1000F00000F03AF80AA090E8000C82448344AAF188
:100100000107DA4501D100F02FF8AFF2090EBAE885
:100110000F0013F0010F18BFFB1A43F0010318473B
:10012000241E0000441E0000103A24BF78C878C185
:10013000FAD8520724BF30C830C144BF04680C60ED
:10014000704700000023002400250026103A28BF35
:1001500078C1FBD8520728BF30C148BF0B60704739
:100160001FB51FBD10B510BD00F044F81146FFF7D4
:10017000F7FF01F097FE00F062F803B4FFF7F2FF1B
:1001800003BC00F069F800000948804709480047AF
:10019000FEE7FEE7FEE7FEE7FEE7FEE7FEE7FEE737
:1001A000FEE7FEE704480549054A064B7047000094
:1001B000FD1D0008ED000008E8000020E806002012
:1001C000E8020020E8020020B2F120030AD5C2F1C3
:1001D000200320FA02F001FA03F321FA02F140EAC7
:1001E0000300704721FA03F04FF000017047704799
:1001F00070477047754600F02BF8AE46050069461B
:10020000534620F00700854618B020B5FFF7CAFF17
:10021000BDE820404FF000064FF000074FF0000807
:100220004FF0000B21F00701AC46ACE8C009ACE888
:10023000C009ACE8C009ACE8C0098D46704710B5EC
:100240000446AFF300802046BDE81040FFF795BF9D
:10025000004870478800002001491820ABBEFEE727
:10026000260002007047000000201549087015485C
:100270000068012803D108460078401C0870114826
:10028000001D0068012804D10D480078801C0C492D
:1002900008700C4808300068012804D1084800782C
:1002A000001D0749087007480C300068012804D178
:1002B0000348007808300249087001480078704708
:1002C0000A0000201881214200B585B000BF0E4809
:1002D000806940F008000C4988610846806900F098
:1002E0000800009000BF00BF4FF470700190002024
:1002F0000290012003900320049001A9034800F01C
:100300002DFC05B000BD000000100240000C0140B3
:1003100000BFFEE7704700BFFEE710B5024692F847
:100320002030012B01D0022B06D110684069084310
:1003300014686061002010BD506A40F48020506253
:100340000120F8E7F0B504460A46216894F82050E9
:10035000012D01D0022D74D1D1F8000240F001002E
:10036000C1F80002107D00F01F06012000FA06F31C
:10037000D1F81C029843C1F81C02D069C8B9D1F861
:100380000C029843C1F80C02908880B2968940EA2A
:10039000064601F51070576940F83760108880B242
:1003A000168940EA064601F51070576900EBC70050
:1003B0004660D069012819D1D1F80C021843C1F860
:1003C0000C02908880B2168840EA064601F510704B
:1003D000576940F83760908980B2168940EA06462E
:1003E00001F51070576900EBC7004660906928B9A5
:1003F000D1F804029843C1F8040204E0D1F80402E1
:100400001843C1F80402106928B9D1F814029843BE
:10041000C1F8140204E0D1F814021843C1F8140220
:10042000106A012804D1D1F81C021843C1F81C023B
:10043000D1F8000220F00100C1F800020020F0BD58
:10044000FFE7606A40F4802060620120F7E77047B0
:1004500070B5044694F82050012D01D0022D7DD1B5
:1004600051B92068C06800F0030080B9606A40F4A8
:1004700000106062012070BD2068006900F0030078
:1004800028B9606A40F4001060620120F3E7206838
:1004900000F5D87000EB0110006800F004009060D7
:1004A000906840B9206800F5D87000EB0110006832
:1004B000400D106007E0206800F5D87000EB0110D7
:1004C0000068C0085060206800F5D87000EB01108B
:1004D000006800F00200D060206800F5D87000EBE2
:1004E0000110406800F00F001061206800F5D8701E
:1004F00000EB0110406800F47F40000A9061206822
:1005000000F5D87000EB01104068000C50612068C5
:1005100000F5D87000EB011080681870206800F5B5
:10052000D87000EB0110806800F47F40000A58701A
:10053000206800F5D87000EB0110806800F47F009F
:10054000000C9870206800F5D87000EB01108068EE
:10055000000ED870206800F5D87000E02FE000EBA6
:100560000110C0681871206800F5D87000EB011008
:10057000C06800F47F40000A5871206800F5D87008
:1005800000EB0110C06800F47F00000C9871206837
:1005900000F5D87000EB0110C068000ED87131B9B9
:1005A0002068C06840F020002668F06005E0206800
:1005B000006940F020002668306100205BE7606A37
:1005C00040F480206062012055E72DE9F05F044689
:1005D0000025206846692068D0F804902068876864
:1005E0002068D0F80CA02068D0F810B02068D0F8AF
:1005F000188006F00100002855D007F00100C0B1B6
:1006000001202168886007F0020018B1204600F040
:100610009EFA0EE007F0040010B145F4006508E012
:1006200007F0080010B145F4805502E0204600F0C4
:100630008DFA07F48070C8B14FF48070216888602B
:1006400007F4007018B1204600F083FA0EE007F4BA
:10065000806010B145F4005508E007F4006010B167
:1006600045F4804502E0204600F072FA07F480303D
:10067000C8B14FF480302168886007F4003018B1A9
:10068000204600F068FA0EE007F4802010B145F42F
:10069000004508E007F4002010B145F4803502E081
:1006A000204600F057FA06F0080038B10AF01000B2
:1006B00020B145F4007510202168C86006F00400E0
:1006C00040B10AF0080028B108202168C86020461F
:1006D00000F09EF906F0020038B12068C06800F012
:1006E000030010B1204600F095F906F0400038B143
:1006F0000BF0100020B145F48065102021680861DE
:1007000006F0200040B10BF0080028B10820216855
:100710000861204600F0E8F906F0100038B12068C2
:10072000006900F0030010B1204600F0DEF906F485
:10073000003040B109F0100028B110202168486055
:10074000204600F0D3F906F4803040B109F00800EB
:1007500028B1082021684860204600F0FDF906F421
:10076000004088B309F0040078B306F4807020B12B
:1007700008F0010008B145F0010506F4007020B151
:1007800008F0020008B145F0020506F4806020B1CF
:1007900008F0040008B145F0040506F40060A0B1BB
:1007A00008F0700088B108F07000402817D006DC0F
:1007B00010280BD020280CD0302819D10CE050285C
:1007C00010D0602814D110E01DE019E045F00805B4
:1007D0000FE045F010050CE045F0200509E045F07C
:1007E000400506E045F0800503E045F4807500E033
:1007F00000BF00BF2068806920F070002168886118
:100800000420216848602DB1606A28436062204658
:10081000FFF71DFEBDE8F09F70B504460CB901203E
:1008200070BD94F8200010B9204600F0AFF82068A1
:10083000006840F001002168086000F01FFB0546D9
:100840000DE000F01BFB401B0A2808D9606A40F449
:1008500000306062052084F820000120E0E7206875
:10086000406800F001000028EBD02068006820F00C
:1008700002002168086000F001FB05460DE000F071
:10088000FDFA401B0A2808D9606A40F40030606213
:10089000052084F820000120C2E72068406800F0AD
:1008A00002000028EBD1207E012806D120680068D4
:1008B00040F080002168086005E02068006820F0B2
:1008C000800021680860607E012806D120680068E9
:1008D00040F040002168086005E02068006820F0D2
:1008E000400021680860A07E012806D120680068C9
:1008F00040F020002168086005E02068006820F0D2
:10090000200021680860E07E012806D12068006888
:1009100020F010002168086005E02068006840F0C1
:10092000100021680860207F012806D12068006837
:1009300040F008002168086005E02068006820F0A9
:10094000080021680860607F012806D120680068DF
:1009500040F004002168086005E02068006820F08D
:10096000040021680860D4E90201084321690843B2
:10097000616908436168491E08432168C861002015
:100980006062012084F82000002049E710B586B09D
:10099000044600BF1C48C06940F000701A49C86195
:1009A0000846C06900F00070019000BF00BF00BFA2
:1009B0000846806940F0040088610846806900F0BC
:1009C0000400019000BF00BFC814029000200390F3
:1009D0000320059002A90D4800F0C0F84FF48050A4
:1009E0000290022003900320059002A9074800F01E
:1009F000B5F800220121142000F09DFA142000F027
:100A00008AFA06B010BD0000001002400008014044
:100A1000704700002DE9FC4107466B462C4A002137
:100A20003846FFF715FD08B1FFF775FC28488068C8
:100A300000284BD126480088C0F3C316244800780C
:100A4000C0F34115002E41D1012D1CD12148007861
:100A5000052818DA1E4800681E490978C84000F0C9
:100A600001001D490870002405E01DF804001B4921
:100A70000855601CC4B2082CF7D30120184908702F
:100A80001849086022E0022D20D11248007804287D
:100A90001CD9104800780A2818D20D4800680D4962
:100AA0000978491FC84000F001000B490870002474
:100AB00005E01DF8040009490855601CC4B2082C63
:100AC000F7D301200649087006490860BDE8FC819B
:100AD0006C0000200A000020190000200B000020FC
:100AE000180000208401214270477047704770B59C
:100AF000044694F82000012822D1022084F8200026
:100B00002068006820F001002168086000F0B6F954
:100B100005460DE000F0B2F9401B0A2808D9606ACA
:100B200040F400306062052084F82000012070BD90
:100B30002068406800F001000028EBD16062F6E711
:100B4000606A40F4002060620120F0E7704770475F
:100B50007047704770477047704700002DE9F847AD
:100B60000346002294466EE14FF0010808FA02F4B1
:100B7000D1F8008008EA0400A0427DD1DFF8DCA2B1
:100B8000D1F80480A8EB0A09D0453AD014DCB8F1BA
:100B9000030F50D009DCB8F1000F31D0B8F1010FCC
:100BA0001CD0B8F1020F49D120E0B8F1110F18D0D4
:100BB000B8F1120F42D11EE0B9F5881F25D006DC2E
:100BC000B9F5803F20D0B9F5801F37D11AE0B9F5CB
:100BD000001F18D0B9F5041F30D117E0D1F80CC0B0
:100BE0002DE0D1F80C8008F1040C28E0D1F80C803D
:100BF00008F1080C23E0D1F80C8008F10C0C1EE081
:100C000000BF00BF00BF00BF00BF00BFD1F8088019
:100C1000B8F1000F02D14FF0040C0BE0D1F80880BE
:100C2000B8F1010F03D14FF0080C1C6102E04FF046
:100C3000080C5C6103E04FF0000C00E000BF00BF57
:100C4000FF2801D8984601E003F104084646FF2832
:100C500002D84FEA820803E0A2F108084FEA8808A8
:100C60004746D6F800804FF00F0909FA07F928EA3D
:100C700009080CFA07F900E088E048EA0908C6F814
:100C80000080D1F8048008F08058B8F1805F7DD1F1
:100C900000BFDFF8CC81D8F8188048F00108DFF8F1
:100CA000C091C9F81880C846D8F8188008F0010823
:100CB000CDF8008000BF00BF4FEAB9384FEA920973
:100CC00058F829504FEA82784FEA18794FF00F0808
:100CD00008FA09F825EA0805DFF88881434502D1BA
:100CE0004FF0000816E0DFF88081434502D14FF055
:100CF00001080FE0DFF87481434502D14FF002088C
:100D000008E0DFF86C81434502D14FF0030801E0B1
:100D10004FF004084FEA82794FEA197908FA09F886
:100D200048EA0505DFF84C814FEA920948F8295056
:100D3000D1F8048008F48038B8F5803F0AD1DFF894
:100D40003881D8F8008048EA0008DFF82C91C9F80B
:100D5000008009E0DFF82081D8F8008028EA000848
:100D6000DFF81491C9F80080D1F8048008F4003845
:100D7000B8F5003F10D1DFF8008108F10408D8F879
:100D8000008048EA0008DFF8F09000E05AE009F13E
:100D90000409C9F800800DE0DFF8DC8008F10408E0
:100DA000D8F8008028EA0008DFF8CC9009F104099F
:100DB000C9F80080D1F8048008F48018B8F5801FC5
:100DC0000ED1DFF8B48008F10808D8F8008048EAAE
:100DD0000008DFF8A49009F10809C9F800800DE0C7
:100DE000DFF8948008F10808D8F8008028EA0008A5
:100DF000DFF8849009F10809C9F80080D1F804806F
:100E000008F40018B8F5001F0ED1DFF86C8008F167
:100E10000C08D8F8008048EA0008DFF85C9009F177
:100E20000C09C9F800800DE0DFF84C8008F10C08CF
:100E3000D8F8008028EA0008DFF83C9009F10C0996
:100E4000C9F80080521CD1F8008028FA02F8B8F1E5
:100E5000000F7FF489AEBDE8F88700000000111094
:100E60000010024000080140000C01400010014049
:100E700000140140080001400004014001480068DE
:100E800070470000200000200348006803490978EB
:100E90000844014908607047200000202800002015
:100EA00010B50848006840F01000064908600320AB
:100EB00000F080F80F2000F007F800F02BF8002079
:100EC00010BD00000020024070B504460E480078B6
:100ED0004FF47A71B1FBF0F00C490968B1FBF0F501
:100EE000284600F0BDFB08B1012070BD102C07D2D0
:100EF00000222146501E00F01EF80548046001E063
:100F00000120F2E70020F0E7280000201C0000206C
:100F100024000020704701460846002809DB00F045
:100F20001F0301229A4043099B0003F1E023C3F809
:100F3000002100BF70472DE9F05F80460D46164640
:100F4000002700F093FF074639462A46334601F052
:100F50000700C0F1070ABAF1040F02D94FF0040AE2
:100F600001E0C0F1070AD14600F1040ABAF1070F07
:100F700002D24FF0000A01E0A0F1030AD4464FF07C
:100F8000010A0AFA09FAAAF1010A0AEA020A0AFAA5
:100F90000CFA4FF0010B0BFA0CFBABF1010B0BEA57
:100FA000030B4AEA0B042146404600F067FFBDE808
:100FB000F09F000000BF00F00702064B19684FF6D3
:100FC000FF031940044B0B4343EA0221014B196014
:100FD00000BF70470CED00E00000FA0570B5044654
:100FE0000D460CB9012070BD5A48006800F007009A
:100FF000A8420ED25748006820F007002843554900
:1010000008600846006800F00700A84201D00120EF
:10101000E9E7207800F0020002281DD1207800F0D6
:101020000400042805D14C48406840F4E0604A4977
:101030004860207800F00800082805D1464840683C
:1010400040F46050444948604348406820F0F00054
:10105000A168084340494860207800F0010078B357
:101060006068012806D13C48006800F4003090B95F
:101070000120B8E76068022806D13748006800F010
:10108000007040B90120AEE73348006800F002006C
:1010900008B90120A7E73048406820F003006168E4
:1010A00008432D494860FFF7E9FE064609E0FFF7CF
:1010B000E5FE801B41F28831884202D9032092E785
:1010C00007E02548406800F00C006168B0EB810F34
:1010D000EDD12048006800F00700A8420ED91D4855
:1010E000006820F0070028431A4908600846006895
:1010F00000F00700A84201D0012074E7207800F03A
:101100000400042807D11448406820F4E060E16836
:10111000084311494860207800F00800082808D1E9
:101120000D48406820F46050216940EAC1000A4936
:10113000486000F019F808494968C1F30311074AEB
:10114000515CC8400649086006480068FFF7BCFECD
:10115000002048E700200240001002402C1F000839
:101160001C00002024000020F0B585B00FF26C0CAC
:101170009CE8E01001A8A0E8E0101CA52D680095EF
:1011800000210022002300240020194D696801F08D
:101190000C05F5B1042D02D0082D19D101E0154838
:1011A00019E001ADC1F38346AC5D01F4803555B162
:1011B0000F4D6D68C5F340451DF805200D4D654385
:1011C000B5FBF2F302E00C4D04FB05F3184602E018
:1011D00000BF084800BF00BF05B0F0BD0203040512
:1011E000060708090A0B0C0D0E0F10100102000073
:1011F0000010024000127A0000093D00F8B50446D4
:101200000CB90120F8BD207800F00100002878D04A
:10121000F848406800F00C0004280CD0F5484068FD
:1012200000F00C00082811D1F248406800F480302A
:10123000B0F5803F0AD1EF48006800F40030002884
:101240005FD0606800285CD10120DBE700BF6068E8
:10125000B0F5803F06D1E748006840F48030E549AA
:10126000086028E0606858B9E248006820F48030DF
:10127000E04908600846006820F4802008601AE011
:101280006068B0F5A02F0BD1DA48006840F48020E8
:10129000D84908600846006840F4803008600AE0D9
:1012A000D448006820F48030D249086008460068BD
:1012B00020F48020086000BF606888B1FFF7DEFD81
:1012C000054606E0FFF7DAFD401B642801D903203C
:1012D00098E7C848006800F400300028F2D010E019
:1012E000FFF7CCFD054606E0FFF7C8FD401B64286C
:1012F00001D9032086E7BF48006800F400300028C9
:10130000F2D1207800F00200022857D1B948406895
:1013100000F00C0050B1B748406800F00C000828FD
:1013200018D1B448406800F4803098B9B1480068DA
:1013300000F0020020B12069012801D0012061E7FE
:10134000AC48006820F0F800616940EAC100A94992
:10135000086033E02069E8B10120A7490860FFF781
:101360008DFD054606E0FFF789FD401B022801D9E7
:10137000032047E79F48006800F002000028F2D0F1
:101380009C48006820F0F800616940EAC100994972
:10139000086013E0002098490860FFF76FFD0546DC
:1013A00006E0FFF76BFD401B022801D9032029E767
:1013B0009048006800F002000028F2D1207800F088
:1013C000080008282DD1A069B8B101208B49086018
:1013D000FFF754FD054606E0FFF750FD401B0228CD
:1013E00001D903200EE78348406A00F0020000287C
:1013F000F2D0012000F0BEFC13E000207F4908601D
:10140000FFF73CFD054606E0FFF738FD401B0228CC
:1014100001D90320F6E67748406A00F00200002870
:10142000F2D1207800F00400042873D1002771481D
:10143000C06900F0805070B900BF6E48C06940F0CC
:1014400080506C49C8610846C06900F08050009027
:1014500000BF00BF01276A48006800F48070B0B97F
:101460006748006840F4807065490860FFF706FD32
:10147000054606E0FFF702FD401B642801D9032062
:10148000C0E65F48006800F480700028F2D000BF1A
:10149000E068012806D15748006A40F0010055492C
:1014A000086227E0E06858B95248006A20F001005D
:1014B000504908620846006A20F00400086219E0FA
:1014C000E06805280BD14B48006A40F00400494908
:1014D00008620846006A40F0010008620AE04548D8
:1014E000006A20F00100434908620846006A20F0C3
:1014F0000400086200BFE068A0B1FFF7BFFC05462A
:1015000009E0FFF7BBFC401B41F28831884202D959
:10151000032077E622E03748006A00F00200002846
:10152000EFD012E0FFF7AAFC054608E0FFF7A6FCA3
:10153000401B41F28831884201D9032062E62D48E0
:10154000006A00F002000028F0D1012F05D12948DF
:10155000C06920F080502749C86100BFE069C8B366
:101560002448406800F00C00082860D0E069022898
:1015700048D1002020490866FFF780FC054606E0B8
:10158000FFF77CFC401B022801D903203AE61948EA
:10159000006800F000700028F2D1206AB0F5803FAA
:1015A00007D11448406820F40030A168084311496D
:1015B0004860D4E9080108430E49496821F47411D0
:1015C00008430C49486001200B490866FFF756FCA8
:1015D000054607E03DE0FFF751FC401B022801D91A
:1015E00003200FE60348006800F000700028F2D0E6
:1015F0002FE00000001002400000424280044242FE
:1016000000700040002014490866FFF737FC0546CB
:1016100006E0FFF733FC401B022801D90320F1E567
:101620000E48006800F000700028F2D111E0E06977
:10163000012800D1E6E50948466806F48031206AB1
:10164000814204D106F47011606A814201D0012008
:10165000D8E50020D6E5000000004242001002401C
:1016600070B504462546681EB0F1807F01D3012085
:101670000FE0681E4FF0E02148610F214FF0FF306E
:1016800000F0FCFB00204FF0E0218861072008619A
:10169000002070BD00BFFEE72DE9FE4F0020074689
:1016A000804600900FE04FEA082040EA17683F02AA
:1016B0000098C0F10700FA49085CC71948F1000812
:1016C0000098401C009000980828ECD3F54800785A
:1016D000052190FBF1F201FB1200F2490870084667
:1016E000007800EB400082004446BA46504621464E
:1016F000FEF76AFD07210840EB490870E9480078C9
:1017000000EB4000032101EB8002BB462546584612
:101710002946FEF759FD07210840E3494870E14892
:10172000007800EB4000062101EB80022646384697
:1017300031460297FEF748FD07210840DA498870D4
:10174000D848007800EB4000092101EB8002A14657
:10175000384649460197FEF737FD07210840D24930
:10176000C870012101EA1870D04908700846007855
:10177000CF490870CC48007808280ED2DFE800F086
:10178000040E1925304861790020CA490860CA4909
:10179000C1F8BC01C7493039086075E00020C5496F
:1017A0000860C549C1F8BC010120C2493039086050
:1017B0006AE00020BF4908600120BF49C1F8BC01B0
:1017C0000020BC49303908605EE00120B94908605A
:1017D0000020B949C1F8BC01B6493039086053E06E
:1017E000B248007848B90020B2490860B249C1F84F
:1017F000BC01B0493039086009E00020AD490860FB
:10180000AD49C1F8BC010120AA49303908603BE06C
:10181000A648007848B90020A6490860A649C1F842
:10182000BC01A449303908600AE00020A1490860E1
:101830000120A149C1F8BC0100209E49303908604F
:1018400022E09A48007848B900209A4908609A49ED
:10185000C1F8BC0197493039086009E00120954979
:10186000086000209449C1F8BC01924930390860F1
:101870000AE001208F4908608F49C1F8BC010020AF
:101880008C493039086000BF00BF8748407808287D
:101890000ED2DFE800F0040E1925304861790020EF
:1018A0008449283908608549C1F88C018449086059
:1018B00075E000207F49283908608049C1F88C0113
:1018C00001207F4908606AE000207A4928390860D1
:1018D00001207A49C1F88C010020794908605EE056
:1018E000012074492839086000207449C1F88C012E
:1018F0007349086053E06D48007848B900206D498D
:10190000283908606D49C1F88C016D49086009E00B
:1019100000206849283908606849C1F88C01012015
:10192000674908603BE06148007848B90020614998
:10193000283908606149C1F88C01614908600AE0F2
:1019400000205C492839086001205C49C1F88C01FD
:1019500000205B49086022E05448007848B9002024
:101960005449283908605549C1F88C015449086028
:1019700009E001204F492839086000204F49C1F88B
:101980008C014F4908600AE001204A492839086063
:101990004A49C1F88C0100204949086000BF00BFD6
:1019A0004148807808280ED2DFE800F0040E19259F
:1019B0003048618E00204249083108603E49C1F834
:1019C00094014049086089E000203D4908310860E1
:1019D0003949C1F8940101203A4908607EE00020AD
:1019E00037490831086001203349C1F894010020CB
:1019F0003449086072E00120314908310860002054
:101A00002D49C1F894012F49086067E02748007804
:101A100048B900202A49083108602749C1F89401D3
:101A20002849086009E0002025490831086022495A
:101A3000C1F894010120234908604FE01B48007859
:101A400048B900201E49083108601B49C1F89401BB
:101A50001C4908600AE0002019490831086001208B
:101A60001549C1F8940100201649086036E00F4876
:101A7000007848B900201249083108600E49C1F8C1
:101A800094011049086009E001200D4908310860FF
:101A900000200949C1F894010A4908601EE00000CD
:101AA0000B0000200A000020130000200800002086
:101AB00009000020B401224200002242000021421D
:101AC00094012142848121420120514908605149F9
:101AD000C1F8940100205049086000BF00BF4F4882
:101AE000C07808280FD2DFE800F0040F1B28344E1E
:101AF000698300204849283108604949C1F8B40188
:101B00004549383108607FE00020434928310860AA
:101B10004349C1F8B40101203F493831086073E0FE
:101B200000203D492831086001203D49C1F8B40139
:101B3000002039493831086066E0012036492831F3
:101B4000086000203649C1F8B401334938310860D3
:101B50005AE03448007850B900202F4928310860F5
:101B60002F49C1F8B4012C49383108600AE000203F
:101B70002949283108602A49C1F8B40101202649C1
:101B80003831086040E02748007850B900202249E9
:101B9000283108602249C1F8B4011F493831086072
:101BA0000BE000201C492831086001201C49C1F8C5
:101BB000B401002018493831086025E01948007840
:101BC00050B900201449283108601549C1F8B40102
:101BD0001149383108600AE001200F4928310860B6
:101BE00000200F49C1F8B4010B49383108600BE0FF
:101BF00001200949283108600949C1F8B4010020D1
:101C000005493831086000BF00BFBDE8FE8F000005
:101C10009C012142000022428481214213000020C5
:101C2000008021420800002000B585B000BF264892
:101C3000806940F00400244988610846806900F00A
:101C40000400009000BF00BF00BF0846806940F05C
:101C5000080088610846806900F00800009000BF15
:101C600000BF00BF0846806940F010008861084648
:101C7000806900F01000009000BF00BF40F2AB2070
:101C800001900120029003900320049001A90F48C5
:101C9000FEF764FF4AF602000190012002900390D3
:101CA0000320049001A90A48FEF758FF4AF22A00CF
:101CB00001900120029003900320049001A905489F
:101CC000FEF74CFF05B000BD0010024000080140C7
:101CD000000C01400010014000BFFEE7704700000B
:101CE00000B58BB020482149086000211F480176CB
:101CF000417681760121C1760021017741778160AB
:101D0000C1604FF4C02101614FF480114161062090
:101D1000164948600846FEF77FFD08B1FEF7FBFA5A
:101D2000002006900790012008900020019002906A
:101D30000390049005900120099001A90B48FEF73B
:101D400001FB08B1FEF7E7FA0848FEF7D0FE08B13C
:101D5000FEF7E1FA02210548FEF7DFFA08B1FEF7C7
:101D6000DAFA0BB000BD0000006400402C00002037
:101D70007047000008B508490968C9084FF47A722D
:101D8000B1FBF2F14143009100BF00BF00994A1E30
:101D900000920029F9D108BD1C000020704730B521
:101DA0008FB0054600240120059000040690002015
:101DB000079002200C90C1030D910E9505A8FFF726
:101DC0001DFA04460CB100BFFEE70F200090022070
:101DD0000190002002904FF4806003900020049056
:101DE00002216846FFF7FAF804460CB100BFFEE78F
:101DF0000FB030BD10B5FFF747F810BD11480068AF
:101E000040F001000F490860084640680E4908404C
:101E10000C494860084600680C49084009490860B8
:101E20000846006820F4802008600846406820F4D6
:101E3000FE0048604FF41F008860C8030449086032
:101E400070470000001002400000FFF8FFFFF6FEA0
:101E500008ED00E07047000010B50248FEF7B5FB42
:101E600010BD00002C00002000BFFEE70248006803
:101E7000C0F30220704700000CED00E010B5002810
:101E800004DB0A07130E054A135406E00A07140E72
:101E9000034A00F00F031B1FD45410BD00E400E000
:101EA00018ED00E0FEF7FCFF4FF4E010FFF777FFBE
:101EB000FFF7D0FFFEF708FAFFF712FFFFF7B4FEB7
:101EC000002011490870FEF7CFF900200F49087073
:101ED0000F4908700F4908700F4908700F490870C2
:101EE00042F210700E4908600E4908600BE0094884
:101EF0000078012804D1FFF7CFFB002005490870C6
:101F0000012009490860F2E70A00002017000020BC
:101F100019000020180000200800002009000020FF
:101F20000000002004000020A40121420000000065
:101F30000000000001020304060708090000000079
:101F400001020304641F0008000000202C000000B0
:101F500028010008901F00082C000020BC0600008B
:101F60004401000800000000000000000000000024
:101F70000000000000000000000000000000000061
:101F80000024F40000000000100000000100000028
:04000005080000ED02
:00000001FF
