:020000040800F2
:10000000880700208901000855230008BB1C000850
:10001000512300080D0300083926000800000000E5
:10002000000000000000000000000000892400081B
:1000300001040008000000005D2400088B24000873
:10004000A3010008A3010008A3010008A301000800
:10005000A3010008A3010008A3010008A3010008F0
:10006000A3010008A3010008A3010008A3010008E0
:10007000A3010008A3010008A3010008A3010008D0
:10008000A3010008A3010008A3010008A3010008C0
:1000900029260008A3010008A3010008A301000805
:1000A000A3010008A3010008A3010008A3010008A0
:1000B00045250008A3010008A3010008A3010008CA
:1000C000A3010008A3010008A3010008A301000880
:1000D000A3010008A3010008A3010008A301000870
:1000E000A3010008A3010008A301000800F002F822
:1000F00000F03AF80AA090E8000C82448344AAF188
:100100000107DA4501D100F02FF8AFF2090EBAE885
:100110000F0013F0010F18BFFB1A43F0010318473B
:10012000B8340000D8340000103A24BF78C878C131
:10013000FAD8520724BF30C830C144BF04680C60ED
:10014000704700000023002400250026103A28BF35
:1001500078C1FBD8520728BF30C148BF0B60704739
:100160001FB51FBD10B510BD00F044F81146FFF7D4
:10017000F7FF03F07BF900F062F803B4FFF7F2FF3A
:1001800003BC00F069F800000948804709480047AF
:10019000FEE7FEE7FEE7FEE7FEE7FEE7FEE7FEE737
:1001A000FEE7FEE704480549054A064B7047000094
:1001B00095240008ED000008880100208807002031
:1001C0008803002088030020B2F120030AD5C2F181
:1001D000200320FA02F001FA03F321FA02F140EAC7
:1001E0000300704721FA03F04FF000017047704799
:1001F00070477047754600F02BF8AE46050069461B
:10020000534620F00700854618B020B5FFF7CAFF17
:10021000BDE820404FF000064FF000074FF0000807
:100220004FF0000B21F00701AC46ACE8C009ACE888
:10023000C009ACE8C009ACE8C0098D46704710B5EC
:100240000446AFF300802046BDE81040FFF795BF9D
:10025000004870472801002001491820ABBEFEE786
:10026000260002007047000000201549087015485C
:100270000068012803D108460078401C0870114826
:10028000001D0068012804D10D480078801C0C492D
:1002900008700C4808300068012804D1084800782C
:1002A000001D0749087007480C300068012804D178
:1002B0000348007808300249087001480078704708
:1002C0000A0000201881214200B585B000BF0D480A
:1002D000806940F008000B4988610846806900F099
:1002E0000800009000BF00BF4FF470700190002024
:1002F00002900120039001A9034800F07DFD05B0A4
:1003000000BD000000100240000C014000BFFEE7ED
:100310000FE00120074908600749C1F880014FF448
:100320007A7000F055FD0020024908600249C1F8CA
:100330008001EEE78401214200002142002018499B
:100340000880184908801849088018490880184909
:1003500008801849088018490880184908801849F9
:1003600008801849088018490880184908801849E9
:1003700008801849088018490880184908801849D9
:1003800008801849088018490880184908801849C9
:100390000880184908801849088018490880704763
:1003A0001E00002020000020220000202400002049
:1003B000260000202800002030000020320000200D
:1003C0003400002036000020380000203A000020D1
:1003D0004200002044000020460000204800002089
:1003E0004A0000204C00002054000020560000204D
:1003F000580000205A0000205C0000205E00002011
:10040000704710B5024692F82030012B01D0022B24
:1004100006D110684069084314686061002010BD6F
:10042000506A40F4802050620120F8E7F0B504469D
:100430000D461E4694F8207020688368A86800B9AD
:1004400000E000BF012F01D0022F7CD103F08060BB
:1004500030B903F0006018B903F08050002873D061
:10046000C3F30161022905D9606A40F400006062AB
:100470000120F0BD012088403060A86860B9B5F85F
:1004800000C0E86840EA4C5C206800F5C07000EBF2
:100490000110C0F800C00FE0D5E901C040EACC006F
:1004A000D5F80CC040EA0C00D4F800C00CF5C07CB4
:1004B0000CEB011CCCF80000D5F810C0206800F54A
:1004C000C07000EB0110C0F804C0287D01280ED1D7
:1004D000206800F5C07000EB0110406840F4807C9B
:1004E000206800F5C07000EB0110C0F804C0D0799E
:1004F000000692F806C040EA0C4092F805C040EAB7
:100500000C2C10794CEA000C206800F5C07000EB50
:100510000110C0F80CC0D078000692F802C040EA82
:100520000C4092F801C040EA0C2092F800C040EA6A
:100530000C00D4F800C00CF5C07C0CEB011CCCF80E
:100540000800206801E016E00FE000F5C07000EB45
:100550000110006840F0010C206800F5C07000EB4D
:100560000110C0F800C0002083E7606A40F400106A
:10057000606201207DE7606A40F4802060620120B3
:1005800077E7F0B504460A46216894F82050012D1B
:1005900001D0022D74D1D1F8000240F00100C1F861
:1005A0000002107D00F01F06012000FA06F3D1F8CA
:1005B0001C029843C1F81C02D069C8B9D1F80C02DA
:1005C0009843C1F80C02908880B2968940EA0646AA
:1005D00001F51070576940F83760108880B21689AD
:1005E00040EA064601F51070576900EBC700466007
:1005F000D069012819D1D1F80C021843C1F80C02B6
:10060000908880B2168840EA064601F51070576956
:1006100040F83760908980B2168940EA064601F5B5
:100620001070576900EBC7004660906928B9D1F88F
:1006300004029843C1F8040204E0D1F8040218430C
:10064000C1F80402106928B9D1F814029843C1F81E
:10065000140204E0D1F814021843C1F81402106A1D
:10066000012804D1D1F81C021843C1F81C02D1F8AA
:10067000000220F00100C1F800020020F0BDFFE7F9
:10068000606A40F4802060620120F7E7704770B52F
:10069000044694F82050012D01D0022D7DD151B98E
:1006A0002068C06800F0030080B9606A40F4001060
:1006B0006062012070BD2068006900F0030028B965
:1006C000606A40F4001060620120F3E7206800F5E2
:1006D000D87000EB0110006800F004009060906892
:1006E00040B9206800F5D87000EB01100068400D9B
:1006F000106007E0206800F5D87000EB011000687A
:10070000C0085060206800F5D87000EB0110006848
:1007100000F00200D060206800F5D87000EB0110F6
:10072000406800F00F001061206800F5D87000EB01
:100730000110406800F47F40000A9061206800F5D5
:10074000D87000EB01104068000C5061206800F583
:10075000D87000EB011080681870206800F5D87020
:1007600000EB0110806800F47F40000A5870206898
:1007700000F5D87000EB0110806800F47F00000CD9
:100780009870206800F5D87000EB01108068000EAA
:10079000D870206800F5D87000E02FE000EB011061
:1007A000C0681871206800F5D87000EB0110C068AF
:1007B00000F47F40000A5871206800F5D87000EB03
:1007C0000110C06800F47F00000C9871206800F5EB
:1007D000D87000EB0110C068000ED87131B92068E4
:1007E000C06840F020002668F06005E020680069DD
:1007F00040F020002668306100205BE7606A40F42A
:1008000080206062012055E70146002091F82020F9
:10081000012A01D0022A11D10B689B6803F0806382
:1008200003B1401C0B689B6803F0006303B1401CDC
:100830000B689B6803F0805303B1401C70472DE99F
:10084000F05F04460025206846692068D0F80490CF
:10085000206887682068D0F80CA02068D0F810B015
:100860002068D0F8188006F00100002855D007F065
:100870000100C0B101202168886007F0020018B1B2
:10088000204600F09EFA0EE007F0040010B145F497
:10089000006508E007F0080010B145F4805502E05B
:1008A000204600F08DFA07F48070C8B14FF48070D4
:1008B0002168886007F4007018B1204600F083FAC0
:1008C0000EE007F4806010B145F4005508E007F42D
:1008D000006010B145F4804502E0204600F072FA55
:1008E00007F48030C8B14FF480302168886007F485
:1008F000003018B1204600F068FA0EE007F48020BE
:1009000010B145F4004508E007F4002010B145F4AB
:10091000803502E0204600F057FA06F0080038B1B2
:100920000AF0100020B145F4007510202168C8605D
:1009300006F0040040B10AF0080028B10820216840
:10094000C860204600F0B0F906F0020038B1206817
:10095000C06800F0030010B1204600F0A7F906F0CF
:10096000400038B10BF0100020B145F48065102034
:100970002168086106F0200040B10BF0080028B1A2
:10098000082021680861204600F0E8F906F0100010
:1009900038B12068006900F0030010B1204600F073
:1009A000DEF906F4003040B109F0100028B1102043
:1009B00021684860204600F0D3F906F4803040B149
:1009C00009F0080028B1082021684860204600F09E
:1009D000FDF906F4004088B309F0040078B306F48A
:1009E000807020B108F0010008B145F0010506F45F
:1009F000007020B108F0020008B145F0020506F4CD
:100A0000806020B108F0040008B145F0040506F448
:100A10000060A0B108F0700088B108F070004028B4
:100A200017D006DC10280BD020280CD0302819D184
:100A30000CE0502810D0602814D110E01DE019E01F
:100A400045F008050FE045F010050CE045F02005E5
:100A500009E045F0400506E045F0800503E045F477
:100A6000807500E000BF00BF2068806920F0700042
:100A7000216888610420216848602DB1606A28439C
:100A800060622046FFF702FEBDE8F09F70B50446A5
:100A90000CB9012070BD94F8200010B9204600F078
:100AA000C1F82068006840F001002168086000F08B
:100AB00033FB05460DE000F02FFB401B0A2808D948
:100AC000606A40F400306062052084F82000012054
:100AD000E0E72068406800F001000028EBD02068C3
:100AE000006820F002002168086000F015FB054650
:100AF0000DE000F011FB401B0A2808D9606A40F4A1
:100B000000306062052084F820000120C2E72068E0
:100B1000406800F002000028EBD1207E012806D1B9
:100B20002068006840F080002168086005E02068C7
:100B3000006820F0800021680860607E012806D1EE
:100B40002068006840F040002168086005E02068E7
:100B5000006820F0400021680860A07E012806D1CE
:100B60002068006840F020002168086005E02068E7
:100B7000006820F0200021680860E07E012806D18E
:100B80002068006820F010002168086005E02068F7
:100B9000006840F0100021680860207F012806D11D
:100BA0002068006840F008002168086005E02068BF
:100BB000006820F0080021680860607F012806D1E5
:100BC0002068006840F004002168086005E02068A3
:100BD000006820F0040021680860D4E9020108439D
:100BE00021690843616908436168491E0843216817
:100BF000C86100206062012084F82000002049E7DD
:100C000010B50246002092F82030012B01D0022BB3
:100C100007D11468A46804EA8164B4EB816F00D042
:100C2000012010BD10B586B0044600BF1C48C06945
:100C300040F000701A49C8610846C06900F00070B1
:100C4000019000BF00BF00BF0846806940F004006B
:100C500088610846806900F00400019000BF00BF71
:100C6000C8140290002003900120049002A90D48AE
:100C700000F0C2F84FF4805002900220039003204D
:100C8000059002A9074800F0B7F8022201211420BC
:100C900000F0D5FA142000F0C2FA06B010BD000032
:100CA0000010024000080140704700007CB5054676
:100CB0006B46244A00212846FFF7E9FC08B1FFF7FC
:100CC00027FB2048806800283AD11E480078C0F3EE
:100CD00041101D49087008460078012814D11B48AE
:100CE0000078052810D2012019490860002405E089
:100CF0001DF8040017490855601CC4B2082CF7D32E
:100D00000120154908701BE00F480078022817D110
:100D10000E480078042813D90C4800780A280FD20E
:100D200001200B490860002405E01DF80400094972
:100D30000855601CC4B2082CF7D30120064908707E
:100D40007CBD0000B8000020170000200A00002031
:100D5000840121420B0000201800002070477047DA
:100D6000704770B5044694F82000012822D1022073
:100D700084F820002068006820F0010021680860E5
:100D800000F0CAF905460DE000F0C6F9401B0A283C
:100D900008D9606A40F400306062052084F82000C1
:100DA000012070BD2068406800F001000028EBD1F0
:100DB0006062F6E7606A40F4002060620120F0E7BC
:100DC0007047704770477047704770477047000022
:100DD00070B5044600F0A0F906462546681C10B11F
:100DE00004480078054400BF00F096F9801BA84233
:100DF000FAD370BD740000202DE9F84703460022A5
:100E000094466EE14FF0010808FA02F4D1F8008030
:100E100008EA0400A0427DD1DFF8DCA2D1F804800A
:100E2000A8EB0A09D0453AD014DCB8F1030F50D032
:100E300009DCB8F1000F31D0B8F1010F1CD0B8F1C6
:100E4000020F49D120E0B8F1110F18D0B8F1120FFC
:100E500042D11EE0B9F5881F25D006DCB9F5803FE8
:100E600020D0B9F5801F37D11AE0B9F5001F18D08E
:100E7000B9F5041F30D117E0D1F80CC02DE0D1F83E
:100E80000C8008F1040C28E0D1F80C8008F1080C63
:100E900023E0D1F80C8008F10C0C1EE000BF00BF6D
:100EA00000BF00BF00BF00BFD1F80880B8F1000F3D
:100EB00002D14FF0040C0BE0D1F80880B8F1010F1B
:100EC00003D14FF0080C1C6102E04FF0080C5C618C
:100ED00003E04FF0000C00E000BF00BFFF2801D886
:100EE000984601E003F104084646FF2802D84FEA7D
:100EF000820803E0A2F108084FEA88084746D6F8BE
:100F000000804FF00F0909FA07F928EA09080CFADE
:100F100007F900E088E048EA0908C6F80080D1F83F
:100F2000048008F08058B8F1805F7DD100BFDFF801
:100F3000CC81D8F8188048F00108DFF8C091C9F8D2
:100F40001880C846D8F8188008F00108CDF800804D
:100F500000BF00BF4FEAB9384FEA920958F829504C
:100F60004FEA82784FEA18794FF00F0808FA09F82B
:100F700025EA0805DFF88881434502D14FF00008D3
:100F800016E0DFF88081434502D14FF001080FE001
:100F9000DFF87481434502D14FF0020808E0DFF822
:100FA0006C81434502D14FF0030801E04FF0040883
:100FB0004FEA82794FEA197908FA09F848EA0505F3
:100FC000DFF84C814FEA920948F82950D1F80480A3
:100FD00008F48038B8F5803F0AD1DFF83881D8F8B6
:100FE000008048EA0008DFF82C91C9F8008009E089
:100FF000DFF82081D8F8008028EA0008DFF8149193
:10100000C9F80080D1F8048008F40038B8F5003F32
:1010100010D1DFF8008108F10408D8F8008048EA10
:101020000008DFF8F09000E05AE009F10409C9F87F
:1010300000800DE0DFF8DC8008F10408D8F80080BB
:1010400028EA0008DFF8CC9009F10409C9F800800B
:10105000D1F8048008F48018B8F5801F0ED1DFF8AD
:10106000B48008F10808D8F8008048EA0008DFF8E2
:10107000A49009F10809C9F800800DE0DFF8948018
:1010800008F10808D8F8008028EA0008DFF8849002
:1010900009F10809C9F80080D1F8048008F40018A3
:1010A000B8F5001F0ED1DFF86C8008F10C08D8F8F5
:1010B000008048EA0008DFF85C9009F10C09C9F8E3
:1010C00000800DE0DFF84C8008F10C08D8F80080B3
:1010D00028EA0008DFF83C9009F10C09C9F8008003
:1010E000521CD1F8008028FA02F8B8F1000F7FF402
:1010F00089AEBDE8F8870000000011100010024022
:1011000000080140000C01400010014000140140A3
:1011100008000140000401400148006870470000D9
:101120006C00002070B504460CB9012070BD4CF66F
:10113000CC402168086045F2555021680860D4E928
:10114000001048602168A0688860FFF7E5FF054649
:101150000BE0FFF7E1FF401B272806D92068C06895
:1011600000F0030008B10320E0E72068C06800F049
:1011700003000028EDD14AF6AA202168086000206B
:10118000D4E701464AF6AA200A681060002070479A
:10119000034800680349097808440149086070471A
:1011A0006C0000207400002010B50848006840F072
:1011B000100006490860032000F080F80F2000F0BE
:1011C00007F800F02BF8002010BD000000200240BE
:1011D00070B504460E4800784FF47A71B1FBF0F018
:1011E0000C490968B1FBF0F5284600F0BDFB08B1D9
:1011F000012070BD102C07D200222146501E00F0A5
:101200001EF80548046001E00120F2E70020F0E745
:101210007400002068000020700000207047014624
:101220000846002809DB00F01F0301229A40430909
:101230009B0003F1E023C3F8002100BF70472DE9B4
:10124000F05F80460D461646002702F0F3F8074689
:1012500039462A46334601F00700C0F1070ABAF1C1
:10126000040F02D94FF0040A01E0C0F1070AD14689
:1012700000F1040ABAF1070F02D24FF0000A01E0B0
:10128000A0F1030AD4464FF0010A0AFA09FAAAF1BA
:10129000010A0AEA020A0AFA0CFA4FF0010B0BFAE9
:1012A0000CFBABF1010B0BEA030B4AEA0B042146E2
:1012B000404602F0C7F8BDE8F09F000000BF00F014
:1012C0000702064B19684FF6FF031940044B0B4306
:1012D00043EA0221014B196000BF70470CED00E0AA
:1012E0000000FA0570B504460D460CB9012070BD2A
:1012F0005A48006800F00700A8420ED2574800681C
:1013000020F007002843554908600846006800F0AF
:101310000700A84201D00120E9E7207800F0020090
:1013200002281DD1207800F00400042805D14C4883
:10133000406840F4E0604A494860207800F00800C6
:10134000082805D14648406840F460504449486048
:101350004348406820F0F000A168084340494860D5
:10136000207800F0010078B36068012806D13C487D
:10137000006800F4003090B90120B8E760680228E6
:1013800006D13748006800F0007040B90120AEE790
:101390003348006800F0020008B90120A7E7304890
:1013A000406820F00300616808432D494860FFF75A
:1013B000B3FE064609E0FFF7AFFE801B41F288311D
:1013C000884202D9032092E707E02548406800F0F0
:1013D0000C006168B0EB810FEDD12048006800F08F
:1013E0000700A8420ED91D48006820F007002843D6
:1013F0001A4908600846006800F00700A84201D0BA
:10140000012074E7207800F00400042807D1144874
:10141000406820F4E060E1680843114948602078A2
:1014200000F00800082808D10D48406820F46050FA
:10143000216940EAC1000A49486000F019F80849EA
:101440004968C1F30311074A515CC8400649086066
:1014500006480068FFF7BCFE002048E70020024075
:1014600000100240C0350008680000207000002015
:10147000F0B585B00FF26C0C9CE8E01001A8A0E874
:10148000E0101CA52D6800950021002200230024F7
:101490000020194D696801F00C05F5B1042D02D04A
:1014A000082D19D101E0154819E001ADC1F38346BB
:1014B000AC5D01F4803555B10F4D6D68C5F3404505
:1014C0001DF805200D4D6543B5FBF2F302E00C4D10
:1014D00004FB05F3184602E000BF084800BF00BF48
:1014E00005B0F0BD02030405060708090A0B0C0D40
:1014F0000E0F1010010200000010024000127A00CE
:1015000000093D00F8B504460CB90120F8BD20786B
:1015100000F00100002878D0F848406800F00C0086
:1015200004280CD0F548406800F00C00082811D1C0
:10153000F248406800F48030B0F5803F0AD1EF48AF
:10154000006800F4003000285FD0606800285CD19B
:101550000120DBE700BF6068B0F5803F06D1E748B7
:10156000006840F48030E549086028E0606858B9B8
:10157000E248006820F48030E049086008460068CE
:1015800020F4802008601AE06068B0F5A02F0BD12D
:10159000DA48006840F48020D849086008460068AE
:1015A00040F4803008600AE0D448006820F48030BD
:1015B000D24908600846006820F48020086000BF17
:1015C000606888B1FFF7A8FD054606E0FFF7A4FDB7
:1015D000401B642801D9032098E7C848006800F43C
:1015E00000300028F2D010E0FFF796FD054606E037
:1015F000FFF792FD401B642801D9032086E7BF480E
:10160000006800F400300028F2D1207800F00200D9
:10161000022857D1B948406800F00C0050B1B748D3
:10162000406800F00C00082818D1B448406800F465
:10163000803098B9B148006800F0020020B12069FC
:10164000012801D0012061E7AC48006820F0F800D3
:10165000616940EAC100A949086033E02069E8B146
:101660000120A7490860FFF757FD054606E0FFF790
:1016700053FD401B022801D9032047E79F4800681B
:1016800000F002000028F2D09C48006820F0F8002A
:10169000616940EAC1009949086013E00020984957
:1016A0000860FFF739FD054606E0FFF735FD401BF2
:1016B000022801D9032029E79048006800F00200C1
:1016C0000028F2D1207800F0080008282DD1A06968
:1016D000B8B101208B490860FFF71EFD054606E002
:1016E000FFF71AFD401B022801D903200EE78348AB
:1016F000406A00F002000028F2D0012000F0B0FEA5
:1017000013E000207F490860FFF706FD054606E06C
:10171000FFF702FD401B022801D90320F6E67748B7
:10172000406A00F002000028F2D1207800F00400A6
:10173000042873D100277148C06900F0805070B947
:1017400000BF6E48C06940F080506C49C8610846CF
:10175000C06900F08050009000BF00BF01276A48B8
:10176000006800F48070B0B96748006840F4807089
:1017700065490860FFF7D0FC054606E0FFF7CCFCA2
:10178000401B642801D90320C0E65F48006800F4CC
:1017900080700028F2D000BFE068012806D15748C9
:1017A000006A40F001005549086227E0E06858B936
:1017B0005248006A20F00100504908620846006A59
:1017C00020F00400086219E0E06805280BD14B48BE
:1017D000006A40F00400494908620846006A40F087
:1017E000010008620AE04548006A20F00100434910
:1017F00008620846006A20F00400086200BFE06842
:10180000A0B1FFF789FC054609E0FFF785FC401B06
:1018100041F28831884202D9032077E622E0374836
:10182000006A00F002000028EFD012E0FFF774FC1D
:10183000054608E0FFF770FC401B41F28831884202
:1018400001D9032062E62D48006A00F0020000285A
:10185000F0D1012F05D12948C06920F080502749D7
:10186000C86100BFE069C8B32448406800F00C00BC
:10187000082860D0E069022848D100202049086685
:10188000FFF74AFC054606E0FFF746FC401B02282E
:1018900001D903203AE61948006800F000700028DA
:1018A000F2D1206AB0F5803F07D11448406820F497
:1018B0000030A168084311494860D4E90801084391
:1018C0000E49496821F4741108430C49486001200D
:1018D0000B490866FFF720FC054607E03DE0FFF7EF
:1018E0001BFC401B022801D903200FE603480068B7
:1018F00000F000700028F2D02FE00000001002403D
:10190000000042428004424200700040002014491E
:101910000866FFF701FC054606E0FFF7FDFB401BEC
:10192000022801D90320F1E50E48006800F000709C
:101930000028F2D111E0E069012800D1E6E509486C
:10194000466806F48031206A814204D106F47011A1
:10195000606A814201D00120D8E50020D6E5000070
:10196000000042420010024070B504462546681E41
:10197000B0F1807F01D301200FE0681E4FF0E0211D
:1019800048610F214FF0FF3001F05CFD00204FF067
:10199000E021886107200861002070BD7047704712
:1019A00010B504460CB9012010BD94F83D0028B9CB
:1019B000002084F83C00204600F026F8022084F83D
:1019C0003D00211D206800F0E3FD012084F8460061
:1019D00000BF84F83E0001213F2001554020015501
:1019E0004120015500BF00BF012084F84200432080
:1019F0000155442001554520015500BF012084F8C0
:101A00003D000020D0E7000038B504462068B0F162
:101A1000804F15D100BF0B48C06940F00100094953
:101A2000C8610846C06900F00100009000BF00BF17
:101A3000002211461C20FFF702FC1C20FFF7EFFBE1
:101A400038BD000000100240014691F83D00012819
:101A500001D001207047022081F83D000868C0686D
:101A600040F001000B68D860124B086898420BD018
:101A70000868B0F1804F07D00F4B0868984203D038
:101A80000E4B086898420CD10868806800F0070285
:101A9000062A0CD00868006840F001000B68186046
:101AA00005E00868006840F001000B68186000203D
:101AB000D0E70000002C0140000400400008004076
:101AC000704710B5044620680069C0F34000D8B1E3
:101AD0002068C068C0F34000B0B16FF00200216818
:101AE0000861012020772068806900F0030018B1A8
:101AF0002046FFF7E5FF05E0204600F0ADF8204660
:101B000000F0ABF80020207720680069C0F3800067
:101B1000D8B12068C068C0F38000B0B16FF0040095
:101B200021680861022020772068806900F44070F5
:101B300018B12046FFF7C4FF05E0204600F08CF8FE
:101B4000204600F08AF80020207720680069C0F362
:101B5000C000D8B12068C068C0F3C000B0B16FF059
:101B6000080021680861042020772068C06900F01F
:101B7000030018B12046FFF7A3FF05E0204600F060
:101B80006BF8204600F069F8002020772068006993
:101B9000C0F30010D8B12068C068C0F30010B0B125
:101BA0006FF0100021680861082020772068C06964
:101BB00000F4407018B12046FFF782FF05E0204690
:101BC00000F04AF8204600F048F80020207720680E
:101BD000006900F0010058B12068C06800F0010001
:101BE00030B16FF0010021680861204600F036F83E
:101BF00020680069C0F3C01058B12068C068C0F305
:101C0000C01030B16FF08000216808612046FFF7F6
:101C1000C5FE20680069C0F3801058B12068C06814
:101C2000C0F3801030B16FF0400021680861204699
:101C300000F042F820680069C0F3401058B12068F5
:101C4000C068C0F3401030B16FF020002168086117
:101C50002046FFF7A4FE10BD704770471249884226
:101C600020D112490968491C104A116010490968BD
:101C7000491C0F4A11600D49096847F230529142E0
:101C800003D344F62061094A11600949096847F203
:101C90003052914203D344F62061054A116000217D
:101CA000044A117070470000E0000020000000208E
:101CB0000400002019000020704700BFFEE700006C
:101CC00010B50248FFF75DFA10BD0000D4000020F7
:101CD00070B504460D46044804490860084644604F
:101CE0008560FFF71FFA70BD00300040D40000206F
:101CF0002DE9FE4F00210F468846002000900FE09E
:101D00004FEA082040EA17683F020098C0F1070038
:101D1000F949085CC71948F100080098401C009078
:101D200000980828ECD3F5480078052190FBF1F2E3
:101D300001FB1200F14908700846007800EB4000F2
:101D400082004446BA4650462146FEF73DFA072136
:101D50000840EB490870E948007800EB4000032197
:101D600001EB8002BB46254658462946FEF72CFA71
:101D700007210840E2494870E048007800EB400045
:101D8000062101EB80022646384631460297FEF7CF
:101D90001BFA07210840DA498870D848007800EB20
:101DA0004000092101EB8002A146384649460197CF
:101DB000FEF70AFA07210840D149C870012101EA5B
:101DC0001870D049087008460078012805D1CE481F
:101DD000007810B90020CD490860CA480078CA4987
:101DE0000870C748007808280ED2DFE800F0040E1B
:101DF0001925304861790020C5490860C549C1F8F6
:101E0000BC01C3493039086075E00020C049086052
:101E1000C049C1F8BC010120BD49303908606AE001
:101E20000020BB4908600120BA49C1F8BC0100206C
:101E3000B749303908605EE00120B54908600020EC
:101E4000B449C1F8BC01B2493039086053E0AD482B
:101E5000007848B90020AE490860AE49C1F8BC011D
:101E6000AB493039086009E00020A9490860A94958
:101E7000C1F8BC010120A649303908603BE0A14807
:101E8000007848B90020A2490860A249C1F8BC0105
:101E90009F49303908600AE000209D490860012010
:101EA0009C49C1F8BC01002099493039086022E002
:101EB0009448007848B90020954908609549C1F8D0
:101EC000BC0193493039086009E00120904908605D
:101ED00000209049C1F8BC018D49303908600AE002
:101EE00001208B4908608B49C1F8BC01002088495A
:101EF0003039086000BF00BF8148407808280ED202
:101F0000DFE800F0040E192530486179002080498F
:101F1000283908608049C1F88C018049086075E063
:101F200000207B49283908607B49C1F88C010120D9
:101F30007A4908606AE00020754928390860012064
:101F40007549C1F88C010020744908605EE00120E9
:101F50006F492839086000206F49C1F88C016F492A
:101F6000086053E06748007848B90020684928397C
:101F700008606949C1F88C016849086009E00020DF
:101F80006349283908606449C1F88C01012063491C
:101F900008603BE05B48007848B900205C4928397C
:101FA00008605D49C1F88C015C4908600AE00020C6
:101FB00057492839086001205749C1F88C01002091
:101FC0005649086022E04F48007848B9002050493F
:101FD000283908605049C1F88C015049086009E06F
:101FE00001204B492839086000204B49C1F88C0179
:101FF0004A4908600AE001204549283908604649F5
:10200000C1F88C0100204549086000BF00BF3C4872
:10201000807808280ED2DFE800F0040E1925304839
:10202000618F00203D49083108603A49C1F89401A8
:102030003B4908608AE0002038490831086035498A
:10204000C1F894010120364908607FE0002033493F
:102050000831086001202F49C1F89401002030495F
:10206000086073E001202D490831086000202949EB
:10207000C1F894012A49086068E02248007848B90C
:1020800000202649083108602249C1F894012449FA
:10209000086009E000202149083108601D49C1F8A5
:1020A000940101201E49086050E01648007848B9A4
:1020B00000201A49083108601649C1F894011849EE
:1020C00008600AE000201549083108600120114924
:1020D000C1F8940100201249086037E009480078EF
:1020E00048B900200D49083108600A49C1F8940137
:1020F0000B4908601FE015E00B0000200A000020DB
:102100001300002008000020090000200400002027
:10211000B4012242000022420000214294012142E7
:102120008481214201205649086000205549C1F8A8
:1021300094015549086009E001205149086051495E
:10214000C1F8940100205049086000BF00BF4F480B
:10215000C07808280FD2DFE800F0040F1B28344EA7
:10216000698300204849283108604949C1F8B40111
:102170004549383108607FE0002043492831086034
:102180004349C1F8B40101203F493831086073E088
:1021900000203D492831086001203D49C1F8B401C3
:1021A000002039493831086066E00120364928317D
:1021B000086000203649C1F8B4013349383108605D
:1021C0005AE03448007850B900202F49283108607F
:1021D0002F49C1F8B4012C49383108600AE00020C9
:1021E0002949283108602A49C1F8B401012026494B
:1021F0003831086040E02748007850B90020224973
:10220000283108602249C1F8B4011F4938310860FB
:102210000BE000201C492831086001201C49C1F84E
:10222000B401002018493831086025E019480078C9
:1022300050B900201449283108601549C1F8B4018B
:102240001149383108600AE001200F49283108603F
:1022500000200F49C1F8B4010B49383108600BE088
:1022600001200949283108600949C1F8B40100205A
:1022700005493831086000BF00BFBDE8FE8F00008F
:102280009C0121420000224284812142130000204F
:10229000008021420800002000B585B000BF28481A
:1022A000806940F00400264988610846806900F092
:1022B0000400009000BF00BF00BF0846806940F0E6
:1022C000080088610846806900F00800009000BF9F
:1022D00000BF00BF0846806940F0100088610846D2
:1022E000806900F01000009000BF00BF40F2AB20FA
:1022F000019001200290002003900220049001A987
:102300001048FEF779FD4AF6020001900120029084
:10231000002003900220049001A90B48FEF76CFDF9
:102320004AF22A000190012002900020039002202E
:10233000049001A90548FEF75FFD05B000BD00004F
:102340000010024000080140000C01400010014054
:1023500000BFFEE77047000000B58BB02048214960
:10236000086000211F48017641768176C1760177A9
:1023700041778160C1604FF4C02101614FF4801149
:1023800041610620174948600846FEF77FFB08B107
:10239000FDF7BEFF00200690079001200890002066
:1023A000019002904FF4704003900020049005903B
:1023B0000120099001A90B48FEF7E3F808B1FDF7E9
:1023C000A7FF0848FEF7CDFC08B1FDF7A1FF0221E9
:1023D0000448FEF716F808B1FDF79AFF0BB000BDF0
:1023E0000064004078000020F8B505460E46002441
:1023F0001848056000201749C860886008200861F7
:10240000002008756B4632461348FEF70FF808B1F6
:10241000FDF77EFF00BF601C84B20F48FEF7F4F9A1
:1024200018B947F6FF708442F5D347F6FF7084422F
:1024300000D1F8BD002401E0601C84B20648009978
:10244000FEF7DEFB18B147F6FF708442F4DB00BFF5
:10245000EFE70000A0000020780000207047000097
:1024600008B508490968C9084FF47A72B1FBF2F15E
:102470004143009100BF00BF00994A1E009200290D
:10248000F9D108BD68000020704710B5FEF780FE46
:1024900010BD00001148006840F001000F490860BD
:1024A000084640680E4908400C49486008460068E4
:1024B0000C490840094908600846006820F480205B
:1024C00008600846406820F4FE0048604FF41F0092
:1024D0008860C8030449086070470000001002408B
:1024E0000000FFF8FFFFF6FE08ED00E030B58FB00A
:1024F0000546002401200590000406900020079066
:1025000002200C90C1030D910E9505A8FEF7FAFF6D
:1025100004460CB100BFFEE70F200090022001909E
:10252000002002904FF4806003900020049002216C
:102530006846FEF7D7FE04460CB100BFFEE70FB0B9
:1025400030BD000010B50248FFF7BBFA10BD000017
:10255000E000002070B505460C464FF080400B4966
:1025600008600846446000218160C56001614161E6
:102570008161FFF715FA08B100F044F80348FFF74E
:1025800063FA08B100F03EF870BD0000E0000020E2
:1025900010B50268184B984208D0B0F1804F05D0B2
:1025A000164B984202D0164B984203D122F070028B
:1025B0004B681A43104B984208D0B0F1804F05D0B9
:1025C0000E4B984202D00E4B984203D122F4407237
:1025D000CB681A4322F080034C6943EA040202608C
:1025E0008B68C3620B688362034B984201D10B690D
:1025F00003630123436110BD002C0140000400402F
:10260000000800400AE00120054908604FF4FA7014
:10261000FEF7DEFB00200349C1F8A401F3E7000048
:10262000A40121420000214210B50248FEF707F93B
:1026300010BD00007800002000BFFEE77FB53AE142
:10264000F84800780028FAD10120F6490870F648C9
:10265000006840B9F5480088C82804D2F3480088CB
:10266000401CF2490880F0481C30006840B9F0482E
:102670000088C82804D2EE480088401CEC49088035
:10268000E948001D006840B9EA480088C82804D21B
:10269000E8480088401CE7490880E3481C38006887
:1026A00040B9E5480088C82804D2E3480088401CA7
:1026B000E1490880DC480830006840B9DF480088FC
:1026C000C82804D2DD480088401CDC490880D64870
:1026D0001438006840B9DA480088C82804D2D848BD
:1026E0000088401CD6490880D648006840B9D648C2
:1026F0000088C82804D2D4480088401CD2490880E9
:10270000D0481838006840B9D0480088C82804D29A
:10271000CE480088401CCD490880CA481C3000685B
:1027200040B9CB480088C82804D2C9480088401C5A
:10273000C7490880C3481038006840B9C5480088B8
:10274000C82804D2C3480088401CC2490880B64843
:102750000C30006840B9C0480088C82804D2BE4880
:102760000088401CBC490880B6480838006840B959
:10277000BA480088C82804D2B8480088401CB74925
:102780000880A9481030006840B9B5480088C828BA
:1027900004D2B3480088401CB1490880A2480C38D4
:1027A000006840B9AF480088C82804D2AD48008806
:1027B000401CAC4908809C481430006840B9AA48C5
:1027C0000088C82804D2A8480088401CA649088070
:1027D000A648006840B9A6480088C82804D2A44882
:1027E0000088401CA2490880A248006840B9A2485D
:1027F0000088C82804D2A0480088401C9E49088050
:102800009A482830006840B99C480088C82804D2FB
:102810009A480088401C9949088094480C30006808
:1028200040B997480088C82804D295480088401CC1
:10283000934908808D483030006840B9914800883D
:10284000C82804D28F480088401C8E4908808748D9
:102850001030006840B98C480088C82804D28A48E3
:102860000088401C8849088080483830006840B99A
:1028700086480088C82804D284480088401C8349C0
:1028800008807A481430006840B981480088C82818
:1028900004D27F480088401C7D4908806248001FA0
:1028A000006840B97B480088C82804D2794800886D
:1028B000401C7849088078480068B0F5C87FFFF46C
:1028C000BFAE754800687549098888426FD157487E
:1028D0000088C82803D901207149087002E000204F
:1028E0006F49087052480088B0F5AA7F03D90120CB
:1028F0006C49087002E000206A4908704D48008861
:10290000C82803D901206849087002E00020664900
:10291000087049480088B0F5AA7F03D901206349AF
:10292000087002E000206149087044480088C82807
:1029300003D901205E49087002E000205C4908705C
:102940003F480088B0F5AA7F03D901205949087093
:1029500002E00020574908703B480088C82803D986
:1029600001205549087002E000205349087037489B
:102970000088B0F5AA7F03D901205049087002E011
:1029800000204E49087032480088C82803D9012029
:102990004B49087002E00020494908702D48008822
:1029A000B0F5AA7F04D901204649087003E0EEE3A0
:1029B00000204449087028480088C82803D901200D
:1029C0004149087002E000203F4908702348008810
:1029D000B0F5AA7F03D901203C49087002E000202D
:1029E0003A4908701E480088C82803D90120384990
:1029F000087002E00020364908701A480088B0F5D7
:102A0000AA7F03D901203349087002E00020314930
:102A1000087015480088C82860D901202E49087020
:102A20005FE05BE0190000201C0122421E00002034
:102A3000200000202200002024000020260000208A
:102A40002800002020012142300000203200002018
:102A50003400002036000020380000203A0000201A
:102A60004200002044000020460000200081214256
:102A700048000020088122424A0000204C0000202B
:102A80005400002056000020580000205A0000206A
:102A90005C0000205E000020000000201A000020E2
:102AA0002A0000202B0000202C0000202D000020F8
:102AB0002E0000202F0000203C0000203D000020C0
:102AC0003E0000203F000020400000204100002088
:102AD0004E0000204F000020500000200020FC4944
:102AE0000870FC480088B0F5AA7F03D90120FA4994
:102AF000087002E00020F8490870F8480088C828EB
:102B000003D90120F649087002E00020F44908705A
:102B1000F4480088B0F5AA7F03D90120F249087073
:102B200002E00020F0490870F0480088C82803D966
:102B30000120EF49087002E00020ED490870ED48DF
:102B40000088B0F5AA7F03D90120EB49087002E0A4
:102B50000020E9490870E9480088C82803D9012005
:102B6000E749087002E00020E5490870E548008860
:102B7000B0F5AA7F03D90120E349087002E00020E4
:102B8000E1490870E1480088C82803D90120E049DC
:102B9000087002E00020DE490870DE480088B0F5C9
:102BA000AA7F03D90120DC49087002E00020DA493D
:102BB0000870002505E0002002A921F81500681C16
:102BC00085B2042DF7D30025D4480078012801D11F
:102BD000681C85B24FF6FF7000EA4505D0480078C2
:102BE000012801D1681C85B24FF6FF7000EA450547
:102BF000CC480078012801D1681C85B24FF6FF70DF
:102C000000EA4505C8480078012801D1681C85B252
:102C10004FF6FF7000EA4505C4480078012801D14D
:102C2000681C85B24FF6FF7000EA4505C048007881
:102C3000012801D1681C85B24FF6FF7000EA4505F6
:102C4000ADF808500025BB480078012801D1681C68
:102C500085B24FF6FF7000EA4505B74800780128B5
:102C600001D1681C85B24FF6FF7000EA4505B348F4
:102C70000078012801D1681C85B24FF6FF7000EA88
:102C80004505AF480078012801D1681C85B24FF690
:102C9000FF7000EA4505AB480078012801D1681CA7
:102CA00085B24FF6FF7000EA4505A7480078012875
:102CB00001D1681C85B24FF6FF7000EA4505ADF8FA
:102CC0000A500025A1480078012801D1681C85B26E
:102CD0004FF6FF7000EA45059D480078012801D1B4
:102CE000681C85B24FF6FF7000EA45057A48007807
:102CF000012801D1681C85B24FF6FF7000EA450536
:102D000073480078012801D1681C85B24FF6FF7026
:102D100000EA450574480078012801D1681C85B295
:102D20004FF6FF7000EA45056D480078012801D193
:102D3000681C85B24FF6FF7000EA4505ADF80C50EF
:102D400000256D480078012801D1681C85B24FF636
:102D5000FF7000EA450566480078012801D1681C2B
:102D600085B24FF6FF7000EA4505674800780128F4
:102D700001D1681C85B24FF6FF7000EA4505604836
:102D80000078012801D1681C85B24FF6FF7000EA77
:102D9000450561480078012801D1681C85B24FF6CD
:102DA000FF7000EA45055A480078012801D1681CE7
:102DB00085B24FF6FF7000EA4505ADF80E500025CC
:102DC0007FE2002402A830F815406248405D0828E0
:102DD0001AD2DFE800F0041A61F2F0EFEEED44B928
:102DE0004FF6FF7000EA84145A48405D204484B2D4
:102DF0000AE04FF6FF7000EA841404F1080084B280
:102E00005448405D204484B255E2302C08D14FF63E
:102E1000FF7000EA84144F48405D204484B23AE0D9
:102E200004F0300030280BD14FF6FF7000EA841414
:102E300004F1080084B24748405D204484B22AE08F
:102E400004F0300010280BD14FF6FF7000EA841414
:102E500004F1280084B23F48405D204484B21AE067
:102E600004F0300020280BD14FF6FF7000EA8414E4
:102E700004F1180084B23748405D204484B20AE06F
:102E80004FF6FF7000EA841404F1380084B2314830
:102E9000405D204484B20EE20C2C08D14FF6FF7046
:102EA00000EA84142B48405D204484B27FE004F0A3
:102EB0000C000C2850D14FF6FF7000EA841404F186
:102EC000080084B22348405D204484B26FE00000D3
:102ED0005000002048000020510000204A0000203F
:102EE000520000204C00002053000020540000201D
:102EF00060000020560000206100002058000020E3
:102F0000620000205A000020630000205C000020C6
:102F1000640000205E000020650000202B000020DF
:102F20002A0000202D0000202C0000202F0000206F
:102F30002E0000203D0000203C0000203F0000202B
:102F40003E00002041000020400000204F000020F3
:102F50004E0000201300002004F00C0004280BD1C8
:102F60004FF6FF7000EA841404F1280084B2F4489C
:102F7000405D204484B21AE004F00C0008280BD114
:102F80004FF6FF7000EA841404F1180084B2EC4894
:102F9000405D204484B20AE04FF6FF7000EA8414DA
:102FA00004F1380084B2E648405D204484B282E1F6
:102FB0006AE109E1A7E047E0FFE7032C08D14FF6FB
:102FC000FF7000EA8414DE48405D204484B23AE099
:102FD00004F0030003280BD14FF6FF7000EA8414BD
:102FE00004F1080084B2D648405D204484B22AE04F
:102FF00004F0030004280BD14FF6FF7000EA84149C
:1030000004F1280084B2CE48405D204484B21AE026
:1030100004F0030008280BD14FF6FF7000EA841477
:1030200004F1180084B2C648405D204484B20AE02E
:103030004FF6FF7000EA841404F1380084B2C048EF
:10304000405D204484B236E1BE48007888B924B996
:10305000BB48405D204484B254E04FF6FF7000EA64
:10306000841404F1080084B2B548405D204484B261
:1030700048E0302C0BD14FF6FF7000EA841404F1C5
:10308000080084B2AE48405D204484B23AE004F0C7
:10309000300030280BD14FF6FF7000EA841404F1A1
:1030A000080084B2A648405D204484B22AE004F0BF
:1030B000300010280BD14FF6FF7000EA841404F1A1
:1030C000280084B29E48405D204484B21AE004F097
:1030D000300020280BD14FF6FF7000EA841404F171
:1030E000180084B29648405D204484B20AE04FF64E
:1030F000FF7000EA841404F1380084B29048405D07
:10310000204484B2D7E08F480078A8B944B94FF67C
:10311000FF7000EA84148A48405D204484B252E083
:103120004FF6FF7000EA841404F1080084B284486A
:10313000405D204484B246E00C2C08D14FF6FF706D
:1031400000EA84147E48405D204484B23BE004F0F1
:103150000C000C280BD14FF6FF7000EA841404F128
:10316000080084B27648405D204484B22BE004F02D
:103170000C0004280CD14FF6FF7000EA841404F10F
:10318000280084B26E48405D204484B21BE0D6E043
:1031900004F00C0008280BD14FF6FF7000EA8414ED
:1031A00004F1180084B26648405D204484B20AE00D
:1031B0004FF6FF7000EA841404F1380084B26048CE
:1031C000405D204484B276E05E480078A8B944B9F6
:1031D0004FF6FF7000EA84145948405D204484B2E1
:1031E00051E04FF6FF7000EA841404F1080084B245
:1031F0005348405D204484B245E0032C08D14FF68B
:10320000FF7000EA84144E48405D204484B23AE0E6
:1032100004F0030003280BD14FF6FF7000EA84147A
:1032200004F1080084B24648405D204484B22AE09C
:1032300004F0030004280BD14FF6FF7000EA841459
:1032400004F1280084B23E48405D204484B21AE074
:1032500004F0030008280BD14FF6FF7000EA841435
:1032600004F1180084B23648405D204484B20AE07C
:103270004FF6FF7000EA841404F1380084B230483D
:10328000405D204484B216E00F2C08D14FF6FF7049
:1032900000EA84142A48405D204484B20AE04FF6D4
:1032A000FF7000EA841404F1080084B22448405DF1
:1032B000204484B200BF00BF02A820F81540681C5B
:1032C00085B2042DFFF47DAD01201F4908601F4821
:1032D0000678F6008036761CBDF80800C0B28DF87E
:1032E0000000BDF80800000A8DF80100BDF80A00D2
:1032F000C0B28DF80200BDF80A00000A8DF8030084
:10330000BDF80C00C0B28DF80400BDF80C00000A36
:103310008DF80500BDF80E00C0B28DF80600BDF8AE
:103320000E00000A8DF8070069463046FFF75CF88A
:103330000020074908700749C1F8800100BF7FBD20
:103340001300002008000020800121420A00002014
:103350001C0000200000214200B585B000BF3048AD
:10336000806940F004002E4988610846806900F0B9
:103370000400009000BF00BF00BF0846806940F015
:10338000080088610846806900F00800009000BFCE
:1033900000BF00BF0846806940F010008861084601
:1033A000806900F01000009000BF00BF00BF084619
:1033B000806940F0200088610846806900F02000A4
:1033C000009000BF00BF48F254100190002002900E
:1033D0000120039001A91348FDF70EFD45F2394085
:1033E0000190002002900120039001A90E48FDF7F2
:1033F00003FD45F6D5700190002002900120039056
:1034000001A90A48FDF7F8FC042001900020029071
:103410000120039001A90648FDF7EEFC05B000BDB0
:103420000010024000080140000C01400010014063
:103430000014014002480068C0F3022070470000F9
:103440000CED00E010B5002804DB0A07130E054A56
:10345000135406E00A07140E034A00F00F031B1F63
:10346000D45410BD00E400E018ED00E0FDF79CFE30
:103470004FF4E010FFF73AF847216320FFF76AF8AE
:10348000FCF722FFFEF768FFFEF706FF4FF4FA7124
:103490000420FEF71DFCFFF75FFFFCF7E5FE44F696
:1034A00020603F4908603F49086077E0FEF708FC6C
:1034B0003C48006842F21071B0FBF1F201FB1200CF
:1034C0004910884203D201203749086002E00020F9
:1034D000354908603248006844F62061884239D393
:1034E0002F4800684910B0FBF1F201FB120098B9B7
:1034F0006D202E490870DB204870B62088706D2042
:10350000C870DB200871B62048716D2088710B20CF
:10351000C871FEF7EDFB1DE02148006842F2107112
:10352000B0FBF1F201FB12004910884212D16D206C
:103530001E490870DB204870B62088706D20C87066
:10354000DB200871B62048716D2088711B20C8717E
:10355000FEF7CEFB16480078012819D10020124949
:1035600020390860FEF7C4FB00200D4908601049AF
:10357000087002200F490870FCF7E0FE0E48007842
:1035800000EB80004FF4C87101EB80000B4908800C
:1035900008480078022801D1FFF750F886E70000BC
:1035A0000000002004000020A40121420B000020A4
:1035B000180000201C0000200A0000201A00002033
:1035C00000000000000000000102030406070809D3
:1035D0000000000001020304F8350008000000208C
:1035E00078000000280100087036000878000020EC
:1035F0001007000044010008000000000000000067
:1036000000000000000000000000000000000000BA
:1036100000000000000000000000000000000000AA
:10362000000000000000000000000000000000009A
:10363000000000000000000000000000000000008A
:10364000000000000000000000000000000000007A
:10365000000000000000000000000000000000006A
:103660000024F40000000000100000000100000031
:04000005080000ED02
:00000001FF
