:020000040800F2
:1000000088070020890100088D130008B711000837
:100010008913000839020008A51600080000000036
:10002000000000000000000000000000B9130008FC
:100030003D020008000000008F13000811140008A2
:10004000A3010008A3010008A3010008A301000800
:10005000A3010008A3010008A3010008A3010008F0
:10006000A3010008A3010008A3010008A3010008E0
:10007000A3010008A3010008A3010008A3010008D0
:10008000A3010008A3010008A3010008A3010008C0
:10009000A3010008A3010008A3010008A3010008B0
:1000A000A3010008A3010008A3010008A3010008A0
:1000B000A3010008A3010008A3010008A301000890
:1000C000A3010008A3010008A3010008A301000880
:1000D000A301000865160008A3010008A301000899
:1000E000A3010008A3010008A301000800F002F822
:1000F00000F03AF80AA090E8000C82448344AAF188
:100100000107DA4501D100F02FF8AFF2090EBAE885
:100110000F0013F0010F18BFFB1A43F0010318473B
:100120007016000090160000103A24BF78C878C1FD
:10013000FAD8520724BF30C830C144BF04680C60ED
:10014000704700000023002400250026103A28BF35
:1001500078C1FBD8520728BF30C148BF0B60704739
:100160001FB51FBD10B510BD00F033F81146FFF7E5
:10017000F7FF01F0F1FA00F051F803B4FFF7F2FFD6
:1001800003BC01F0ADFA0000094880470948004768
:10019000FEE7FEE7FEE7FEE7FEE7FEE7FEE7FEE737
:1001A000FEE7FEE704480549054A064B7047000094
:1001B00019140008ED0000088801002088070020BD
:1001C00088030020880300207047704770477047FD
:1001D0007047754600F02CF8AE4605006946534658
:1001E00020F00700854618B020B5FFF7DBFFBDE81B
:1001F00020404FF000064FF000074FF000084FF08E
:10020000000B21F00701AC46ACE8C009ACE8C0091E
:10021000ACE8C009ACE8C0098D46704710B504468B
:10022000AFF300802046BDE81040FFF7A6BF0000F6
:10023000004870472801002000BFFEE770470146D4
:10024000002291F82100022808D00420886300BF12
:10025000002081F8200000BF012070470868006876
:1002600020F00E000B6818600868006820F001009C
:100270000B68186091F8403001209840CB6B5860B3
:10028000012081F8210000BF002081F8200000BF7C
:100290001046E2E770B50446002594F821000228D4
:1002A00003D00420A063012548E02068006820F006
:1002B0000E00216808602068006820F001002168B5
:1002C00008601F492068884201D1012026E01C49AE
:1002D00014312068884201D110201FE018492831CC
:1002E0002068884201D1801518E015493C3120680A
:1002F000884201D1801411E01149503120688842B0
:1003000002D14FF4803009E00D4964312068884201
:1003100002D14FF4801001E04FF080700849083995
:100320004860012084F8210000BF002084F82000EC
:1003300000BF606B10B12046616B8847284670BDD6
:10034000080002402DE9F8470346002294466EE17A
:100350004FF0010808FA02F4D1F8008008EA04001E
:10036000A0427DD1DFF8DCA2D1F80480A8EB0A0915
:10037000D0453AD014DCB8F1030F50D009DCB8F105
:10038000000F31D0B8F1010F1CD0B8F1020F49D1E4
:1003900020E0B8F1110F18D0B8F1120F42D11EE0D1
:1003A000B9F5881F25D006DCB9F5803F20D0B9F516
:1003B000801F37D11AE0B9F5001F18D0B9F5041F16
:1003C00030D117E0D1F80CC02DE0D1F80C8008F145
:1003D000040C28E0D1F80C8008F1080C23E0D1F8D7
:1003E0000C8008F10C0C1EE000BF00BF00BF00BF76
:1003F00000BF00BFD1F80880B8F1000F02D14FF064
:10040000040C0BE0D1F80880B8F1010F03D14FF0D4
:10041000080C1C6102E04FF0080C5C6103E04FF037
:10042000000C00E000BF00BFFF2801D8984601E0A3
:1004300003F104084646FF2802D84FEA820803E089
:10044000A2F108084FEA88084746D6F800804FF026
:100450000F0909FA07F928EA09080CFA07F900E078
:1004600088E048EA0908C6F80080D1F8048008F05E
:100470008058B8F1805F7DD100BFDFF8CC81D8F81B
:10048000188048F00108DFF8C091C9F81880C84604
:10049000D8F8188008F00108CDF8008000BF00BF30
:1004A0004FEAB9384FEA920958F829504FEA827852
:1004B0004FEA18794FF00F0808FA09F825EA0805FD
:1004C000DFF88881434502D14FF0000816E0DFF8DD
:1004D0008081434502D14FF001080FE0DFF87481BD
:1004E000434502D14FF0020808E0DFF86C81434534
:1004F00002D14FF0030801E04FF004084FEA82797F
:100500004FEA197908FA09F848EA0505DFF84C813D
:100510004FEA920948F82950D1F8048008F480384D
:10052000B8F5803F0AD1DFF83881D8F8008048EA72
:100530000008DFF82C91C9F8008009E0DFF820817D
:10054000D8F8008028EA0008DFF81491C9F8008084
:10055000D1F8048008F40038B8F5003F10D1DFF876
:10056000008108F10408D8F8008048EA0008DFF8A4
:10057000F09000E05AE009F10409C9F800800DE0AC
:10058000DFF8DC8008F10408D8F8008028EA0008C9
:10059000DFF8CC9009F10409C9F80080D1F8048093
:1005A00008F48018B8F5801F0ED1DFF8B48008F188
:1005B0000808D8F8008048EA0008DFF8A49009F19C
:1005C0000809C9F800800DE0DFF8948008F10808F8
:1005D000D8F8008028EA0008DFF8849009F10809BB
:1005E000C9F80080D1F8048008F40018B8F5001F9D
:1005F0000ED1DFF86C8008F10C08D8F8008048EACA
:100600000008DFF85C9009F10C09C9F800800DE0E2
:10061000DFF84C8008F10C08D8F8008028EA0008C0
:10062000DFF83C9009F10C09C9F80080521CD1F8A0
:10063000008028FA02F8B8F1000F7FF489AEBDE817
:10064000F88700000000111000100240000801406F
:10065000000C01400010014000140140080001405E
:1006600000040140014800687047000004000020B9
:100670000348006803490978084401490860704745
:10068000040000200C00002010B50848006840F06D
:10069000100006490860032000F070F80F2000F0F9
:1006A00007F800F02BF8002010BD000000200240E9
:1006B00070B504460E4800784FF47A71B1FBF0F043
:1006C0000C490968B1FBF0F5284600F0C1FB08B100
:1006D000012070BD102C07D200222146501E00F0D0
:1006E0000EF80548046001E00120F2E70020F0E781
:1006F0000C000020000000200800002070472DE9B9
:10070000F05F80460D461646002700F0CDFF0746F5
:1007100039462A46334601F00700C0F1070ABAF10C
:10072000040F02D94FF0040A01E0C0F1070AD146D4
:1007300000F1040ABAF1070F02D24FF0000A01E0FB
:10074000A0F1030AD4464FF0010A0AFA09FAAAF105
:10075000010A0AEA020A0AFA0CFA4FF0010B0BFA34
:100760000CFBABF1010B0BEA030B4AEA0B0421462D
:10077000404600F0A1FFBDE8F09F000000BF00F080
:100780000702064B19684FF6FF031940044B0B4351
:1007900043EA0221014B196000BF70470CED00E0F5
:1007A0000000FA0570B504460D460CB9012070BD75
:1007B0005A48006800F00700A8420ED25748006867
:1007C00020F007002843554908600846006800F0FB
:1007D0000700A84201D00120E9E7207800F00200DC
:1007E00002281DD1207800F00400042805D14C48CF
:1007F000406840F4E0604A494860207800F0080012
:10080000082805D14648406840F460504449486093
:100810004348406820F0F000A16808434049486020
:10082000207800F0010078B36068012806D13C48C8
:10083000006800F4003090B90120B8E76068022831
:1008400006D13748006800F0007040B90120AEE7DB
:100850003348006800F0020008B90120A7E73048DB
:10086000406820F00300616808432D494860FFF7A5
:10087000F9FE064609E0FFF7F5FE801B41F28831DC
:10088000884202D9032092E707E02548406800F03B
:100890000C006168B0EB810FEDD12048006800F0DA
:1008A0000700A8420ED91D48006820F00700284321
:1008B0001A4908600846006800F00700A84201D005
:1008C000012074E7207800F00400042807D11448C0
:1008D000406820F4E060E1680843114948602078EE
:1008E00000F00800082808D10D48406820F4605046
:1008F000216940EAC1000A49486000F019F8084936
:100900004968C1F30311074A515CC84006490860B1
:1009100006480068FFF7CCFE002048E700200240B0
:100920000010024076170008000000200800002098
:10093000F0B585B00FF26C0C9CE8E01001A8A0E8BF
:10094000E0101CA52D680095002100220023002442
:100950000020194D696801F00C05F5B1042D02D095
:10096000082D19D101E0154819E001ADC1F3834606
:10097000AC5D01F4803555B10F4D6D68C5F3404550
:100980001DF805200D4D6543B5FBF2F302E00C4D5B
:1009900004FB05F3184602E000BF084800BF00BF93
:1009A00005B0F0BD02030405060708090A0B0C0D8B
:1009B0000E0F1010010200000010024000127A0019
:1009C00000093D00F8B504460CB90120F8BD2078B7
:1009D00000F00100002878D0F848406800F00C00D2
:1009E00004280CD0F548406800F00C00082811D10C
:1009F000F248406800F48030B0F5803F0AD1EF48FB
:100A0000006800F4003000285FD0606800285CD1E6
:100A10000120DBE700BF6068B0F5803F06D1E74802
:100A2000006840F48030E549086028E0606858B903
:100A3000E248006820F48030E04908600846006819
:100A400020F4802008601AE06068B0F5A02F0BD178
:100A5000DA48006840F48020D849086008460068F9
:100A600040F4803008600AE0D448006820F4803008
:100A7000D24908600846006820F48020086000BF62
:100A8000606888B1FFF7EEFD054606E0FFF7EAFD76
:100A9000401B642801D9032098E7C848006800F487
:100AA00000300028F2D010E0FFF7DCFD054606E03C
:100AB000FFF7D8FD401B642801D9032086E7BF4813
:100AC000006800F400300028F2D1207800F0020025
:100AD000022857D1B948406800F00C0050B1B7481F
:100AE000406800F00C00082818D1B448406800F4B1
:100AF000803098B9B148006800F0020020B1206948
:100B0000012801D0012061E7AC48006820F0F8001E
:100B1000616940EAC100A949086033E02069E8B191
:100B20000120A7490860FFF79DFD054606E0FFF795
:100B300099FD401B022801D9032047E79F48006820
:100B400000F002000028F2D09C48006820F0F80075
:100B5000616940EAC1009949086013E000209849A2
:100B60000860FFF77FFD054606E0FFF77BFD401BB1
:100B7000022801D9032029E79048006800F002000C
:100B80000028F2D1207800F0080008282DD1A069B3
:100B9000B8B101208B490860FFF764FD054606E007
:100BA000FFF760FD401B022801D903200EE78348B0
:100BB000406A00F002000028F2D0012000F0E8FBBB
:100BC00013E000207F490860FFF74CFD054606E072
:100BD000FFF748FD401B022801D90320F6E67748BD
:100BE000406A00F002000028F2D1207800F00400F2
:100BF000042873D100277148C06900F0805070B993
:100C000000BF6E48C06940F080506C49C86108461A
:100C1000C06900F08050009000BF00BF01276A4803
:100C2000006800F48070B0B96748006840F48070D4
:100C300065490860FFF716FD054606E0FFF712FD5F
:100C4000401B642801D90320C0E65F48006800F417
:100C500080700028F2D000BFE068012806D1574814
:100C6000006A40F001005549086227E0E06858B981
:100C70005248006A20F00100504908620846006AA4
:100C800020F00400086219E0E06805280BD14B4809
:100C9000006A40F00400494908620846006A40F0D2
:100CA000010008620AE04548006A20F0010043495B
:100CB00008620846006A20F00400086200BFE0688D
:100CC000A0B1FFF7CFFC054609E0FFF7CBFC401BC6
:100CD00041F28831884202D9032077E622E0374882
:100CE000006A00F002000028EFD012E0FFF7BAFC23
:100CF000054608E0FFF7B6FC401B41F28831884208
:100D000001D9032062E62D48006A00F002000028A5
:100D1000F0D1012F05D12948C06920F08050274922
:100D2000C86100BFE069C8B32448406800F00C0007
:100D3000082860D0E069022848D1002020490866D0
:100D4000FFF790FC054606E0FFF78CFC401B0228ED
:100D500001D903203AE61948006800F00070002825
:100D6000F2D1206AB0F5803F07D11448406820F4E2
:100D70000030A168084311494860D4E908010843DC
:100D80000E49496821F4741108430C494860012058
:100D90000B490866FFF766FC054607E03DE0FFF7F4
:100DA00061FC401B022801D903200FE603480068BC
:100DB00000F000700028F2D02FE000000010024088
:100DC000000042428004424200700040002014496A
:100DD0000866FFF747FC054606E0FFF743FC401BAB
:100DE000022801D90320F1E50E48006800F00070E8
:100DF0000028F2D111E0E069012800D1E6E50948B8
:100E0000466806F48031206A814204D106F47011EC
:100E1000606A814201D00120D8E50020D6E50000BB
:100E20000000424200100240042808D14FF0E021A7
:100E3000096941F004014FF0E022116107E04FF031
:100E4000E021096921F004014FF0E02211617047AF
:100E500070B504462546681EB0F1807F01D301209D
:100E60000FE0681E4FF0E02148610F214FF0FF3086
:100E700000F022FC00204FF0E0218861072008618B
:100E8000002070BD7047704701460022002391F892
:100E90003D2091F83E3042EA030070472DE9F84FBB
:100EA0000446206805682068C668206847694FF0D6
:100EB0000009CA4605F00F09B9F1000F0AD105F083
:100EC000200038B106F0200020B1204600F005FBDC
:100ED000BDE8F88FB9F1000F71D007F0010018B923
:100EE00006F4907000286AD005F0010030B106F4D5
:100EF000807018B1206C40F00100206405F00400FF
:100F000030B107F0010018B1206C40F002002064FD
:100F100005F0020030B107F0010018B1206C40F07C
:100F20000400206405F0080048B106F0200010B964
:100F300007F0010018B1206C40F008002064206C1C
:100F400068B305F0200028B106F0200010B120465B
:100F500000F0C3FA20684069C0F3801A206C00F0EA
:100F6000080010B9BAF1000F22D0204600F08AFA2A
:100F70002068406900F04000B0B12068406920F06E
:100F8000400021684861A06B50B15648A16B48638E
:100F9000A06BFFF77FF910B1A06B416B88470CE0A5
:100FA0002046FFF770FF08E02046FFF76CFF04E0E3
:100FB0002046FFF768FF0020206489E7FFE7206BE9
:100FC000012878D105F01000002874D006F0100038
:100FD000002870D000BF00200090206800680090BA
:100FE00020684068009000BF00BF2068406900F0A2
:100FF0004000C0B3A06B006840681FFA80F8B8F1E9
:10100000000F2FD0A08D40452CDDA4F82E80A06BC2
:10101000806920281FD02068C06820F48070216873
:10102000C8602068406920F001002168486120689C
:10103000406920F0400021684861202084F83E008B
:10104000002020632068C06820F010002168C8607C
:10105000A06BFFF7F4F8A08DE28D801A81B22046D4
:10106000FFF710FF34E7FFE7A08DE18D401A1FFA6C
:1010700080F8E08DE8B1B8F1000F1AD02068C068A0
:1010800020F490702168C8602068406920F0010059
:1010900021684861202084F83E00002020632068F9
:1010A000C06820F010002168C86041462046FFF764
:1010B000E9FE0DE7FFE705F0800030B106F08000A3
:1010C00018B1204600F09EFA02E705F0400030B16A
:1010D00006F0400018B1204600F0EFF9F8E600BF36
:1010E000F6E600007114000870B504460D46164679
:1010F00094F83E00202816D105B10EB9012070BD2C
:1011000000BF94F83C00012801D10220F7E701203C
:1011100084F83C0000BF0020206332462946204668
:1011200000F04DFAEBE70220E9E700001D4A0168F4
:10113000914236D11C49098801F4004189BB1A4902
:10114000098801F4804171B1184909780A2903D04E
:101150000021154A118024E01349098841F4004117
:10116000114A11801DE0114909780D2906D10E4957
:10117000098841F480410C4A118012E00B4909783A
:10118000094A1288C2F30D02094B9954064909888D
:10119000491C054A118011460988C72901DD002133
:1011A0001180704700380140180000201A0000200C
:1011B0001C000020704700BFFEE7000000B585B0AE
:1011C00000BF2648806940F0040024498861084631
:1011D000806900F00400009000BF00BF00BF084617
:1011E000806940F0080088610846806900F00800C6
:1011F000009000BF00BF00BF0846806940F01000AB
:1012000088610846806900F01000009000BF00BFB0
:10121000A82001900120029003900320049001A9CE
:101220000F48FFF78FF84AF6020001900120029064
:1012300003900320049001A90A48FFF783F84AF2BB
:101240002A0001900120029003900320049001A93C
:101250000548FFF777F805B000BD00000010024018
:1012600000080140000C01400010014010B50120B1
:101270003F4908604FF47A7000F03EFA01203D4982
:10128000C1F8BC014FF47A7000F036FA01203849F9
:10129000303908604FF47A7000F02EFA0120354999
:1012A000C1F88C014FF47A7000F026FA012032491F
:1012B00008604FF47A7000F01FFA01202F49C1F83E
:1012C00094014FF47A7000F017FA01202B49C1F80D
:1012D0009C014FF47A7000F00FFA01202549C1F803
:1012E00094014FF47A7000F007FA01202449C1F804
:1012F00084014FF47A7000F0FFF901202049C1F811
:10130000AC014FF47A7000F0F7F901201C49C1F8E4
:10131000B4014FF47A7000F0EFF901201849C1F8D8
:10132000BC014FF47A7000F0E7F900201049086022
:101330000F49083108600E49303908600C492839D6
:1013400008600D4908600C49083108600A491031ED
:1013500008600749203908600A49086009492831AE
:1013600008600849303108600549C1F8BC0110BD6A
:10137000B4012242000022428C012142000021429D
:10138000008021428481214200BFFEE77047704700
:1013900008B508490968C9084FF47A72B1FBF2F13F
:1013A0004143009100BF00BF00994A1E00920029EE
:1013B000F9D108BD00000020704730B58FB0054658
:1013C00000240120059000040690002007900220D0
:1013D0000C90C1030D910E9505A8FFF7F3FA044692
:1013E0000CB100BFFEE70F2000900220019000200A
:1013F00002904FF480600390002004900221684620
:10140000FFF7D0F904460CB100BFFEE70FB030BDC6
:1014100010B5FFF72DF910BD1148006840F001002C
:101420000F490860084640680E4908400C4948606A
:10143000084600680C4908400949086008460068E9
:1014400020F4802008600846406820F4FE004860D0
:101450004FF41F008860C80304490860704700000B
:10146000001002400000FFF8FFFFF6FE08ED00E06C
:1014700070B505466C6A0020E085E0842046FFF7E1
:1014800002FD70BD0168C96821F490710268D160E5
:101490000168496921F0010102685161016B01296C
:1014A00005D10168C96821F010010268D1602021CE
:1014B00080F83E1000210163704710B50446206893
:1014C000C06820F040002168C860202084F83D00FA
:1014D0002046FFF76FFE002010BDF8B5044694F8D3
:1014E0003E00222869D1A068B0F5805F0CD1206948
:1014F00050B90025A66A20684068C0F30800308013
:10150000A06A801CA06215E0A56A0026A068B0F55C
:10151000805F03D0A06828B9206918B920684068A6
:10152000287004E02068406800F07F002870A06AFE
:10153000401CA062E08D401E80B2E085A8BB206800
:10154000C06820F020002168C8602068C06820F4CE
:1015500080702168C8602068406920F0010021681F
:101560004861202084F83E00206B01281ED1002015
:1015700020632068C06820F010002168C8602068DF
:10158000006800F0100010280AD100BF0020009071
:1015900020680068009020684068009000BF00BF8D
:1015A000A18D2046FFF76EFC03E004E02046FFF724
:1015B000BDFD0020F8BD0020FCE70220FAE710B5D1
:1015C000034699629A85DA8500201864222083F800
:1015D0003E0000BF002083F83C0000BF1868C068D0
:1015E00040F480701C68E0601868406940F00100B9
:1015F0001C6860611868C06840F020001C68E060EA
:10160000002010BD014691F83D00212828D18868AE
:10161000B0F5805F0BD1086948B90A6A1088C0F339
:1016200008000B685860086A801C086205E00B6AB5
:10163000581C086218780B685860C88C401E80B22D
:10164000C88458B90868C06820F080000B68D8606A
:101650000868C06840F040000B68D8600020704700
:101660000220FCE710B500240C48FFF717FC00BF70
:1016700001E0641C00BF0948FFF706FC2028F8D1F0
:1016800000BF002401E0641C00BF0122044903489C
:10169000FFF72AFD0028F6D100BF10BDE4000020AE
:1016A0001A00002000BFFEE702480068C0F30220D5
:1016B000704700000CED00E010B5002804DB0A07BD
:1016C000130E054A135406E00A07140E034A00F0ED
:1016D0000F031B1FD45410BD00E400E018ED00E020
:1016E00000BF704710B504460420FFF79DFB01487A
:1016F000046010BD1000002030B50446002504E051
:101700004FF47A7000F004F86D1CA542F8D330BD98
:1017100070B5034600224FF0E02675690D4E36681D
:1017200003FB06F44FF0E026B16910E04FF0E0262D
:10173000B06988420BD0884202D20E1A324402E0CD
:101740002E1A0E4432440146A24200D300E0EDE7D7
:1017500000BF70BD10000020FEF796FF4FF4E010B0
:10176000FFF72BFE4820FFF7BDFFFFF727FD01E045
:10177000FFF77CFDFCE70000000000000000010214
:10178000030406070809000000000102030400002A
:10179000B0170008000000201C000000280100080D
:1017A000CC1700081C0000206C0700004401000852
:1017B0000024F40000000000100000000100000000
:0C17C0000000000000000000000000001D
:04000005080000ED02
:00000001FF
