:020000040800F2
:10000000B01E0020CD010008110A0008C509000833
:100010000D0A0008AB02000885150008000000006A
:10002000000000000000000000000000F10B0008CC
:100030009108000800000000990A0008DD0C000883
:10004000E7010008E7010008E7010008E7010008F0
:10005000E7010008E7010008E7010008E7010008E0
:10006000E7010008E7010008E7010008E7010008D0
:10007000E7010008E7010008E7010008E7010008C0
:10008000E7010008E7010008E7010008E7010008B0
:10009000E5110008E7010008E7010008E701000892
:1000A000E7010008E7010008E7010008E701000890
:1000B000AD0D0008E7010008E7010008E7010008AE
:1000C000E7010008E7010008E7010008E701000870
:1000D000E7010008E7010008590F0008E7010008E0
:1000E000E7010008E7010008E7010008E701000850
:1000F000E7010008E7010008E7010008E701000840
:10010000E7010008E7010008E7010008E70100082F
:10011000E7010008E7010008E7010008E70100081F
:10012000E7010008E7010008E7010008E70100080F
:1001300000F002F800F03AF80AA090E8000C8244BF
:100140008344AAF10107DA4501D100F02FF8AFF29C
:10015000090EBAE80F0013F0010F18BFFB1A43F0A5
:1001600001031847C0300000E0300000103A24BFFF
:1001700078C878C1FAD8520724BF30C830C144BF0C
:1001800004680C607047000000230024002500264E
:10019000103A28BF78C1FBD8520728BF30C148BFEA
:1001A0000B6070471FB51FBD10B510BD00F044F8BF
:1001B0001146FFF7F7FF02F04DFD00F062F803B4BF
:1001C000FFF7F2FF03BC00F069F800000948804720
:1001D00009480047FEE7FEE7FEE7FEE7FEE7FEE729
:1001E000FEE7FEE7FEE7FEE704480549054A064B41
:1001F00070470000E10C000831010008B018002031
:10020000B01E0020B01A0020B01A0020B2F1200366
:100210000AD5C2F1200320FA02F001FA03F321FA11
:1002200002F140EA0300704721FA03F04FF00001A9
:100230007047704770477047754600F02BF8AE4620
:1002400005006946534620F00700854618B020B5E2
:10025000FFF7CAFFBDE820404FF000064FF000074F
:100260004FF000084FF0000B21F00701AC46ACE85E
:10027000C009ACE8C009ACE8C009ACE8C0098D46CB
:10028000704710B50446AFF300802046BDE810402B
:10029000FFF795BF004870474C180020014918200F
:1002A000ABBEFEE726000200704700BFFEE700007D
:1002B00010B504460B48844209D10121480600F0DC
:1002C000FDFB00214FF0007000F0F8FB08E0012179
:1002D000880600F0F3FB00214FF0806000F0EEFB99
:1002E00010BD00000064004010B50021837A012297
:1002F00002FA03F13D4A126842F001023B4B1A60D8
:100300003A4A1C3212688A43384B1C331A60027B0B
:10031000CAB9364A0C3212688A43344B0C331A601D
:100320004288C38842EA0343304A4032847A42F822
:1003300034300288838842EA03432C4A4032847A6C
:1003400002EBC4025360027B012A19D1274A0C3206
:1003500012680A43254B0C331A604288038842EA2C
:100360000343224A4032847A42F83430C288838878
:1003700042EA03431D4A4032847A02EBC4025360CE
:10038000C27A3AB9194A121D12688A43174B1B1DCB
:100390001A6006E0154A121D12680A43134B1B1D12
:1003A0001A60028932B9114A143212688A430F4B1B
:1003B00014331A600289012A06D10C4A14321268D9
:1003C0000A430A4B14331A60427B012A06D1074ABA
:1003D0001C3212680A43054B1C331A60034A126828
:1003E00022F00102014B1A6010BD000000660040BF
:1003F0001AB143690B43436102E043698B43436194
:10040000704730B5024600200023146824F002042F
:100410001460146844F00104146000E05B1C54682C
:1004200004F001041CB94FF6FF74A342F6D15468DE
:1004300004F001040CB900206CE08C79012C04D18B
:10044000146844F08004146003E0146824F080040D
:100450001460CC79012C04D1146844F04004146079
:1004600003E0146824F0400414600C7A012C04D1D9
:10047000146844F02004146003E0146824F020049D
:1004800014604C7A012C04D1146844F010041460F8
:1004900003E0146824F0100414608C7A012C04D159
:1004A000146844F00804146003E0146824F008049D
:1004B0001460CC7A012C04D1146844F00404146054
:1004C00003E0146824F0040414608C78A407CD7849
:1004D00044EA05640D7944EA05444D7944EA05543B
:1004E0000D886D1E2C43D461146824F0010414603F
:1004F000002300E05B1C546804F001041CB14FF6BB
:10050000FF74A342F6D1546804F001040CB100203A
:1005100000E0012030BD10B500F5D87303EB0113E6
:100520001B6803F004031372137A53B900F5D873F0
:1005300003EB01131B6840F2FF7404EA535313608A
:1005400009E000F5D87303EB01131B686FF06044FA
:1005500004EAD303536000F5D87303EB01131B685F
:1005600003F00203537200F5D87303EB01135B68C9
:1005700003F00F03937200F5D87303EB01135B686C
:100580001B0AD37400F5D87303EB01139B68D37275
:1005900000F5D87303EB01139B681C0A147300F574
:1005A000D87303EB01139B681C0C547300F5D873CC
:1005B00003EB01139B681B0E937300F5D87303EBD9
:1005C0000113DB68D37300F5D87303EB0113DB6809
:1005D0001C0A147400F5D87303EB0113DB681C0CC0
:1005E000547400F5D87303EB0113DB681B0E93748E
:1005F00021B9C36843F02003C36003E0036943F0FB
:100600002003036110BD0000F0B58BB006460F4615
:1006100000202349087006968DF821008DF82000EF
:1006200008208DF82200002004E03A5C0DF123013F
:100630000A54401C0828F8DB002400BF06A919480A
:1006400000F042F80546601C84B2042D03D147F641
:10065000FF708442F2DB47F6FF70844201D10BB099
:10066000F0BD002401E0601C84B229460D4800F072
:10067000BFF8012803D047F6FF708442F3DB002067
:1006800001908DF80C008DF80E008DF80F00002100
:100690008DF8101001AA0348FFF73DFF00BFDEE709
:1006A000500000200064004000218171C17101727E
:1006B00041728172C1728170C17003210171022186
:1006C000417101210180704710B5024600209368F6
:1006D00003F08063B3F1806F00D110E0936803F002
:1006E0000063B3F1006F01D1012008E0936803F0CB
:1006F0008053B3F1805F01D1022000E00420042880
:1007000074D002F5C07303EB00131B6803F00104FF
:1007100002F5C07303EB00131C600B7A7BB94B7AB4
:100720000C8843EA445302F5C07404EB00142468B7
:10073000234302F5C07404EB0014236010E00B7A2D
:100740004C6843EAC4034C7A234302F5C07404EBBB
:1007500000142468234302F5C07404EB00142360E2
:100760008B7A03F00F038B7202F5C07303EB001357
:100770005B6823F00F0402F5C07303EB00135C60A9
:1007800002F5C07303EB00135B688C7A234302F518
:10079000C07404EB001463608B7B1C064B7B44EA43
:1007A00003440B7B44EA0323CC7A234302F5C07451
:1007B00004EB0014A3608B7C1C064B7C44EA0344CE
:1007C0000B7C44EA0323CC7B234302F5C07404EB87
:1007D0000014E36002F5C07303EB00131B6843F0E1
:1007E000010402F5C07303EB00131C6010BD000090
:1007F00010B50246002321B1012907D002290FD1EB
:1008000009E090681D4C00EA04030BE090681C4C62
:1008100000EA040306E090681A4C00EA040301E0D1
:10082000002300BF00BF184C181BA34216D007DCE2
:1008300083B16FF08060184470B1022818D111E0C4
:10084000B0F5007F10D0114C204448B1B0F5003F06
:100850000ED10BE002230DE000230BE0002309E0A2
:10086000002307E0012305E0012303E0012301E069
:10087000002300BF00BFD8B210BD00000300000479
:100880000003000800000310000100080001FFF74A
:1008900070472DE9F0410246002500260020002384
:1008A0000024002791F803C00CF00F0591F803C055
:1008B0000CF0100CBCF1000F03D091F802C04CEA10
:1008C000050591F800C0BCF1000F31D0146800207C
:1008D0002BE04FF0010C0CFA00F3B1F800C00CEA69
:1008E00003069E4220D183004FF00F0C0CFA03F751
:1008F000BC4305FA03FC4CEA040491F803C0BCF1C4
:10090000280F06D14FF0010C0CFA00FCC2F814C0FD
:100910000AE091F803C0BCF1480F05D14FF0010C7B
:100920000CFA00FCC2F810C0401C0828D1D3146097
:10093000B1F800C0BCF1FF0F34DD546800202EE098
:1009400000F1080C4FF0010808FA0CF3B1F800C0F0
:100950000CEA03069E4221D183004FF00F0C0CFAE3
:1009600003F7BC4305FA03FC4CEA040491F803C006
:10097000BCF1280F05D100F1080C08FA0CF8C2F8F8
:10098000148091F803C0BCF1480F07D100F1080CA6
:100990004FF0010808FA0CF8C2F81080401C082833
:1009A000CED35460BDE8F0810246002093680B402E
:1009B0000BB1012000E0002070470AB1016100E0A6
:1009C0004161704700BFFEE74CF6CC40014908602A
:1009D00070470000003000404AF6AA200149086034
:1009E0007047000000300040014948607047000037
:1009F000003000400149886070470000003000402E
:100A000001490860704700000030004000BFFEE769
:100A10007047000070B5002100230F22C47804B392
:100A2000154C246804F4E064C4F5E064210AC1F1C3
:100A30000403CA40447804FA03F184781440214343
:100A400009010E4C0678A155047804F01F05012415
:100A5000AC4005786D11AD0005F1E025C5F8004109
:100A600009E0047804F01F050124AC40044D067829
:100A7000761145F8264070BD0CED00E000E400E082
:100A800080E100E002490143024A11607047000022
:100A90000000FA050CED00E07047000029B1064A9D
:100AA000D2690243044BDA6104E0034AD26982430B
:100AB000014BDA61704700000010024029B1064A7C
:100AC00012690243044B1A6104E0034A126982432B
:100AD000014B1A61704700000010024029B1064A1C
:100AE00092690243044B9A6104E0034A926982438B
:100AF000014B9A61704700000010024029B1064A7C
:100B0000D2680243044BDA6004E0034AD2688243AD
:100B1000014BDA60704700000010024030B5002140
:100B20000022002400232D4D6D6805F00C0121B139
:100B3000042905D0082923D105E0294D056022E0CC
:100B4000274D05601FE0254D6D6805F47012234D9B
:100B50006D6805F48034022505EB92421CB9214DE5
:100B6000554305600BE01D4D6D6805F400351DB162
:100B70001C4D5543056002E0194D5543056002E0E8
:100B8000174D056000BF00BF144D6D6805F0F00102
:100B90000909154D6B5C0568DD4045600F4D6D68BA
:100BA00005F4E061090A104D6B5C4568DD40856025
:100BB0000A4D6D6805F46051C90A0B4D6B5C4568C0
:100BC000DD40C560054D6D6805F44041890B074D5A
:100BD0006B5CC568B5FBF3F5056130BD00100240E4
:100BE00000127A0000093D000000002010000020E3
:100BF000704710B500F002F810BD00000CB50020E1
:100C0000019000903348006840F48030314908601A
:100C100000BF3048006800F4003000900198401C8C
:100C20000190009818B90198B0F5A06FF1D129484A
:100C3000006800F4003010B10120009001E00020B5
:100C400000900098012843D12348006840F010002C
:100C5000214908600846006820F003000860084643
:100C6000006840F0020008601A484068194948606E
:100C70000846406848600846406840F48060486024
:100C80000846406820F47C1048600846406840F4FC
:100C9000E81048600846006840F08070086000BFB7
:100CA0000C48006800F000700028F9D0094840683E
:100CB00020F00300074948600846406840F0020001
:100CC000486000BF0348406800F00C000828F9D1D4
:100CD0000CBD0000001002400020024070470000E0
:100CE00010B51348006840F001001149086008463B
:100CF0004068104908400E494860084600680E499F
:100D000008400B4908600846006820F4802008600D
:100D10000846406820F4FE0048604FF41F008860D9
:100D2000FFF767FF4FF000600449086010BD000046
:100D3000001002400000FFF8FFFFF6FE08ED00E0A3
:100D40007FB505460C4601210846FFF7A7FE0121A5
:100D5000880700F085F8ADF80850ADF80440002091
:100D6000ADF80A00ADF8060001A94FF0804000F090
:100D7000A1F801221146900700F092F8012188079E
:100D800000F071F84FF4E060FFF77CFE1C208DF856
:100D9000000003208DF801008DF8020001208DF87D
:100DA00003006846FFF736FE7FBD000010B5012145
:100DB000880700F064F8002845D00121880700F07A
:100DC0004FF821480068401C1F4908600846006829
:100DD00046F2A811884203D343F698201A490860C6
:100DE0001A480068401C194908600846006844F623
:100DF0002061884202D348101449086012480068F4
:100E000043F69821884207D31148008800281ADD4C
:100E100010480078012816D10F48007898B90B487F
:100E200000685021B0FBF1F201FB1200292805D225
:100E3000012240210948FFF7C0FD04E000224021C3
:100E40000648FFF7BAFD10BD14000020180000206E
:100E50003800002040000020410000200010014028
:100E6000CA430282704721B1028842F00102028027
:100E700004E002884FF6FE731A400280704730B5D6
:100E80000246002000230024158A05EA0103958903
:100E900005EA010413B10CB1012000E0002030BDCF
:100EA0001AB183890B43838102E083898B43838159
:100EB00070470000002202881D4B98420ED01D4B47
:100EC00098420BD0B0F1804F08D01B4B984205D010
:100ED0001A4B984202D01A4B984204D14FF68F73A6
:100EE0001A404B881A43174B984207D0164B98422A
:100EF00004D04FF6FF431A40CB881A4302808B88F8
:100F000083850B8803850A4B98420BD0094B984286
:100F100008D00E4B984205D00D4B984202D00D4B95
:100F2000984201D10B7A0386012383827047000027
:100F3000002C014000340140000400400008004043
:100F4000000C004000100040001400400040014030
:100F5000004401400048014010B540F225510848C6
:100F600000F07BF858B1064800F032F9C4B20548E9
:100F700001780078401C034A10700348445410BDA7
:100F8000004400403D0000208B14002021B18289E4
:100F900042F40052828104E082894DF6FF731A40C8
:100FA0008281704710B504462048844209D101214E
:100FB0008803FFF7A3FD00214FF48040FFF79EFD5B
:100FC00032E01B48844209D101214804FFF776FD35
:100FD00000214FF40030FFF771FD25E015488442F1
:100FE00009D101218804FFF769FD00214FF4802019
:100FF000FFF764FD18E01048844209D10121C804BC
:10100000FFF75CFD00214FF40020FFF757FD0BE0D8
:101010000A48844208D101210805FFF74FFD00214D
:101020004FF48010FFF74AFD10BD0000003801406A
:101030000044004000480040004C00400050004088
:1010400002460020B1F5007F00D100BF13880B409D
:101050000BB1012000E00020704770B5024600246B
:1010600000230025002040F66A16B14200D100BFDF
:10107000C1F3421501F01F03012606FA03F3012D07
:1010800002D19689334006E0022D02D1168A334000
:1010900001E0968A33400C12012606FA04F4168801
:1010A000344013B10CB1012000E0002070BDF0B558
:1010B0000346002400260025002040F66A17B942A6
:1010C00000D100BF1846C1F3421401F01F060127EA
:1010D00007FA06F5012C01D10C3004E0022C01D1F5
:1010E000103000E014301AB107682F43076002E0A7
:1010F0000768AF430760F0BD2DE9F04786B00546AD
:101100000E460024A24600BFA1460027B08900B1C8
:1011100000BF2F462C8A4CF6FF700440F088044331
:101120002C82AC894EF6F3100440B0883189084314
:10113000718908430443AC81AC8A4FF6FF400440F8
:10114000B0890443AC8201A8FFF7E8FC1F4887423E
:1011500002D1DDF810A001E0DDF80CA0A88900F4B0
:10116000004040B10AEBCA0000EB0A1031684900A8
:10117000B0FBF1F807E00AEBCA0000EB0A10316897
:101180008900B0FBF1F86420B8FBF0F004012009FD
:10119000642101FB1089A88900F4004040B132208D
:1011A00000EBC900B0FBF1F000F00700044308E0D9
:1011B000322000EB09106421B0FBF1F000F00F00C9
:1011C00004432C8106B0BDE8F087000000380140E0
:1011D00001468888C0F308007047C1F30802828086
:1011E0007047000030B585B00020009001908DF868
:1011F00008008DF80A008DF8130000BF04E00022FB
:101200000DF10B010A54401C0828F8DB00218DF871
:101210000C106A46C448FFF77EF99DF808000028C4
:1012200071D10098C0F3C310C04908700098C0F392
:101230004110BF490860009800F01F00BD490870C8
:10124000BD48006843F69821884204D301229102E8
:10125000BA48FFF7B2FBB548007878BB012291028B
:10126000B648FFF7AAFBB2480068022813D1002055
:1012700007E00DF10B010A5CB14B00F108015A5473
:10128000401C0828F5DB0120AE490870A948007809
:10129000AD49087045E1A64800680128FAD1002050
:1012A00005E00DF10B01095CA54A1154401C08280A
:1012B000F7DBA0480078A549087032E1FFE79B48BA
:1012C0000078012820D10098C0F3C3009949087024
:1012D0000120097801EBC10202EB41119C4A5054F4
:1012E00000200DE00DF10B010A5C9249097801EB39
:1012F000C10303EB4111964B1944491C0A54401C8D
:101300000828EFDB0DE11DE0884800780328C1D1F3
:101310000098C0F380108F4908700098C0F3401007
:101320008D4908700098C0F300108C49087000982F
:10133000C0F3C0008A4908700098C0F38000894952
:101340000870EEE09DF808000428A3D10198C0F3CE
:10135000426076490870019820F07E407449086028
:1013600072480078022895D10846006800284ED1BE
:101370009DF80E007C49086008460068000208607D
:101380009DF80D0009680844774908600846006820
:10139000000208609DF80C00096808447249086062
:1013A00008460068000208609DF80B0009680844C0
:1013B0006D4908609DF810006C4908800846008857
:1013C0004FF6FF7101EA0020684908809DF80F0080
:1013D00009880844654908809DF81200644908801E
:1013E000084600884FF6FF7101EA00206049088036
:1013F0009DF81100098808445D4908805B48008811
:10140000A0289EDD002008805849088089E04848CF
:10141000006857490988884293D84548007800F009
:101420000100E8B900240EE00DF10B00025D404818
:101430000068401E40084F4901EB0010401C04F1B9
:1014400008014254641C072CEEDB9DF8121038484A
:101450000068401E4008474A02EB0010017010E08F
:1014600000240CE00DF10B00015D31480068401EC6
:101470004008404A02EB0010401C0155641C082C37
:10148000F0DB2B4800683A490988884249D100209E
:1014900039490860002418E000250AE0354800EBCF
:1014A0000410401C405D3449096808443249086012
:1014B0006D1C0F2DF2DB2F4800EB041000782E4935
:1014C000096808442C490860641C28480088844244
:1014D000E2DB2948006824490968884221D10024B8
:1014E00017E0244800EB04100078244901EB0411B4
:1014F000087000250AE01F4800EB0410401C415D05
:101500001E4800EB0410401C41556D1C0F2DF2DBF2
:10151000641C164800888442E3DB1448008818499C
:10152000088005B030BD00000064004021000020AC
:10153000240000202A00002014000020000C01409C
:101540006C0000201C0000202D0000202C0000203A
:10155000B31400204000002042000020440000207E
:101560004300002041000020300000203400002013
:10157000360000208B0A0020540000208B00002041
:101580003800002000BFFEE710B5044645F2555074
:10159000FFF736FA0320FFF727FA2046FFF72AFA6B
:1015A000FFF71AFAFFF710FA10BD00001CB56148EA
:1015B0000068642805D100224FF480615E48FFF77F
:1015C000FCF95C480068B0F5C87F04D10122D10263
:1015D0005948FFF7F2F957480068B0F5966F7DD388
:1015E0005648807804287ADD0A24E4008034641C9C
:1015F0005248C0788DF80700504800798DF80600F1
:101600004E4840798DF805004C4880798DF80400EB
:1016100000208DF803008DF802008DF801008DF890
:101620000000474800884749098808444549088020
:10163000088800EBD0714910424A1180104600889A
:10164000B0F5805F0EDA00208DF800003E4800788B
:10165000401C3D49087008460078042808DD042035
:10166000087005E001208DF8000000203649087060
:10167000344800883549088031480088344908805A
:10168000344800882F490988084433490880334882
:1016900000882B49098808443149088000202949DD
:1016A0000880274908802B4908802C490880264853
:1016B0000078042805DA9DF80000801CC0B28DF87F
:1016C000000028480078012805D19DF80000001D81
:1016D000C0B28DF800002448007801E028E01FE047
:1016E000012805D19DF800000830C0B28DF8000037
:1016F0001E480088002805DD9DF800001030C0B2AB
:101700008DF800009DF800001949087069462046D0
:10171000FEF77AFF00224FF400610748FFF74DF90A
:101720000020144908701448008808B901F076FCBC
:101730001CBD000014000020000C01408B14002090
:1017400048000020460000204E00002060000020DD
:10175000620000204A000020640000204C000020AD
:1017600066000020410000204000002038000020DA
:10177000680000202B0000203E0000202DE9F04FE3
:101780008DB000252CE0FE480078284100F00100D3
:1017900038B1012005EB051101EB4101F94A505424
:1017A00006E0002005EB051101EB4101F54A50541C
:1017B000F5480078284100F0010040B10121681D82
:1017C00000EB001000EB4000EE4A115407E000214E
:1017D000681D00EB001000EB4000EA4A11546D1C3C
:1017E000052DD0DB002501F056B905EB051000EB07
:1017F0004000E449085C012841F04C8105EBC5003C
:1018000000EB4510E149085C00BB05EB051000EB5F
:101810004000DC4908448078401C05EB051101EBD1
:101820004101D84A1144887005EB051000EB4000D7
:101830001146084480780C2841F32C810020D449BB
:101840000870D44908700DB0BDE8F08F002006463E
:101850000746002411E0380240EA1667360205EB1D
:10186000C50000EB4510C9490844401CC4F10701FC
:10187000405C861947F10007641C082CEBDB002450
:101880009EE02201B046B94640464946FEF7BEFCFE
:1018900007210840C1B205EBC50000EB4510BB4A6B
:1018A000104409300155032000EB0412B246BB4638
:1018B00050465946FEF7AAFC01210840C1B205EB8B
:1018C000C50000EB4510B14A10440D30015506200B
:1018D00000EB041230463946CDE90B76FEF796FC54
:1018E00001210840C1B205EBC50000EB4510A74A35
:1018F000104415300155072000EB041230463946DC
:10190000CDE90976FEF782FC01210840C1B205EB62
:10191000C50000EB45109D4A1044113001550820C8
:1019200000EB041230463946CDE90776FEF76EFC2F
:1019300001210840C1B205EBC50000EB4510934AF8
:1019400010441D300155092000EB04123046394681
:10195000CDE90576FEF75AFC01210840C1B205EB3E
:10196000C50000EB4510894A1044193001550A2082
:1019700000EB041230463946CDE90376FEF746FC0B
:1019800001210840C1B205EBC50000EB45107F4ABC
:101990001044253001550B2000EB04123046394627
:1019A000CDE90176FEF732FC01210840C1B205EB1A
:1019B000C50000EB4510754A104421300155641CE8
:1019C000042CFFF65EAF0024FEE305EBC50000EB40
:1019D00045106E4908440930005D00287ED105EBB2
:1019E000C50000EB451008441530005D012824D1E6
:1019F00005EB051000EB4000624908442730005D0C
:101A0000401CC1B205EB051000EB40005D4A1044DC
:101A10002730015505EB051000EB40001146084446
:101A20002730005D0C2811DD0C2105EB051000EBC3
:101A3000400010442730015508E0002105EB051057
:101A400000EB40004F4A10442730015505EBC5001C
:101A500000EB45104D4908441130005D012824D1A8
:101A600005EB051000EB4000464908441B30005DC3
:101A7000401CC1B205EB051000EB4000414A104488
:101A80001B30015505EB051000EB400011460844E2
:101A90001B30005D0C2811DD0C2105EB051000EB5F
:101AA000400010441B30015508E0002105EB0510F3
:101AB00000EB4000334A10441B30015505EBC500D4
:101AC00000EB4510314908441D30005D012826D146
:101AD00005EB051000EB40002A4900E0DEE0084479
:101AE0002B30005D401CC1B205EB051000EB40003F
:101AF000244A10442B30015505EB051000EB400043
:101B0000114608442B30005D0C2811DD0C2105EB3B
:101B1000051000EB400010442B30015508E0002177
:101B200005EB051000EB4000164A10442B30015520
:101B300005EBC50000EB4510144908441930005D61
:101B4000012831D105EB051000EB40000D49084498
:101B50001F30005D401CC1B205EB051000EB4000DA
:101B6000084A10441F30015505EB051000EB4000FA
:101B7000114608441F30005D0C281EDD0C210BE0CF
:101B80002C0000204D1600202D000020B314002052
:101B9000400000204100002005EB051000EB400054
:101BA00010441F30015508E0002105EB051000EB43
:101BB0004000FE4A10441F30015505EBC50000EB04
:101BC0004510FB4908442530005D012824D105EB70
:101BD000051000EB4000F54908442F30005D401C23
:101BE000C1B205EB051000EB4000F04A10442F3065
:101BF000015505EB051000EB4000114608442F305D
:101C0000005D0C2811DD0C2105EB051000EB4000F8
:101C100010442F30015508E0002105EB051000EBC2
:101C20004000E24A10442F30015505EBC50000EB9F
:101C30004510DF4908442130005D012824D105EB1F
:101C4000051000EB4000D94908442330005D401CDA
:101C5000C1B205EB051000EB4000D44A104423301C
:101C6000015505EB051000EB4000114608442330F8
:101C7000005D0C2807DD0C2105EB051000EB400092
:101C80001044233001551CE2002105EB051000EB48
:101C90004000C64A104423300155F4E705EBC50067
:101CA00000EB4510C24908440930005D012808D006
:101CB00005EBC50000EB451008440930005D042821
:101CC0007ED105EBC50000EB4510B949084415303D
:101CD000005D012831D105EB051000EB4000B34950
:101CE00008442730005D401CC1B205EB051000EB35
:101CF0004000AE4A10442730015505EB051000EBBB
:101D00004000114608442730005D0C281EDD0C21E0
:101D100005EB051000EB4000104427300155A548A5
:101D20000078012812D1A448007801280ED10020A3
:101D3000A2490870A249087085E5002105EB05104D
:101D400000EB4000994A10442730015505EBC500CF
:101D500000EB4510964908441130005D012833D14D
:101D600005EB051000EB4000904908441B30005D76
:101D7000401CC1B205EB051000EB40008B4A10443B
:101D80001B30015505EB051000EB400011460844DF
:101D90001B30005D0C2820DD0C2105EB051000EB4D
:101DA000400010441B30015582480078012814D1AE
:101DB00084480078012810D100208049087000E094
:101DC00030E17F4908703EE5002105EB051000EB8E
:101DD0004000764A10441B30015505EBC50000EB6E
:101DE0004510734908441D30005D012831D105EBD1
:101DF000051000EB40006D4908442B30005D401C8D
:101E0000C1B205EB051000EB4000684A10442B30CE
:101E1000015505EB051000EB4000114608442B303E
:101E2000005D0C281EDD0C2105EB051000EB4000C9
:101E300010442B3001555F480078012812D15E48CC
:101E4000007801280ED100205C4908705C490870B8
:101E5000F9E4002105EB051000EB4000534A104463
:101E60002B30015505EBC50000EB451050490844E7
:101E70001930005D012831D105EB051000EB400061
:101E80004A4908441F30005D401CC1B205EB0510F3
:101E900000EB4000454A10441F30015505EB05108A
:101EA00000EB4000114608441F30005D0C281EDD89
:101EB0000C2105EB051000EB400010441F300155CC
:101EC0003C480078012812D13E48007801280ED104
:101ED00000203A4908703A490870B4E4002105EB43
:101EE000051000EB4000314A10441F30015505EB4E
:101EF000C50000EB45102E4908442530005D88BB25
:101F000005EB051000EB4000284908441730005D40
:101F1000401CC1B205EB051000EB4000234A104401
:101F20001730015505EB051000EB40001146084441
:101F30001730005D0C281FDD0C2105EB051000EBB0
:101F400040001044173001551A480078012813D179
:101F50001948007801280FD1002018490870184945
:101F6000087070E4FFE7002105EB051000EB40006E
:101F70000E4A10441730015505EBC50000EB451023
:101F80000B4908442130005DF0BB05EB051000EB68
:101F90004000064908440B30005D401CC1B205EB0F
:101FA000051000EB4000014A10440DE04D160020E2
:101FB000B314002042000020430000204000002015
:101FC00041000020440000200B30015505EB0510B6
:101FD00000EB4000114608440B30005D0C2870DD1A
:101FE0000C2105EB051000EB400010440B300155AF
:101FF000FE480078012864D1FD4800780128FAD114
:102000000020FC49087000E002E0FB4908701AE477
:10201000002105EB051000EB4000F84A10440B309E
:10202000015530E605EBC50000EB4510F4490844C6
:102030000930005D022808D005EBC50000EB451013
:1020400008440930005D05287ED105EBC50000EB92
:102050004510EB4908441530005D012832D105EBED
:10206000051000EB4000E54908442730005D401CA6
:10207000C1B205EB051000EB4000E04A10442730E8
:10208000015505EB051000EB4000114608442730D0
:10209000005D0C281FDD0C2105EB051000EB400056
:1020A000104427300155D1480078012813D1D54874
:1020B000007801280FD10020CE490870CE49087061
:1020C0003AE665E1002105EB051000EB4000CB4A44
:1020D00010442730015505EBC50000EB4510C849F9
:1020E00008441130005D012833D105EB051000EBE9
:1020F0004000C24908441B30005D401CC1B205EBE2
:10210000051000EB4000BD4A10441B30015505EBA3
:10211000051000EB4000114608441B30005D0C2800
:1021200020DD0C2105EB051000EB400010441B30B6
:102130000155AE480078012814D1AD480078012837
:1021400010D10020AB4900E023E10870AA490870D3
:10215000F2E5002105EB051000EB4000A74A104412
:102160001B30015505EBC50000EB4510A4490844A0
:102170001D30005D48BB05EB051000EB40009F499A
:1021800008441330005D401CC1B205EB051000EBA4
:1021900040009A4A10441330015505EB051000EB3E
:1021A0004000114608441330005D0C2821DD0C214D
:1021B00005EB051000EB40001044133001558B482F
:1021C0000078012815D101E0FDE309E08D48007891
:1021D00001280ED100208749087087490870ABE5B7
:1021E000002105EB051000EB4000844A1044133039
:1021F000015505EBC50000EB451081490844193035
:10220000005D88BB05EB051000EB40007B490844EE
:10221000C01D005D401CC1B205EB051000EB400085
:10222000764A1044C01D015505EB051000EB400037
:1022300011460844C01D005D0C281FDD0C2105EB74
:10224000051000EB40001044C01D015567480078A0
:10225000012813D16648007801280FD10020654974
:1022600008706549087067E5FFE7002105EB051078
:1022700000EB4000614A1044C01D015505EBC5004C
:1022800000EB45105E4908442530005D012831D13E
:1022900005EB051000EB4000584908442F30005D65
:1022A000401CC1B205EB051000EB4000534A10443E
:1022B0002F30015505EB051000EB40001146084496
:1022C0002F30005D0C281EDD0C2105EB051000EB06
:1022D000400010442F30015544480078012812D1A5
:1022E0004848007801280ED1002042490870424930
:1022F000087021E5002105EB051000EB40003F4A86
:1023000010442F30015505EBC50000EB45103C494A
:1023100008442130005D012831D105EB051000EBA8
:102320004000364908442330005D401CC1B205EB33
:10233000051000EB4000314A10442330015505EBF5
:10234000051000EB4000114608442330005D0C28C6
:102350001EDD0C2105EB051000EB4000104423307E
:10236000015522480078012812D12148007801281F
:10237000FAD100201F4908701F490870DCE40021D1
:1023800005EB051000EB40001C4A104423300155BA
:102390007BE305EBC50000EB451019490844093003
:1023A000005D032808D005EBC50000EB451008448C
:1023B0000930005D06287DD105EBC50000EB451016
:1023C0000F4908441530005DF0BB05EB051000EB2C
:1023D00040000A4908440F30005D401CC1B205EBC3
:1023E000051000EB4000054A10440DE042000020BB
:1023F0004400002040000020410000204D16002035
:10240000B3140020430000200F30015505EB0510E8
:1024100000EB4000114608440F30005D0C2820DD21
:102420000C2105EB051000EB400010440F30015566
:10243000FD480078012814D1FC480078012810D10B
:102440000020FB49087000E002E0FA49087073E4DC
:10245000002105EB051000EB4000F74A10440F3057
:10246000015505EBC50000EB4510F4490844113057
:10247000005D98BB05EB051000EB4000EE490844F9
:10248000C01C005D401CC1B205EB051000EB400014
:10249000E94A1044C01C015505EB051000EB400053
:1024A00011460844C01C005D0C2821DD0C2105EB01
:1024B000051000E031E100EB40001044C01C015564
:1024C000D9480078012813D1DD48007801280FD1C0
:1024D0000020D7490870D74908702DE4FFE7002194
:1024E00005EB051000EB4000D34A1044C01C015519
:1024F00005EBC50000EB4510D04908441D30005DD8
:10250000012831D105EB051000EB4000CA49084411
:102510002B30005D401CC1B205EB051000EB400004
:10252000C54A10442B30015505EB051000EB400067
:10253000114608442B30005D0C281EDD0C2105EBF4
:10254000051000EB400010442B300155B6480078D0
:10255000012812D1B548007801280ED10020B449D5
:102560000870B44908702EE4002105EB051000EB5B
:102570004000B14A10442B30015505EBC50000EB7B
:102580004510AE4908441930005D012831D105EBF2
:10259000051000EB4000A84908441F30005D401CB6
:1025A000C1B205EB051000EB4000A34A10441F30F8
:1025B000015505EB051000EB4000114608441F30A3
:1025C000005D0C281EDD0C2105EB051000EB400022
:1025D00010441F30015594480078012812D19848C2
:1025E000007801280ED100209149087091490870A7
:1025F0002EE4002105EB051000EB40008E4A10444C
:102600001F30015505EBC50000EB45108B49084410
:102610002530005D012831D105EB051000EB4000AD
:10262000854908442F30005D401CC1B205EB051000
:1026300000EB4000804A10442F30015505EB051097
:1026400000EB4000114608442F30005D0C281EDDD1
:102650000C2105EB051000EB400010442F30015514
:1026600071480078012812D17048007801280ED1F5
:1026700000206F4908706F4908702EE4002105EBB7
:10268000051000EB40006C4A10442F30015505EB5B
:10269000C50000EB4510694908442130005D012860
:1026A00031D105EB051000EB4000634908442330AD
:1026B000005D401CC1B205EB051000EB40005E4A16
:1026C00010442330015505EB051000EB4000114686
:1026D00008442330005D0C281EDD0C2105EB05109D
:1026E00000EB40001044233001554F48007801288A
:1026F00012D1534800780128FAD100204C490870C3
:102700004C4908702DE4002105EB051000EB40005A
:10271000494A104423300155B7E105EBC50000EBF1
:102720004510464908440930005D0728F4D105EBFF
:10273000C50000EB451008441530005D88BB05EB73
:10274000051000EB40003C4908440F30005D401C80
:10275000C1B205EB051000EB4000374A10440F30C2
:10276000015505EB051000EB4000114608440F3001
:10277000005D0C281FDD0C2105EB051000EB40006F
:1027800010440F30015528480078012813D12748FC
:10279000007801280FD100202549087025490870CC
:1027A00035E4FFE7002105EB051000EB4000224A6D
:1027B00010440F30015505EBC50000EB45101F49D3
:1027C00008441130005DE8BB05EB051000EB40004C
:1027D00019490844C01C005D401CC1B205EB05103E
:1027E00000EB4000144A1044C01C015505EB0510D5
:1027F00000EB400011460844C01C005D0C282EDD93
:102800000C2105EB051000EB40001044C01C0155E5
:1028100005480078012822D10948007801281ED1F6
:102820000020034908700EE0420000204300002011
:1028300040000020410000204D160020B31400206D
:102840004400002002E09649087039E4002105EBBD
:10285000051000EB4000934A1044C01C015505EBE5
:10286000C50000EB4510904908441D30005D88BB51
:1028700005EB051000EB40008A4908441330005D69
:10288000401CC1B205EB051000EB4000854A104426
:102890001330015505EB051000EB400011460844CC
:1028A0001330005D0C281FDD0C2105EB051000EB3B
:1028B00040001044133001557C480078012813D1A2
:1028C0007B48007801280FD100207A4908707449AC
:1028D00008703DE4FFE7002105EB051000EB400028
:1028E000704A10441330015505EBC50000EB45104C
:1028F0006D4908441930005D88BB05EB051000EBFD
:10290000400068490844C01D005D401CC1B205EB91
:10291000051000EB4000634A1044C01D015505EB53
:10292000051000EB400011460844C01D005D0C2856
:102930001FDD0C2105EB051000EB40001044C01D0D
:1029400001555A480078012813D15B4800780128C6
:102950000FD1002057490870514908703FE4FFE744
:10296000002105EB051000EB40004E4A1044C01D4D
:10297000015505EBC50000EB45104B4908442530D7
:10298000005D012833D105EB051000EB40004549FF
:1029900008442F30005D401CC1B205EB051000EB70
:1029A0004000404A10442F30015505EB051000EB64
:1029B0004000114608442F30005D0C2820DD0C211A
:1029C00005EB051000E061E000EB400010442F3003
:1029D000015536480078012812D135480078012881
:1029E0000ED10020334908702D4908703BE40021C6
:1029F00005EB051000EB40002A4A10442F3001552A
:102A000005EBC50000EB4510274908442130005D67
:102A1000012831D105EB051000EB400021490844A5
:102A20002330005D401CC1B205EB051000EB4000F7
:102A30001C4A10442330015505EB051000EB400003
:102A4000114608442330005D0C281EDD0C2105EBE7
:102A5000051000EB40001044233001551348007866
:102A6000012812D11448007801280ED10020114904
:102A700008700B4908703CE4002105EB051000EBE1
:102A80004000084A104423300155641C042CFEF613
:102A90009CAF00BF6D1C0A2DFEF6A7AE00BF28E458
:102AA000410000204D160020B314002042000020F9
:102AB00043000020400000204400002010B50446E0
:102AC000E1B20548FEF789FB00BF80210248FEF70E
:102AD000B7FA0028F9D010BD0044004000B589B015
:102AE00001214806FDF7DAFF01210420FDF7F6FF7A
:102AF0004FF40060ADF81C0048208DF81F00032043
:102B00008DF81E0007A93348FDF7C3FE4FF480502F
:102B1000ADF81C0018208DF81F0003208DF81E0052
:102B200007A92C48FDF7B5FE2B48FDF7C1FB04A80B
:102B3000FDF7BAFD00208DF816008DF817008DF80E
:102B400018008DF819008DF81A008DF81B008DF80B
:102B500012008DF8130001208DF814008DF8150077
:102B60000C20ADF8100004A91B48FDF74AFC00201A
:102B70008DF80A008DF80B0001208DF80C00002064
:102B8000ADF80000ADF80200ADF80400ADF80600A5
:102B9000ADF8080001208DF80D006846FDF7A4FB94
:102BA0004FF4E060FDF76EFF14208DF82000022046
:102BB0008DF821008DF8220001208DF8230008A84F
:102BC000FDF728FF012202210348FDF711FC09B09F
:102BD00000BD0000000801400064004008B501216C
:102BE0000820FDF77BFF40F60240ADF8000003200F
:102BF0008DF8020010208DF8030069461348FDF798
:102C000048FE01211020FDF769FF4020ADF80000CB
:102C100003208DF8020010208DF8030069460C484F
:102C2000FDF737FE01211020FDF758FF4FF48060BB
:102C3000ADF8000003208DF8020048208DF8030055
:102C400069460348FDF725FE08BD0000000C014061
:102C5000001001400020A8490860FFF7BFFFFFF700
:102C60003DFF4FF47A70FEF78FFC4FF4B4711420DF
:102C7000FEF766F800F07EFA0020A0490880A0491F
:102C80000870A049087000F0C9F900209E4908802A
:102C900001209E49087000209D4908702AE1FDF737
:102CA0009BFE9548006842F21071B0FBF1F201FB07
:102CB00012004910884205D2012202219548FDF7F1
:102CC0007CFE04E0002202219248FDF776FE924845
:102CD0000078012814D100F033F98B480088401C9B
:102CE0008949088008460088042801DB0020088004
:102CF00000208A49086088490870022088490870C5
:102D000087480078022801D1FEF750FC7B480088F4
:102D100000287DDD7D480078012879D17F48006852
:102D200044F25C41884219D10122D1027948FDF771
:102D300044FE00224FF480617648FDF73EFE0120FC
:102D400000F088F900224FF400617248FDF735FE6B
:102D5000012291026F48FDF730FE82E06F48006863
:102D600044F62061884219D10122D1026948FDF759
:102D700024FE00224FF480616648FDF71EFE02200B
:102D800000F068F900224FF400616248FDF715FE7B
:102D9000012291025F48FDF710FE62E05F48006883
:102DA00045F2E47188423BD10122D1025948FDF736
:102DB00004FE00224FF480615648FDF7FEFD03201B
:102DC00000F048F900224FF400615248FDF7F5FD8C
:102DD000012291024F48FDF7F0FD4A480078401C5F
:102DE000484908704F485049098800EB01100078A5
:102DF00044490978884234DC0020424908704A4836
:102E00000088401C48490880084600883B4900E08B
:102E10003AE00988884224DB00204349088020E00A
:102E20003E48006843F6982188421AD100F0F6F82F
:102E30000122D1023748FDF7C0FD00224FF4806126
:102E40003448FDF7BAFD002000F004F900224FF4E9
:102E500000613048FDF7B1FD012291022D48FDF7D8
:102E6000ACFD2E48006840F6C411B0FBF1F201FB46
:102E70001200B0F57A7F07D12848006843F6982100
:102E8000884201D3FEF77AFC24480068B0F5966FBB
:102E900015D222480068B0F5167F10D94FF4806132
:102EA0002248FDF781FD28B921480088401C2049AF
:102EB000088004E01F480088401C1E49088017480D
:102EC0000068B0F5167F15D914480068B0F5966F04
:102ED00010D24FF480611548FDF766FD28B91648F9
:102EE0000088401C1449088004E014480088401CF5
:102EF00012490880D3E600001800002038000020A6
:102F00002A0000203C0000203E000020400000205D
:102F100041000020000C01401C0000201400002093
:102F20002B0000208B0000203A0000200010014000
:102F3000480000204C000020460000204A000020ED
:102F400070B52E4CE479C4F300142D4D2C702D4C2B
:102F50002478012C05D12C46247814B900242A4D5C
:102F60002C60274C2478274D2C70002004E0234C43
:102F7000245C264D2C54401C0728F8DB1F4CE479B8
:102F800004F00F02002010E01C4D00F108042C5D3D
:102F900004F00F031B019C18E5B2C41D1B4E3555F0
:102FA000164D641C2C5D2209401C0828ECDB002215
:102FB000002013E000210AE0144C655C144C04EB83
:102FC0000014641C645CA54200D002E0491C0F2977
:102FD000F2DB00BF0F2900D104E0401C0D4C248817
:102FE000A042E7DB00BF0B4C2488A04202DA0A4D66
:102FF000288002E00024084D2C8070BD6C00002069
:103000002800002029000020180000207C0000205B
:103010008B000020380000203A00002010B500206E
:1030200003E00021084A1154401C2828F9DB002045
:1030300006490870002404E00549085DFFF73EFDDD
:10304000641C082CF8DB10BD8B1400203D00002010
:1030500058000020BFB50746002408E0002004EB1C
:10306000C40101EB44113E4A5054601CC4B2082C08
:10307000F4DB00240AE03B483B49098800EB0110DF
:10308000401C005D02A90855601CC4B2072CF2DB8D
:1030900034483549098800EB0110007A00F00F0030
:1030A0008DF80F002F483049098800EB0110007A95
:1030B00000098DF8000000241FE01DF804202948B5
:1030C0002949098800EB0110401C04F10801405C0B
:1030D000F02101EA00101044C0B20DF804002148AC
:1030E0002149098800EB0110401C04F10801405CF3
:1030F0000109601C0DF80010C4B2072CDDDB022FA3
:1031000010DA1A48007800F1200502A92846FDF7D8
:103110007BFA1748007800F1400569462846FDF71C
:1031200073FA1BE01148007800F120059DF80F00AC
:103130001030C0B28DF80F0002A92846FDF764FADE
:103140000B48007800F140059DF807001030C0B230
:103150008DF8070069462846FDF756FABFBD000006
:10316000B31400208B0000203A0000202C00002027
:103170002D00002000B587B001210520FDF7AEFC31
:1031800001214804FDF78AFC2448FDF70BFF1820B5
:103190008DF81B000420ADF8180003208DF81A00EC
:1031A00006A91F48FDF775FB04208DF81B000820B9
:1031B000ADF8180006A91A48FDF76BFB4FF49650BE
:1031C00002900020ADF814000C20ADF81200002091
:1031D000ADF81000ADF80E00ADF80C0002A90F48D4
:1031E000FDF78AFF01210D48FDF7D0FE012240F2D4
:1031F00025510A48FDF75BFF26208DF804000120C9
:103200008DF8070000208DF8050002208DF80600DB
:1032100001A8FDF7FFFB07B000BD0000004400401F
:103220000008014044320008000000206C0000004B
:103230006C010008B03200086C000020441E000041
:1032400088010008000000000102030401020304D9
:10325000060708090204060800000000000000003C
:10326000000000000000000000000000000000005E
:10327000000000000000000000000000000000004E
:10328000000000000000000000000000000000003E
:1032900000000000000000000000000001030048E2
:1032A000000645DE000000000000000000000000F5
:0400000508000131BD
:00000001FF
